{
	".deps/github/chiru-labs/ERC721A/contracts/ERC721A.sol": {
		"ERC721A": {
			"abi": [
				{
					"inputs": [
						{
							"internalType": "string",
							"name": "name_",
							"type": "string"
						},
						{
							"internalType": "string",
							"name": "symbol_",
							"type": "string"
						},
						{
							"internalType": "string",
							"name": "url_",
							"type": "string"
						}
					],
					"stateMutability": "nonpayable",
					"type": "constructor"
				},
				{
					"inputs": [],
					"name": "ApprovalCallerNotOwnerNorApproved",
					"type": "error"
				},
				{
					"inputs": [],
					"name": "ApprovalQueryForNonexistentToken",
					"type": "error"
				},
				{
					"inputs": [],
					"name": "ApprovalToCurrentOwner",
					"type": "error"
				},
				{
					"inputs": [],
					"name": "ApproveToCaller",
					"type": "error"
				},
				{
					"inputs": [],
					"name": "BalanceQueryForZeroAddress",
					"type": "error"
				},
				{
					"inputs": [],
					"name": "OwnerQueryForNonexistentToken",
					"type": "error"
				},
				{
					"inputs": [],
					"name": "TransferCallerNotOwnerNorApproved",
					"type": "error"
				},
				{
					"inputs": [],
					"name": "TransferFromIncorrectOwner",
					"type": "error"
				},
				{
					"inputs": [],
					"name": "TransferToNonERC721ReceiverImplementer",
					"type": "error"
				},
				{
					"inputs": [],
					"name": "TransferToZeroAddress",
					"type": "error"
				},
				{
					"inputs": [],
					"name": "URIQueryForNonexistentToken",
					"type": "error"
				},
				{
					"anonymous": false,
					"inputs": [
						{
							"indexed": true,
							"internalType": "address",
							"name": "owner",
							"type": "address"
						},
						{
							"indexed": true,
							"internalType": "address",
							"name": "approved",
							"type": "address"
						},
						{
							"indexed": true,
							"internalType": "uint256",
							"name": "tokenId",
							"type": "uint256"
						}
					],
					"name": "Approval",
					"type": "event"
				},
				{
					"anonymous": false,
					"inputs": [
						{
							"indexed": true,
							"internalType": "address",
							"name": "owner",
							"type": "address"
						},
						{
							"indexed": true,
							"internalType": "address",
							"name": "operator",
							"type": "address"
						},
						{
							"indexed": false,
							"internalType": "bool",
							"name": "approved",
							"type": "bool"
						}
					],
					"name": "ApprovalForAll",
					"type": "event"
				},
				{
					"anonymous": false,
					"inputs": [
						{
							"indexed": true,
							"internalType": "address",
							"name": "from",
							"type": "address"
						},
						{
							"indexed": true,
							"internalType": "address",
							"name": "to",
							"type": "address"
						},
						{
							"indexed": true,
							"internalType": "uint256",
							"name": "tokenId",
							"type": "uint256"
						}
					],
					"name": "Transfer",
					"type": "event"
				},
				{
					"inputs": [
						{
							"internalType": "address",
							"name": "to",
							"type": "address"
						},
						{
							"internalType": "uint256",
							"name": "tokenId",
							"type": "uint256"
						}
					],
					"name": "approve",
					"outputs": [],
					"stateMutability": "nonpayable",
					"type": "function"
				},
				{
					"inputs": [
						{
							"internalType": "address",
							"name": "owner",
							"type": "address"
						}
					],
					"name": "balanceOf",
					"outputs": [
						{
							"internalType": "uint256",
							"name": "",
							"type": "uint256"
						}
					],
					"stateMutability": "view",
					"type": "function"
				},
				{
					"inputs": [
						{
							"internalType": "uint256",
							"name": "tokenId",
							"type": "uint256"
						}
					],
					"name": "getApproved",
					"outputs": [
						{
							"internalType": "address",
							"name": "",
							"type": "address"
						}
					],
					"stateMutability": "view",
					"type": "function"
				},
				{
					"inputs": [
						{
							"internalType": "address",
							"name": "owner",
							"type": "address"
						},
						{
							"internalType": "address",
							"name": "operator",
							"type": "address"
						}
					],
					"name": "isApprovedForAll",
					"outputs": [
						{
							"internalType": "bool",
							"name": "",
							"type": "bool"
						}
					],
					"stateMutability": "view",
					"type": "function"
				},
				{
					"inputs": [],
					"name": "name",
					"outputs": [
						{
							"internalType": "string",
							"name": "",
							"type": "string"
						}
					],
					"stateMutability": "view",
					"type": "function"
				},
				{
					"inputs": [
						{
							"internalType": "uint256",
							"name": "tokenId",
							"type": "uint256"
						}
					],
					"name": "ownerOf",
					"outputs": [
						{
							"internalType": "address",
							"name": "",
							"type": "address"
						}
					],
					"stateMutability": "view",
					"type": "function"
				},
				{
					"inputs": [
						{
							"internalType": "address",
							"name": "from",
							"type": "address"
						},
						{
							"internalType": "address",
							"name": "to",
							"type": "address"
						},
						{
							"internalType": "uint256",
							"name": "tokenId",
							"type": "uint256"
						}
					],
					"name": "safeTransferFrom",
					"outputs": [],
					"stateMutability": "nonpayable",
					"type": "function"
				},
				{
					"inputs": [
						{
							"internalType": "address",
							"name": "from",
							"type": "address"
						},
						{
							"internalType": "address",
							"name": "to",
							"type": "address"
						},
						{
							"internalType": "uint256",
							"name": "tokenId",
							"type": "uint256"
						},
						{
							"internalType": "bytes",
							"name": "_data",
							"type": "bytes"
						}
					],
					"name": "safeTransferFrom",
					"outputs": [],
					"stateMutability": "nonpayable",
					"type": "function"
				},
				{
					"inputs": [
						{
							"internalType": "address",
							"name": "operator",
							"type": "address"
						},
						{
							"internalType": "bool",
							"name": "approved",
							"type": "bool"
						}
					],
					"name": "setApprovalForAll",
					"outputs": [],
					"stateMutability": "nonpayable",
					"type": "function"
				},
				{
					"inputs": [
						{
							"internalType": "bytes4",
							"name": "interfaceId",
							"type": "bytes4"
						}
					],
					"name": "supportsInterface",
					"outputs": [
						{
							"internalType": "bool",
							"name": "",
							"type": "bool"
						}
					],
					"stateMutability": "view",
					"type": "function"
				},
				{
					"inputs": [],
					"name": "symbol",
					"outputs": [
						{
							"internalType": "string",
							"name": "",
							"type": "string"
						}
					],
					"stateMutability": "view",
					"type": "function"
				},
				{
					"inputs": [
						{
							"internalType": "uint256",
							"name": "tokenId",
							"type": "uint256"
						}
					],
					"name": "tokenURI",
					"outputs": [
						{
							"internalType": "string",
							"name": "",
							"type": "string"
						}
					],
					"stateMutability": "view",
					"type": "function"
				},
				{
					"inputs": [],
					"name": "totalSupply",
					"outputs": [
						{
							"internalType": "uint256",
							"name": "",
							"type": "uint256"
						}
					],
					"stateMutability": "view",
					"type": "function"
				},
				{
					"inputs": [
						{
							"internalType": "address",
							"name": "from",
							"type": "address"
						},
						{
							"internalType": "address",
							"name": "to",
							"type": "address"
						},
						{
							"internalType": "uint256",
							"name": "tokenId",
							"type": "uint256"
						}
					],
					"name": "transferFrom",
					"outputs": [],
					"stateMutability": "nonpayable",
					"type": "function"
				}
			],
			"devdoc": {
				"details": "Implementation of https://eips.ethereum.org/EIPS/eip-721[ERC721] Non-Fungible Token Standard, including the Metadata extension. Built to optimize for lower gas during batch mints. Assumes serials are sequentially minted starting at _startTokenId() (defaults to 0, e.g. 0, 1, 2, 3..). Assumes that an owner cannot have more than 2**64 - 1 (max value of uint64) of supply. Assumes that the maximum token id cannot exceed 2**256 - 1 (max value of uint256).",
				"kind": "dev",
				"methods": {
					"approve(address,uint256)": {
						"details": "See {IERC721-approve}."
					},
					"balanceOf(address)": {
						"details": "See {IERC721-balanceOf}."
					},
					"getApproved(uint256)": {
						"details": "See {IERC721-getApproved}."
					},
					"isApprovedForAll(address,address)": {
						"details": "See {IERC721-isApprovedForAll}."
					},
					"name()": {
						"details": "See {IERC721Metadata-name}."
					},
					"ownerOf(uint256)": {
						"details": "See {IERC721-ownerOf}."
					},
					"safeTransferFrom(address,address,uint256)": {
						"details": "See {IERC721-safeTransferFrom}."
					},
					"safeTransferFrom(address,address,uint256,bytes)": {
						"details": "See {IERC721-safeTransferFrom}."
					},
					"setApprovalForAll(address,bool)": {
						"details": "See {IERC721-setApprovalForAll}."
					},
					"supportsInterface(bytes4)": {
						"details": "See {IERC165-supportsInterface}."
					},
					"symbol()": {
						"details": "See {IERC721Metadata-symbol}."
					},
					"tokenURI(uint256)": {
						"details": "See {IERC721Metadata-tokenURI}."
					},
					"totalSupply()": {
						"details": "Burned tokens are calculated here, use _totalMinted() if you want to count just minted tokens."
					},
					"transferFrom(address,address,uint256)": {
						"details": "See {IERC721-transferFrom}."
					}
				},
				"version": 1
			},
			"evm": {
				"assembly": "    /* \".deps/github/chiru-labs/ERC721A/contracts/ERC721A.sol\":1464:21883  contract ERC721A is Context, ERC165, IERC721, IERC721Metadata {... */\n  mstore(0x40, 0x80)\n    /* \".deps/github/chiru-labs/ERC721A/contracts/ERC721A.sol\":3400:3595  constructor(string memory name_, string memory symbol_, string memory url_) {... */\n  callvalue\n  dup1\n  iszero\n  tag_1\n  jumpi\n  0x00\n  dup1\n  revert\ntag_1:\n  pop\n  mload(0x40)\n  sub(codesize, bytecodeSize)\n  dup1\n  bytecodeSize\n  dup4\n  codecopy\n  dup2\n  dup2\n  add\n  0x40\n  mstore\n  dup2\n  add\n  swap1\n  tag_2\n  swap2\n  swap1\n  tag_3\n  jump\t// in\ntag_2:\n    /* \".deps/github/chiru-labs/ERC721A/contracts/ERC721A.sol\":3494:3499  name_ */\n  dup3\n    /* \".deps/github/chiru-labs/ERC721A/contracts/ERC721A.sol\":3486:3491  _name */\n  0x02\n    /* \".deps/github/chiru-labs/ERC721A/contracts/ERC721A.sol\":3486:3499  _name = name_ */\n  swap1\n  dup1\n  mload\n  swap1\n  0x20\n  add\n  swap1\n  tag_6\n  swap3\n  swap2\n  swap1\n  tag_7\n  jump\t// in\ntag_6:\n  pop\n    /* \".deps/github/chiru-labs/ERC721A/contracts/ERC721A.sol\":3519:3526  symbol_ */\n  dup2\n    /* \".deps/github/chiru-labs/ERC721A/contracts/ERC721A.sol\":3509:3516  _symbol */\n  0x03\n    /* \".deps/github/chiru-labs/ERC721A/contracts/ERC721A.sol\":3509:3526  _symbol = symbol_ */\n  swap1\n  dup1\n  mload\n  swap1\n  0x20\n  add\n  swap1\n  tag_8\n  swap3\n  swap2\n  swap1\n  tag_7\n  jump\t// in\ntag_8:\n  pop\n    /* \".deps/github/chiru-labs/ERC721A/contracts/ERC721A.sol\":3543:3547  url_ */\n  dup1\n    /* \".deps/github/chiru-labs/ERC721A/contracts/ERC721A.sol\":3536:3540  _url */\n  0x04\n    /* \".deps/github/chiru-labs/ERC721A/contracts/ERC721A.sol\":3536:3547  _url = url_ */\n  swap1\n  dup1\n  mload\n  swap1\n  0x20\n  add\n  swap1\n  tag_9\n  swap3\n  swap2\n  swap1\n  tag_7\n  jump\t// in\ntag_9:\n  pop\n    /* \".deps/github/chiru-labs/ERC721A/contracts/ERC721A.sol\":3573:3588  _startTokenId() */\n  tag_10\n    /* \".deps/github/chiru-labs/ERC721A/contracts/ERC721A.sol\":3573:3586  _startTokenId */\n  shl(0x20, tag_11)\n    /* \".deps/github/chiru-labs/ERC721A/contracts/ERC721A.sol\":3573:3588  _startTokenId() */\n  0x20\n  shr\n  jump\t// in\ntag_10:\n    /* \".deps/github/chiru-labs/ERC721A/contracts/ERC721A.sol\":3557:3570  _currentIndex */\n  0x00\n    /* \".deps/github/chiru-labs/ERC721A/contracts/ERC721A.sol\":3557:3588  _currentIndex = _startTokenId() */\n  dup2\n  swap1\n  sstore\n  pop\n    /* \".deps/github/chiru-labs/ERC721A/contracts/ERC721A.sol\":3400:3595  constructor(string memory name_, string memory symbol_, string memory url_) {... */\n  pop\n  pop\n  pop\n    /* \".deps/github/chiru-labs/ERC721A/contracts/ERC721A.sol\":1464:21883  contract ERC721A is Context, ERC165, IERC721, IERC721Metadata {... */\n  jump(tag_12)\n    /* \".deps/github/chiru-labs/ERC721A/contracts/ERC721A.sol\":3687:3777  function _startTokenId() internal view virtual returns (uint256) {... */\ntag_11:\n    /* \".deps/github/chiru-labs/ERC721A/contracts/ERC721A.sol\":3743:3750  uint256 */\n  0x00\n    /* \".deps/github/chiru-labs/ERC721A/contracts/ERC721A.sol\":3687:3777  function _startTokenId() internal view virtual returns (uint256) {... */\n  swap1\n  jump\t// out\n    /* \".deps/github/chiru-labs/ERC721A/contracts/ERC721A.sol\":1464:21883  contract ERC721A is Context, ERC165, IERC721, IERC721Metadata {... */\ntag_7:\n  dup3\n  dup1\n  sload\n  tag_14\n  swap1\n  tag_15\n  jump\t// in\ntag_14:\n  swap1\n  0x00\n  mstore\n  keccak256(0x00, 0x20)\n  swap1\n  0x1f\n  add\n  0x20\n  swap1\n  div\n  dup2\n  add\n  swap3\n  dup3\n  tag_17\n  jumpi\n  0x00\n  dup6\n  sstore\n  jump(tag_16)\ntag_17:\n  dup3\n  0x1f\n  lt\n  tag_18\n  jumpi\n  dup1\n  mload\n  not(0xff)\n  and\n  dup4\n  dup1\n  add\n  or\n  dup6\n  sstore\n  jump(tag_16)\ntag_18:\n  dup3\n  dup1\n  add\n  0x01\n  add\n  dup6\n  sstore\n  dup3\n  iszero\n  tag_16\n  jumpi\n  swap2\n  dup3\n  add\ntag_19:\n  dup3\n  dup2\n  gt\n  iszero\n  tag_20\n  jumpi\n  dup3\n  mload\n  dup3\n  sstore\n  swap2\n  0x20\n  add\n  swap2\n  swap1\n  0x01\n  add\n  swap1\n  jump(tag_19)\ntag_20:\ntag_16:\n  pop\n  swap1\n  pop\n  tag_21\n  swap2\n  swap1\n  tag_22\n  jump\t// in\ntag_21:\n  pop\n  swap1\n  jump\t// out\ntag_22:\ntag_23:\n  dup1\n  dup3\n  gt\n  iszero\n  tag_24\n  jumpi\n  0x00\n  dup2\n  0x00\n  swap1\n  sstore\n  pop\n  0x01\n  add\n  jump(tag_23)\ntag_24:\n  pop\n  swap1\n  jump\t// out\n    /* \"#utility.yul\":7:428   */\ntag_26:\n    /* \"#utility.yul\":96:101   */\n  0x00\n    /* \"#utility.yul\":121:187   */\n  tag_28\n    /* \"#utility.yul\":137:186   */\n  tag_29\n    /* \"#utility.yul\":179:185   */\n  dup5\n    /* \"#utility.yul\":137:186   */\n  tag_30\n  jump\t// in\ntag_29:\n    /* \"#utility.yul\":121:187   */\n  tag_31\n  jump\t// in\ntag_28:\n    /* \"#utility.yul\":112:187   */\n  swap1\n  pop\n    /* \"#utility.yul\":210:216   */\n  dup3\n    /* \"#utility.yul\":203:208   */\n  dup2\n    /* \"#utility.yul\":196:217   */\n  mstore\n    /* \"#utility.yul\":248:252   */\n  0x20\n    /* \"#utility.yul\":241:246   */\n  dup2\n    /* \"#utility.yul\":237:253   */\n  add\n    /* \"#utility.yul\":286:289   */\n  dup5\n    /* \"#utility.yul\":277:283   */\n  dup5\n    /* \"#utility.yul\":272:275   */\n  dup5\n    /* \"#utility.yul\":268:284   */\n  add\n    /* \"#utility.yul\":265:290   */\n  gt\n    /* \"#utility.yul\":262:374   */\n  iszero\n  tag_32\n  jumpi\n    /* \"#utility.yul\":293:372   */\n  tag_33\n  tag_34\n  jump\t// in\ntag_33:\n    /* \"#utility.yul\":262:374   */\ntag_32:\n    /* \"#utility.yul\":383:422   */\n  tag_35\n    /* \"#utility.yul\":415:421   */\n  dup5\n    /* \"#utility.yul\":410:413   */\n  dup3\n    /* \"#utility.yul\":405:408   */\n  dup6\n    /* \"#utility.yul\":383:422   */\n  tag_36\n  jump\t// in\ntag_35:\n    /* \"#utility.yul\":102:428   */\n  pop\n    /* \"#utility.yul\":7:428   */\n  swap4\n  swap3\n  pop\n  pop\n  pop\n  jump\t// out\n    /* \"#utility.yul\":448:803   */\ntag_37:\n    /* \"#utility.yul\":515:520   */\n  0x00\n    /* \"#utility.yul\":564:567   */\n  dup3\n    /* \"#utility.yul\":557:561   */\n  0x1f\n    /* \"#utility.yul\":549:555   */\n  dup4\n    /* \"#utility.yul\":545:562   */\n  add\n    /* \"#utility.yul\":541:568   */\n  slt\n    /* \"#utility.yul\":531:653   */\n  tag_39\n  jumpi\n    /* \"#utility.yul\":572:651   */\n  tag_40\n  tag_41\n  jump\t// in\ntag_40:\n    /* \"#utility.yul\":531:653   */\ntag_39:\n    /* \"#utility.yul\":682:688   */\n  dup2\n    /* \"#utility.yul\":676:689   */\n  mload\n    /* \"#utility.yul\":707:797   */\n  tag_42\n    /* \"#utility.yul\":793:796   */\n  dup5\n    /* \"#utility.yul\":785:791   */\n  dup3\n    /* \"#utility.yul\":778:782   */\n  0x20\n    /* \"#utility.yul\":770:776   */\n  dup7\n    /* \"#utility.yul\":766:783   */\n  add\n    /* \"#utility.yul\":707:797   */\n  tag_26\n  jump\t// in\ntag_42:\n    /* \"#utility.yul\":698:797   */\n  swap2\n  pop\n    /* \"#utility.yul\":521:803   */\n  pop\n    /* \"#utility.yul\":448:803   */\n  swap3\n  swap2\n  pop\n  pop\n  jump\t// out\n    /* \"#utility.yul\":809:1991   */\ntag_3:\n    /* \"#utility.yul\":927:933   */\n  0x00\n    /* \"#utility.yul\":935:941   */\n  dup1\n    /* \"#utility.yul\":943:949   */\n  0x00\n    /* \"#utility.yul\":992:994   */\n  0x60\n    /* \"#utility.yul\":980:989   */\n  dup5\n    /* \"#utility.yul\":971:978   */\n  dup7\n    /* \"#utility.yul\":967:990   */\n  sub\n    /* \"#utility.yul\":963:995   */\n  slt\n    /* \"#utility.yul\":960:1079   */\n  iszero\n  tag_44\n  jumpi\n    /* \"#utility.yul\":998:1077   */\n  tag_45\n  tag_46\n  jump\t// in\ntag_45:\n    /* \"#utility.yul\":960:1079   */\ntag_44:\n    /* \"#utility.yul\":1139:1140   */\n  0x00\n    /* \"#utility.yul\":1128:1137   */\n  dup5\n    /* \"#utility.yul\":1124:1141   */\n  add\n    /* \"#utility.yul\":1118:1142   */\n  mload\n    /* \"#utility.yul\":1169:1187   */\n  0xffffffffffffffff\n    /* \"#utility.yul\":1161:1167   */\n  dup2\n    /* \"#utility.yul\":1158:1188   */\n  gt\n    /* \"#utility.yul\":1155:1272   */\n  iszero\n  tag_47\n  jumpi\n    /* \"#utility.yul\":1191:1270   */\n  tag_48\n  tag_49\n  jump\t// in\ntag_48:\n    /* \"#utility.yul\":1155:1272   */\ntag_47:\n    /* \"#utility.yul\":1296:1370   */\n  tag_50\n    /* \"#utility.yul\":1362:1369   */\n  dup7\n    /* \"#utility.yul\":1353:1359   */\n  dup3\n    /* \"#utility.yul\":1342:1351   */\n  dup8\n    /* \"#utility.yul\":1338:1360   */\n  add\n    /* \"#utility.yul\":1296:1370   */\n  tag_37\n  jump\t// in\ntag_50:\n    /* \"#utility.yul\":1286:1370   */\n  swap4\n  pop\n    /* \"#utility.yul\":1089:1380   */\n  pop\n    /* \"#utility.yul\":1440:1442   */\n  0x20\n    /* \"#utility.yul\":1429:1438   */\n  dup5\n    /* \"#utility.yul\":1425:1443   */\n  add\n    /* \"#utility.yul\":1419:1444   */\n  mload\n    /* \"#utility.yul\":1471:1489   */\n  0xffffffffffffffff\n    /* \"#utility.yul\":1463:1469   */\n  dup2\n    /* \"#utility.yul\":1460:1490   */\n  gt\n    /* \"#utility.yul\":1457:1574   */\n  iszero\n  tag_51\n  jumpi\n    /* \"#utility.yul\":1493:1572   */\n  tag_52\n  tag_49\n  jump\t// in\ntag_52:\n    /* \"#utility.yul\":1457:1574   */\ntag_51:\n    /* \"#utility.yul\":1598:1672   */\n  tag_53\n    /* \"#utility.yul\":1664:1671   */\n  dup7\n    /* \"#utility.yul\":1655:1661   */\n  dup3\n    /* \"#utility.yul\":1644:1653   */\n  dup8\n    /* \"#utility.yul\":1640:1662   */\n  add\n    /* \"#utility.yul\":1598:1672   */\n  tag_37\n  jump\t// in\ntag_53:\n    /* \"#utility.yul\":1588:1672   */\n  swap3\n  pop\n    /* \"#utility.yul\":1390:1682   */\n  pop\n    /* \"#utility.yul\":1742:1744   */\n  0x40\n    /* \"#utility.yul\":1731:1740   */\n  dup5\n    /* \"#utility.yul\":1727:1745   */\n  add\n    /* \"#utility.yul\":1721:1746   */\n  mload\n    /* \"#utility.yul\":1773:1791   */\n  0xffffffffffffffff\n    /* \"#utility.yul\":1765:1771   */\n  dup2\n    /* \"#utility.yul\":1762:1792   */\n  gt\n    /* \"#utility.yul\":1759:1876   */\n  iszero\n  tag_54\n  jumpi\n    /* \"#utility.yul\":1795:1874   */\n  tag_55\n  tag_49\n  jump\t// in\ntag_55:\n    /* \"#utility.yul\":1759:1876   */\ntag_54:\n    /* \"#utility.yul\":1900:1974   */\n  tag_56\n    /* \"#utility.yul\":1966:1973   */\n  dup7\n    /* \"#utility.yul\":1957:1963   */\n  dup3\n    /* \"#utility.yul\":1946:1955   */\n  dup8\n    /* \"#utility.yul\":1942:1964   */\n  add\n    /* \"#utility.yul\":1900:1974   */\n  tag_37\n  jump\t// in\ntag_56:\n    /* \"#utility.yul\":1890:1974   */\n  swap2\n  pop\n    /* \"#utility.yul\":1692:1984   */\n  pop\n    /* \"#utility.yul\":809:1991   */\n  swap3\n  pop\n  swap3\n  pop\n  swap3\n  jump\t// out\n    /* \"#utility.yul\":1997:2126   */\ntag_31:\n    /* \"#utility.yul\":2031:2037   */\n  0x00\n    /* \"#utility.yul\":2058:2078   */\n  tag_58\n  tag_59\n  jump\t// in\ntag_58:\n    /* \"#utility.yul\":2048:2078   */\n  swap1\n  pop\n    /* \"#utility.yul\":2087:2120   */\n  tag_60\n    /* \"#utility.yul\":2115:2119   */\n  dup3\n    /* \"#utility.yul\":2107:2113   */\n  dup3\n    /* \"#utility.yul\":2087:2120   */\n  tag_61\n  jump\t// in\ntag_60:\n    /* \"#utility.yul\":1997:2126   */\n  swap2\n  swap1\n  pop\n  jump\t// out\n    /* \"#utility.yul\":2132:2207   */\ntag_59:\n    /* \"#utility.yul\":2165:2171   */\n  0x00\n    /* \"#utility.yul\":2198:2200   */\n  0x40\n    /* \"#utility.yul\":2192:2201   */\n  mload\n    /* \"#utility.yul\":2182:2201   */\n  swap1\n  pop\n    /* \"#utility.yul\":2132:2207   */\n  swap1\n  jump\t// out\n    /* \"#utility.yul\":2213:2521   */\ntag_30:\n    /* \"#utility.yul\":2275:2279   */\n  0x00\n    /* \"#utility.yul\":2365:2383   */\n  0xffffffffffffffff\n    /* \"#utility.yul\":2357:2363   */\n  dup3\n    /* \"#utility.yul\":2354:2384   */\n  gt\n    /* \"#utility.yul\":2351:2407   */\n  iszero\n  tag_64\n  jumpi\n    /* \"#utility.yul\":2387:2405   */\n  tag_65\n  tag_66\n  jump\t// in\ntag_65:\n    /* \"#utility.yul\":2351:2407   */\ntag_64:\n    /* \"#utility.yul\":2425:2454   */\n  tag_67\n    /* \"#utility.yul\":2447:2453   */\n  dup3\n    /* \"#utility.yul\":2425:2454   */\n  tag_68\n  jump\t// in\ntag_67:\n    /* \"#utility.yul\":2417:2454   */\n  swap1\n  pop\n    /* \"#utility.yul\":2509:2513   */\n  0x20\n    /* \"#utility.yul\":2503:2507   */\n  dup2\n    /* \"#utility.yul\":2499:2514   */\n  add\n    /* \"#utility.yul\":2491:2514   */\n  swap1\n  pop\n    /* \"#utility.yul\":2213:2521   */\n  swap2\n  swap1\n  pop\n  jump\t// out\n    /* \"#utility.yul\":2527:2834   */\ntag_36:\n    /* \"#utility.yul\":2595:2596   */\n  0x00\n    /* \"#utility.yul\":2605:2718   */\ntag_70:\n    /* \"#utility.yul\":2619:2625   */\n  dup4\n    /* \"#utility.yul\":2616:2617   */\n  dup2\n    /* \"#utility.yul\":2613:2626   */\n  lt\n    /* \"#utility.yul\":2605:2718   */\n  iszero\n  tag_72\n  jumpi\n    /* \"#utility.yul\":2704:2705   */\n  dup1\n    /* \"#utility.yul\":2699:2702   */\n  dup3\n    /* \"#utility.yul\":2695:2706   */\n  add\n    /* \"#utility.yul\":2689:2707   */\n  mload\n    /* \"#utility.yul\":2685:2686   */\n  dup2\n    /* \"#utility.yul\":2680:2683   */\n  dup5\n    /* \"#utility.yul\":2676:2687   */\n  add\n    /* \"#utility.yul\":2669:2708   */\n  mstore\n    /* \"#utility.yul\":2641:2643   */\n  0x20\n    /* \"#utility.yul\":2638:2639   */\n  dup2\n    /* \"#utility.yul\":2634:2644   */\n  add\n    /* \"#utility.yul\":2629:2644   */\n  swap1\n  pop\n    /* \"#utility.yul\":2605:2718   */\n  jump(tag_70)\ntag_72:\n    /* \"#utility.yul\":2736:2742   */\n  dup4\n    /* \"#utility.yul\":2733:2734   */\n  dup2\n    /* \"#utility.yul\":2730:2743   */\n  gt\n    /* \"#utility.yul\":2727:2828   */\n  iszero\n  tag_73\n  jumpi\n    /* \"#utility.yul\":2816:2817   */\n  0x00\n    /* \"#utility.yul\":2807:2813   */\n  dup5\n    /* \"#utility.yul\":2802:2805   */\n  dup5\n    /* \"#utility.yul\":2798:2814   */\n  add\n    /* \"#utility.yul\":2791:2818   */\n  mstore\n    /* \"#utility.yul\":2727:2828   */\ntag_73:\n    /* \"#utility.yul\":2576:2834   */\n  pop\n    /* \"#utility.yul\":2527:2834   */\n  pop\n  pop\n  pop\n  jump\t// out\n    /* \"#utility.yul\":2840:3160   */\ntag_15:\n    /* \"#utility.yul\":2884:2890   */\n  0x00\n    /* \"#utility.yul\":2921:2922   */\n  0x02\n    /* \"#utility.yul\":2915:2919   */\n  dup3\n    /* \"#utility.yul\":2911:2923   */\n  div\n    /* \"#utility.yul\":2901:2923   */\n  swap1\n  pop\n    /* \"#utility.yul\":2968:2969   */\n  0x01\n    /* \"#utility.yul\":2962:2966   */\n  dup3\n    /* \"#utility.yul\":2958:2970   */\n  and\n    /* \"#utility.yul\":2989:3007   */\n  dup1\n    /* \"#utility.yul\":2979:3060   */\n  tag_75\n  jumpi\n    /* \"#utility.yul\":3045:3049   */\n  0x7f\n    /* \"#utility.yul\":3037:3043   */\n  dup3\n    /* \"#utility.yul\":3033:3050   */\n  and\n    /* \"#utility.yul\":3023:3050   */\n  swap2\n  pop\n    /* \"#utility.yul\":2979:3060   */\ntag_75:\n    /* \"#utility.yul\":3107:3109   */\n  0x20\n    /* \"#utility.yul\":3099:3105   */\n  dup3\n    /* \"#utility.yul\":3096:3110   */\n  lt\n    /* \"#utility.yul\":3076:3094   */\n  dup2\n    /* \"#utility.yul\":3073:3111   */\n  eq\n    /* \"#utility.yul\":3070:3154   */\n  iszero\n  tag_76\n  jumpi\n    /* \"#utility.yul\":3126:3144   */\n  tag_77\n  tag_78\n  jump\t// in\ntag_77:\n    /* \"#utility.yul\":3070:3154   */\ntag_76:\n    /* \"#utility.yul\":2891:3160   */\n  pop\n    /* \"#utility.yul\":2840:3160   */\n  swap2\n  swap1\n  pop\n  jump\t// out\n    /* \"#utility.yul\":3166:3447   */\ntag_61:\n    /* \"#utility.yul\":3249:3276   */\n  tag_80\n    /* \"#utility.yul\":3271:3275   */\n  dup3\n    /* \"#utility.yul\":3249:3276   */\n  tag_68\n  jump\t// in\ntag_80:\n    /* \"#utility.yul\":3241:3247   */\n  dup2\n    /* \"#utility.yul\":3237:3277   */\n  add\n    /* \"#utility.yul\":3379:3385   */\n  dup2\n    /* \"#utility.yul\":3367:3377   */\n  dup2\n    /* \"#utility.yul\":3364:3386   */\n  lt\n    /* \"#utility.yul\":3343:3361   */\n  0xffffffffffffffff\n    /* \"#utility.yul\":3331:3341   */\n  dup3\n    /* \"#utility.yul\":3328:3362   */\n  gt\n    /* \"#utility.yul\":3325:3387   */\n  or\n    /* \"#utility.yul\":3322:3410   */\n  iszero\n  tag_81\n  jumpi\n    /* \"#utility.yul\":3390:3408   */\n  tag_82\n  tag_66\n  jump\t// in\ntag_82:\n    /* \"#utility.yul\":3322:3410   */\ntag_81:\n    /* \"#utility.yul\":3430:3440   */\n  dup1\n    /* \"#utility.yul\":3426:3428   */\n  0x40\n    /* \"#utility.yul\":3419:3441   */\n  mstore\n    /* \"#utility.yul\":3209:3447   */\n  pop\n    /* \"#utility.yul\":3166:3447   */\n  pop\n  pop\n  jump\t// out\n    /* \"#utility.yul\":3453:3633   */\ntag_78:\n    /* \"#utility.yul\":3501:3578   */\n  0x4e487b7100000000000000000000000000000000000000000000000000000000\n    /* \"#utility.yul\":3498:3499   */\n  0x00\n    /* \"#utility.yul\":3491:3579   */\n  mstore\n    /* \"#utility.yul\":3598:3602   */\n  0x22\n    /* \"#utility.yul\":3595:3596   */\n  0x04\n    /* \"#utility.yul\":3588:3603   */\n  mstore\n    /* \"#utility.yul\":3622:3626   */\n  0x24\n    /* \"#utility.yul\":3619:3620   */\n  0x00\n    /* \"#utility.yul\":3612:3627   */\n  revert\n    /* \"#utility.yul\":3639:3819   */\ntag_66:\n    /* \"#utility.yul\":3687:3764   */\n  0x4e487b7100000000000000000000000000000000000000000000000000000000\n    /* \"#utility.yul\":3684:3685   */\n  0x00\n    /* \"#utility.yul\":3677:3765   */\n  mstore\n    /* \"#utility.yul\":3784:3788   */\n  0x41\n    /* \"#utility.yul\":3781:3782   */\n  0x04\n    /* \"#utility.yul\":3774:3789   */\n  mstore\n    /* \"#utility.yul\":3808:3812   */\n  0x24\n    /* \"#utility.yul\":3805:3806   */\n  0x00\n    /* \"#utility.yul\":3798:3813   */\n  revert\n    /* \"#utility.yul\":3825:3942   */\ntag_41:\n    /* \"#utility.yul\":3934:3935   */\n  0x00\n    /* \"#utility.yul\":3931:3932   */\n  dup1\n    /* \"#utility.yul\":3924:3936   */\n  revert\n    /* \"#utility.yul\":3948:4065   */\ntag_34:\n    /* \"#utility.yul\":4057:4058   */\n  0x00\n    /* \"#utility.yul\":4054:4055   */\n  dup1\n    /* \"#utility.yul\":4047:4059   */\n  revert\n    /* \"#utility.yul\":4071:4188   */\ntag_49:\n    /* \"#utility.yul\":4180:4181   */\n  0x00\n    /* \"#utility.yul\":4177:4178   */\n  dup1\n    /* \"#utility.yul\":4170:4182   */\n  revert\n    /* \"#utility.yul\":4194:4311   */\ntag_46:\n    /* \"#utility.yul\":4303:4304   */\n  0x00\n    /* \"#utility.yul\":4300:4301   */\n  dup1\n    /* \"#utility.yul\":4293:4305   */\n  revert\n    /* \"#utility.yul\":4317:4419   */\ntag_68:\n    /* \"#utility.yul\":4358:4364   */\n  0x00\n    /* \"#utility.yul\":4409:4411   */\n  0x1f\n    /* \"#utility.yul\":4405:4412   */\n  not\n    /* \"#utility.yul\":4400:4402   */\n  0x1f\n    /* \"#utility.yul\":4393:4398   */\n  dup4\n    /* \"#utility.yul\":4389:4403   */\n  add\n    /* \"#utility.yul\":4385:4413   */\n  and\n    /* \"#utility.yul\":4375:4413   */\n  swap1\n  pop\n    /* \"#utility.yul\":4317:4419   */\n  swap2\n  swap1\n  pop\n  jump\t// out\n    /* \".deps/github/chiru-labs/ERC721A/contracts/ERC721A.sol\":1464:21883  contract ERC721A is Context, ERC165, IERC721, IERC721Metadata {... */\ntag_12:\n  dataSize(sub_0)\n  dup1\n  dataOffset(sub_0)\n  0x00\n  codecopy\n  0x00\n  return\nstop\n\nsub_0: assembly {\n        /* \".deps/github/chiru-labs/ERC721A/contracts/ERC721A.sol\":1464:21883  contract ERC721A is Context, ERC165, IERC721, IERC721Metadata {... */\n      mstore(0x40, 0x80)\n      callvalue\n      dup1\n      iszero\n      tag_1\n      jumpi\n      0x00\n      dup1\n      revert\n    tag_1:\n      pop\n      jumpi(tag_2, lt(calldatasize, 0x04))\n      shr(0xe0, calldataload(0x00))\n      dup1\n      0x6352211e\n      gt\n      tag_17\n      jumpi\n      dup1\n      0xa22cb465\n      gt\n      tag_18\n      jumpi\n      dup1\n      0xa22cb465\n      eq\n      tag_13\n      jumpi\n      dup1\n      0xb88d4fde\n      eq\n      tag_14\n      jumpi\n      dup1\n      0xc87b56dd\n      eq\n      tag_15\n      jumpi\n      dup1\n      0xe985e9c5\n      eq\n      tag_16\n      jumpi\n      jump(tag_2)\n    tag_18:\n      dup1\n      0x6352211e\n      eq\n      tag_10\n      jumpi\n      dup1\n      0x70a08231\n      eq\n      tag_11\n      jumpi\n      dup1\n      0x95d89b41\n      eq\n      tag_12\n      jumpi\n      jump(tag_2)\n    tag_17:\n      dup1\n      0x095ea7b3\n      gt\n      tag_19\n      jumpi\n      dup1\n      0x095ea7b3\n      eq\n      tag_6\n      jumpi\n      dup1\n      0x18160ddd\n      eq\n      tag_7\n      jumpi\n      dup1\n      0x23b872dd\n      eq\n      tag_8\n      jumpi\n      dup1\n      0x42842e0e\n      eq\n      tag_9\n      jumpi\n      jump(tag_2)\n    tag_19:\n      dup1\n      0x01ffc9a7\n      eq\n      tag_3\n      jumpi\n      dup1\n      0x06fdde03\n      eq\n      tag_4\n      jumpi\n      dup1\n      0x081812fc\n      eq\n      tag_5\n      jumpi\n    tag_2:\n      0x00\n      dup1\n      revert\n        /* \".deps/github/chiru-labs/ERC721A/contracts/ERC721A.sol\":4635:4935  function supportsInterface(bytes4 interfaceId) public view virtual override(ERC165, IERC165) returns (bool) {... */\n    tag_3:\n      tag_20\n      0x04\n      dup1\n      calldatasize\n      sub\n      dup2\n      add\n      swap1\n      tag_21\n      swap2\n      swap1\n      tag_22\n      jump\t// in\n    tag_21:\n      tag_23\n      jump\t// in\n    tag_20:\n      mload(0x40)\n      tag_24\n      swap2\n      swap1\n      tag_25\n      jump\t// in\n    tag_24:\n      mload(0x40)\n      dup1\n      swap2\n      sub\n      swap1\n      return\n        /* \".deps/github/chiru-labs/ERC721A/contracts/ERC721A.sol\":7663:7761  function name() public view virtual override returns (string memory) {... */\n    tag_4:\n      tag_26\n      tag_27\n      jump\t// in\n    tag_26:\n      mload(0x40)\n      tag_28\n      swap2\n      swap1\n      tag_29\n      jump\t// in\n    tag_28:\n      mload(0x40)\n      dup1\n      swap2\n      sub\n      swap1\n      return\n        /* \".deps/github/chiru-labs/ERC721A/contracts/ERC721A.sol\":9123:9323  function getApproved(uint256 tokenId) public view override returns (address) {... */\n    tag_5:\n      tag_30\n      0x04\n      dup1\n      calldatasize\n      sub\n      dup2\n      add\n      swap1\n      tag_31\n      swap2\n      swap1\n      tag_32\n      jump\t// in\n    tag_31:\n      tag_33\n      jump\t// in\n    tag_30:\n      mload(0x40)\n      tag_34\n      swap2\n      swap1\n      tag_35\n      jump\t// in\n    tag_34:\n      mload(0x40)\n      dup1\n      swap2\n      sub\n      swap1\n      return\n        /* \".deps/github/chiru-labs/ERC721A/contracts/ERC721A.sol\":8700:9062  function approve(address to, uint256 tokenId) public override {... */\n    tag_6:\n      tag_36\n      0x04\n      dup1\n      calldatasize\n      sub\n      dup2\n      add\n      swap1\n      tag_37\n      swap2\n      swap1\n      tag_38\n      jump\t// in\n    tag_37:\n      tag_39\n      jump\t// in\n    tag_36:\n      stop\n        /* \".deps/github/chiru-labs/ERC721A/contracts/ERC721A.sol\":3906:4203  function totalSupply() public view returns (uint256) {... */\n    tag_7:\n      tag_40\n      tag_41\n      jump\t// in\n    tag_40:\n      mload(0x40)\n      tag_42\n      swap2\n      swap1\n      tag_43\n      jump\t// in\n    tag_42:\n      mload(0x40)\n      dup1\n      swap2\n      sub\n      swap1\n      return\n        /* \".deps/github/chiru-labs/ERC721A/contracts/ERC721A.sol\":9962:10126  function transferFrom(... */\n    tag_8:\n      tag_44\n      0x04\n      dup1\n      calldatasize\n      sub\n      dup2\n      add\n      swap1\n      tag_45\n      swap2\n      swap1\n      tag_46\n      jump\t// in\n    tag_45:\n      tag_47\n      jump\t// in\n    tag_44:\n      stop\n        /* \".deps/github/chiru-labs/ERC721A/contracts/ERC721A.sol\":10192:10371  function safeTransferFrom(... */\n    tag_9:\n      tag_48\n      0x04\n      dup1\n      calldatasize\n      sub\n      dup2\n      add\n      swap1\n      tag_49\n      swap2\n      swap1\n      tag_46\n      jump\t// in\n    tag_49:\n      tag_50\n      jump\t// in\n    tag_48:\n      stop\n        /* \".deps/github/chiru-labs/ERC721A/contracts/ERC721A.sol\":7478:7601  function ownerOf(uint256 tokenId) public view override returns (address) {... */\n    tag_10:\n      tag_51\n      0x04\n      dup1\n      calldatasize\n      sub\n      dup2\n      add\n      swap1\n      tag_52\n      swap2\n      swap1\n      tag_32\n      jump\t// in\n    tag_52:\n      tag_53\n      jump\t// in\n    tag_51:\n      mload(0x40)\n      tag_54\n      swap2\n      swap1\n      tag_35\n      jump\t// in\n    tag_54:\n      mload(0x40)\n      dup1\n      swap2\n      sub\n      swap1\n      return\n        /* \".deps/github/chiru-labs/ERC721A/contracts/ERC721A.sol\":4994:5197  function balanceOf(address owner) public view override returns (uint256) {... */\n    tag_11:\n      tag_55\n      0x04\n      dup1\n      calldatasize\n      sub\n      dup2\n      add\n      swap1\n      tag_56\n      swap2\n      swap1\n      tag_57\n      jump\t// in\n    tag_56:\n      tag_58\n      jump\t// in\n    tag_55:\n      mload(0x40)\n      tag_59\n      swap2\n      swap1\n      tag_43\n      jump\t// in\n    tag_59:\n      mload(0x40)\n      dup1\n      swap2\n      sub\n      swap1\n      return\n        /* \".deps/github/chiru-labs/ERC721A/contracts/ERC721A.sol\":7825:7927  function symbol() public view virtual override returns (string memory) {... */\n    tag_12:\n      tag_60\n      tag_61\n      jump\t// in\n    tag_60:\n      mload(0x40)\n      tag_62\n      swap2\n      swap1\n      tag_29\n      jump\t// in\n    tag_62:\n      mload(0x40)\n      dup1\n      swap2\n      sub\n      swap1\n      return\n        /* \".deps/github/chiru-labs/ERC721A/contracts/ERC721A.sol\":9390:9672  function setApprovalForAll(address operator, bool approved) public virtual override {... */\n    tag_13:\n      tag_63\n      0x04\n      dup1\n      calldatasize\n      sub\n      dup2\n      add\n      swap1\n      tag_64\n      swap2\n      swap1\n      tag_65\n      jump\t// in\n    tag_64:\n      tag_66\n      jump\t// in\n    tag_63:\n      stop\n        /* \".deps/github/chiru-labs/ERC721A/contracts/ERC721A.sol\":10437:10796  function safeTransferFrom(... */\n    tag_14:\n      tag_67\n      0x04\n      dup1\n      calldatasize\n      sub\n      dup2\n      add\n      swap1\n      tag_68\n      swap2\n      swap1\n      tag_69\n      jump\t// in\n    tag_68:\n      tag_70\n      jump\t// in\n    tag_67:\n      stop\n        /* \".deps/github/chiru-labs/ERC721A/contracts/ERC721A.sol\":7993:8306  function tokenURI(uint256 tokenId) public view virtual override returns (string memory) {... */\n    tag_15:\n      tag_71\n      0x04\n      dup1\n      calldatasize\n      sub\n      dup2\n      add\n      swap1\n      tag_72\n      swap2\n      swap1\n      tag_32\n      jump\t// in\n    tag_72:\n      tag_73\n      jump\t// in\n    tag_71:\n      mload(0x40)\n      tag_74\n      swap2\n      swap1\n      tag_29\n      jump\t// in\n    tag_74:\n      mload(0x40)\n      dup1\n      swap2\n      sub\n      swap1\n      return\n        /* \".deps/github/chiru-labs/ERC721A/contracts/ERC721A.sol\":9738:9900  function isApprovedForAll(address owner, address operator) public view virtual override returns (bool) {... */\n    tag_16:\n      tag_75\n      0x04\n      dup1\n      calldatasize\n      sub\n      dup2\n      add\n      swap1\n      tag_76\n      swap2\n      swap1\n      tag_77\n      jump\t// in\n    tag_76:\n      tag_78\n      jump\t// in\n    tag_75:\n      mload(0x40)\n      tag_79\n      swap2\n      swap1\n      tag_25\n      jump\t// in\n    tag_79:\n      mload(0x40)\n      dup1\n      swap2\n      sub\n      swap1\n      return\n        /* \".deps/github/chiru-labs/ERC721A/contracts/ERC721A.sol\":4635:4935  function supportsInterface(bytes4 interfaceId) public view virtual override(ERC165, IERC165) returns (bool) {... */\n    tag_23:\n        /* \".deps/github/chiru-labs/ERC721A/contracts/ERC721A.sol\":4737:4741  bool */\n      0x00\n        /* \".deps/github/chiru-labs/ERC721A/contracts/ERC721A.sol\":4787:4812  type(IERC721).interfaceId */\n      0x80ac58cd00000000000000000000000000000000000000000000000000000000\n        /* \".deps/github/chiru-labs/ERC721A/contracts/ERC721A.sol\":4772:4812  interfaceId == type(IERC721).interfaceId */\n      not(0xffffffffffffffffffffffffffffffffffffffffffffffffffffffff)\n      and\n        /* \".deps/github/chiru-labs/ERC721A/contracts/ERC721A.sol\":4772:4783  interfaceId */\n      dup3\n        /* \".deps/github/chiru-labs/ERC721A/contracts/ERC721A.sol\":4772:4812  interfaceId == type(IERC721).interfaceId */\n      not(0xffffffffffffffffffffffffffffffffffffffffffffffffffffffff)\n      and\n      eq\n        /* \".deps/github/chiru-labs/ERC721A/contracts/ERC721A.sol\":4772:4876  interfaceId == type(IERC721).interfaceId ||... */\n      dup1\n      tag_81\n      jumpi\n      pop\n        /* \".deps/github/chiru-labs/ERC721A/contracts/ERC721A.sol\":4843:4876  type(IERC721Metadata).interfaceId */\n      0x5b5e139f00000000000000000000000000000000000000000000000000000000\n        /* \".deps/github/chiru-labs/ERC721A/contracts/ERC721A.sol\":4828:4876  interfaceId == type(IERC721Metadata).interfaceId */\n      not(0xffffffffffffffffffffffffffffffffffffffffffffffffffffffff)\n      and\n        /* \".deps/github/chiru-labs/ERC721A/contracts/ERC721A.sol\":4828:4839  interfaceId */\n      dup3\n        /* \".deps/github/chiru-labs/ERC721A/contracts/ERC721A.sol\":4828:4876  interfaceId == type(IERC721Metadata).interfaceId */\n      not(0xffffffffffffffffffffffffffffffffffffffffffffffffffffffff)\n      and\n      eq\n        /* \".deps/github/chiru-labs/ERC721A/contracts/ERC721A.sol\":4772:4876  interfaceId == type(IERC721).interfaceId ||... */\n    tag_81:\n        /* \".deps/github/chiru-labs/ERC721A/contracts/ERC721A.sol\":4772:4928  interfaceId == type(IERC721).interfaceId ||... */\n      dup1\n      tag_82\n      jumpi\n      pop\n        /* \".deps/github/chiru-labs/ERC721A/contracts/ERC721A.sol\":4892:4928  super.supportsInterface(interfaceId) */\n      tag_83\n        /* \".deps/github/chiru-labs/ERC721A/contracts/ERC721A.sol\":4916:4927  interfaceId */\n      dup3\n        /* \".deps/github/chiru-labs/ERC721A/contracts/ERC721A.sol\":4892:4915  super.supportsInterface */\n      tag_84\n        /* \".deps/github/chiru-labs/ERC721A/contracts/ERC721A.sol\":4892:4928  super.supportsInterface(interfaceId) */\n      jump\t// in\n    tag_83:\n        /* \".deps/github/chiru-labs/ERC721A/contracts/ERC721A.sol\":4772:4928  interfaceId == type(IERC721).interfaceId ||... */\n    tag_82:\n        /* \".deps/github/chiru-labs/ERC721A/contracts/ERC721A.sol\":4753:4928  return... */\n      swap1\n      pop\n        /* \".deps/github/chiru-labs/ERC721A/contracts/ERC721A.sol\":4635:4935  function supportsInterface(bytes4 interfaceId) public view virtual override(ERC165, IERC165) returns (bool) {... */\n      swap2\n      swap1\n      pop\n      jump\t// out\n        /* \".deps/github/chiru-labs/ERC721A/contracts/ERC721A.sol\":7663:7761  function name() public view virtual override returns (string memory) {... */\n    tag_27:\n        /* \".deps/github/chiru-labs/ERC721A/contracts/ERC721A.sol\":7717:7730  string memory */\n      0x60\n        /* \".deps/github/chiru-labs/ERC721A/contracts/ERC721A.sol\":7749:7754  _name */\n      0x02\n        /* \".deps/github/chiru-labs/ERC721A/contracts/ERC721A.sol\":7742:7754  return _name */\n      dup1\n      sload\n      tag_86\n      swap1\n      tag_87\n      jump\t// in\n    tag_86:\n      dup1\n      0x1f\n      add\n      0x20\n      dup1\n      swap2\n      div\n      mul\n      0x20\n      add\n      mload(0x40)\n      swap1\n      dup2\n      add\n      0x40\n      mstore\n      dup1\n      swap3\n      swap2\n      swap1\n      dup2\n      dup2\n      mstore\n      0x20\n      add\n      dup3\n      dup1\n      sload\n      tag_88\n      swap1\n      tag_87\n      jump\t// in\n    tag_88:\n      dup1\n      iszero\n      tag_89\n      jumpi\n      dup1\n      0x1f\n      lt\n      tag_90\n      jumpi\n      0x0100\n      dup1\n      dup4\n      sload\n      div\n      mul\n      dup4\n      mstore\n      swap2\n      0x20\n      add\n      swap2\n      jump(tag_89)\n    tag_90:\n      dup3\n      add\n      swap2\n      swap1\n      0x00\n      mstore\n      keccak256(0x00, 0x20)\n      swap1\n    tag_91:\n      dup2\n      sload\n      dup2\n      mstore\n      swap1\n      0x01\n      add\n      swap1\n      0x20\n      add\n      dup1\n      dup4\n      gt\n      tag_91\n      jumpi\n      dup3\n      swap1\n      sub\n      0x1f\n      and\n      dup3\n      add\n      swap2\n    tag_89:\n      pop\n      pop\n      pop\n      pop\n      pop\n      swap1\n      pop\n        /* \".deps/github/chiru-labs/ERC721A/contracts/ERC721A.sol\":7663:7761  function name() public view virtual override returns (string memory) {... */\n      swap1\n      jump\t// out\n        /* \".deps/github/chiru-labs/ERC721A/contracts/ERC721A.sol\":9123:9323  function getApproved(uint256 tokenId) public view override returns (address) {... */\n    tag_33:\n        /* \".deps/github/chiru-labs/ERC721A/contracts/ERC721A.sol\":9191:9198  address */\n      0x00\n        /* \".deps/github/chiru-labs/ERC721A/contracts/ERC721A.sol\":9215:9231  _exists(tokenId) */\n      tag_93\n        /* \".deps/github/chiru-labs/ERC721A/contracts/ERC721A.sol\":9223:9230  tokenId */\n      dup3\n        /* \".deps/github/chiru-labs/ERC721A/contracts/ERC721A.sol\":9215:9222  _exists */\n      tag_94\n        /* \".deps/github/chiru-labs/ERC721A/contracts/ERC721A.sol\":9215:9231  _exists(tokenId) */\n      jump\t// in\n    tag_93:\n        /* \".deps/github/chiru-labs/ERC721A/contracts/ERC721A.sol\":9210:9274  if (!_exists(tokenId)) revert ApprovalQueryForNonexistentToken() */\n      tag_95\n      jumpi\n        /* \".deps/github/chiru-labs/ERC721A/contracts/ERC721A.sol\":9240:9274  ApprovalQueryForNonexistentToken() */\n      mload(0x40)\n      0xcf4700e400000000000000000000000000000000000000000000000000000000\n      dup2\n      mstore\n      0x04\n      add\n      mload(0x40)\n      dup1\n      swap2\n      sub\n      swap1\n      revert\n        /* \".deps/github/chiru-labs/ERC721A/contracts/ERC721A.sol\":9210:9274  if (!_exists(tokenId)) revert ApprovalQueryForNonexistentToken() */\n    tag_95:\n        /* \".deps/github/chiru-labs/ERC721A/contracts/ERC721A.sol\":9292:9307  _tokenApprovals */\n      0x07\n        /* \".deps/github/chiru-labs/ERC721A/contracts/ERC721A.sol\":9292:9316  _tokenApprovals[tokenId] */\n      0x00\n        /* \".deps/github/chiru-labs/ERC721A/contracts/ERC721A.sol\":9308:9315  tokenId */\n      dup4\n        /* \".deps/github/chiru-labs/ERC721A/contracts/ERC721A.sol\":9292:9316  _tokenApprovals[tokenId] */\n      dup2\n      mstore\n      0x20\n      add\n      swap1\n      dup2\n      mstore\n      0x20\n      add\n      0x00\n      keccak256\n      0x00\n      swap1\n      sload\n      swap1\n      0x0100\n      exp\n      swap1\n      div\n      0xffffffffffffffffffffffffffffffffffffffff\n      and\n        /* \".deps/github/chiru-labs/ERC721A/contracts/ERC721A.sol\":9285:9316  return _tokenApprovals[tokenId] */\n      swap1\n      pop\n        /* \".deps/github/chiru-labs/ERC721A/contracts/ERC721A.sol\":9123:9323  function getApproved(uint256 tokenId) public view override returns (address) {... */\n      swap2\n      swap1\n      pop\n      jump\t// out\n        /* \".deps/github/chiru-labs/ERC721A/contracts/ERC721A.sol\":8700:9062  function approve(address to, uint256 tokenId) public override {... */\n    tag_39:\n        /* \".deps/github/chiru-labs/ERC721A/contracts/ERC721A.sol\":8772:8785  address owner */\n      0x00\n        /* \".deps/github/chiru-labs/ERC721A/contracts/ERC721A.sol\":8788:8812  ERC721A.ownerOf(tokenId) */\n      tag_97\n        /* \".deps/github/chiru-labs/ERC721A/contracts/ERC721A.sol\":8804:8811  tokenId */\n      dup3\n        /* \".deps/github/chiru-labs/ERC721A/contracts/ERC721A.sol\":8788:8803  ERC721A.ownerOf */\n      tag_53\n        /* \".deps/github/chiru-labs/ERC721A/contracts/ERC721A.sol\":8788:8812  ERC721A.ownerOf(tokenId) */\n      jump\t// in\n    tag_97:\n        /* \".deps/github/chiru-labs/ERC721A/contracts/ERC721A.sol\":8772:8812  address owner = ERC721A.ownerOf(tokenId) */\n      swap1\n      pop\n        /* \".deps/github/chiru-labs/ERC721A/contracts/ERC721A.sol\":8832:8837  owner */\n      dup1\n        /* \".deps/github/chiru-labs/ERC721A/contracts/ERC721A.sol\":8826:8837  to == owner */\n      0xffffffffffffffffffffffffffffffffffffffff\n      and\n        /* \".deps/github/chiru-labs/ERC721A/contracts/ERC721A.sol\":8826:8828  to */\n      dup4\n        /* \".deps/github/chiru-labs/ERC721A/contracts/ERC721A.sol\":8826:8837  to == owner */\n      0xffffffffffffffffffffffffffffffffffffffff\n      and\n      eq\n        /* \".deps/github/chiru-labs/ERC721A/contracts/ERC721A.sol\":8822:8870  if (to == owner) revert ApprovalToCurrentOwner() */\n      iszero\n      tag_98\n      jumpi\n        /* \".deps/github/chiru-labs/ERC721A/contracts/ERC721A.sol\":8846:8870  ApprovalToCurrentOwner() */\n      mload(0x40)\n      0x943f7b8c00000000000000000000000000000000000000000000000000000000\n      dup2\n      mstore\n      0x04\n      add\n      mload(0x40)\n      dup1\n      swap2\n      sub\n      swap1\n      revert\n        /* \".deps/github/chiru-labs/ERC721A/contracts/ERC721A.sol\":8822:8870  if (to == owner) revert ApprovalToCurrentOwner() */\n    tag_98:\n        /* \".deps/github/chiru-labs/ERC721A/contracts/ERC721A.sol\":8901:8906  owner */\n      dup1\n        /* \".deps/github/chiru-labs/ERC721A/contracts/ERC721A.sol\":8885:8906  _msgSender() != owner */\n      0xffffffffffffffffffffffffffffffffffffffff\n      and\n        /* \".deps/github/chiru-labs/ERC721A/contracts/ERC721A.sol\":8885:8897  _msgSender() */\n      tag_99\n        /* \".deps/github/chiru-labs/ERC721A/contracts/ERC721A.sol\":8885:8895  _msgSender */\n      tag_100\n        /* \".deps/github/chiru-labs/ERC721A/contracts/ERC721A.sol\":8885:8897  _msgSender() */\n      jump\t// in\n    tag_99:\n        /* \".deps/github/chiru-labs/ERC721A/contracts/ERC721A.sol\":8885:8906  _msgSender() != owner */\n      0xffffffffffffffffffffffffffffffffffffffff\n      and\n      eq\n      iszero\n        /* \".deps/github/chiru-labs/ERC721A/contracts/ERC721A.sol\":8885:8948  _msgSender() != owner && !isApprovedForAll(owner, _msgSender()) */\n      dup1\n      iszero\n      tag_101\n      jumpi\n      pop\n        /* \".deps/github/chiru-labs/ERC721A/contracts/ERC721A.sol\":8911:8948  isApprovedForAll(owner, _msgSender()) */\n      tag_102\n        /* \".deps/github/chiru-labs/ERC721A/contracts/ERC721A.sol\":8928:8933  owner */\n      dup2\n        /* \".deps/github/chiru-labs/ERC721A/contracts/ERC721A.sol\":8935:8947  _msgSender() */\n      tag_103\n        /* \".deps/github/chiru-labs/ERC721A/contracts/ERC721A.sol\":8935:8945  _msgSender */\n      tag_100\n        /* \".deps/github/chiru-labs/ERC721A/contracts/ERC721A.sol\":8935:8947  _msgSender() */\n      jump\t// in\n    tag_103:\n        /* \".deps/github/chiru-labs/ERC721A/contracts/ERC721A.sol\":8911:8927  isApprovedForAll */\n      tag_78\n        /* \".deps/github/chiru-labs/ERC721A/contracts/ERC721A.sol\":8911:8948  isApprovedForAll(owner, _msgSender()) */\n      jump\t// in\n    tag_102:\n        /* \".deps/github/chiru-labs/ERC721A/contracts/ERC721A.sol\":8910:8948  !isApprovedForAll(owner, _msgSender()) */\n      iszero\n        /* \".deps/github/chiru-labs/ERC721A/contracts/ERC721A.sol\":8885:8948  _msgSender() != owner && !isApprovedForAll(owner, _msgSender()) */\n    tag_101:\n        /* \".deps/github/chiru-labs/ERC721A/contracts/ERC721A.sol\":8881:9017  if (_msgSender() != owner && !isApprovedForAll(owner, _msgSender())) {... */\n      iszero\n      tag_104\n      jumpi\n        /* \".deps/github/chiru-labs/ERC721A/contracts/ERC721A.sol\":8971:9006  ApprovalCallerNotOwnerNorApproved() */\n      mload(0x40)\n      0xcfb3b94200000000000000000000000000000000000000000000000000000000\n      dup2\n      mstore\n      0x04\n      add\n      mload(0x40)\n      dup1\n      swap2\n      sub\n      swap1\n      revert\n        /* \".deps/github/chiru-labs/ERC721A/contracts/ERC721A.sol\":8881:9017  if (_msgSender() != owner && !isApprovedForAll(owner, _msgSender())) {... */\n    tag_104:\n        /* \".deps/github/chiru-labs/ERC721A/contracts/ERC721A.sol\":9027:9055  _approve(to, tokenId, owner) */\n      tag_105\n        /* \".deps/github/chiru-labs/ERC721A/contracts/ERC721A.sol\":9036:9038  to */\n      dup4\n        /* \".deps/github/chiru-labs/ERC721A/contracts/ERC721A.sol\":9040:9047  tokenId */\n      dup4\n        /* \".deps/github/chiru-labs/ERC721A/contracts/ERC721A.sol\":9049:9054  owner */\n      dup4\n        /* \".deps/github/chiru-labs/ERC721A/contracts/ERC721A.sol\":9027:9035  _approve */\n      tag_106\n        /* \".deps/github/chiru-labs/ERC721A/contracts/ERC721A.sol\":9027:9055  _approve(to, tokenId, owner) */\n      jump\t// in\n    tag_105:\n        /* \".deps/github/chiru-labs/ERC721A/contracts/ERC721A.sol\":8762:9062  {... */\n      pop\n        /* \".deps/github/chiru-labs/ERC721A/contracts/ERC721A.sol\":8700:9062  function approve(address to, uint256 tokenId) public override {... */\n      pop\n      pop\n      jump\t// out\n        /* \".deps/github/chiru-labs/ERC721A/contracts/ERC721A.sol\":3906:4203  function totalSupply() public view returns (uint256) {... */\n    tag_41:\n        /* \".deps/github/chiru-labs/ERC721A/contracts/ERC721A.sol\":3950:3957  uint256 */\n      0x00\n        /* \".deps/github/chiru-labs/ERC721A/contracts/ERC721A.sol\":4171:4186  _startTokenId() */\n      tag_108\n        /* \".deps/github/chiru-labs/ERC721A/contracts/ERC721A.sol\":4171:4184  _startTokenId */\n      tag_109\n        /* \".deps/github/chiru-labs/ERC721A/contracts/ERC721A.sol\":4171:4186  _startTokenId() */\n      jump\t// in\n    tag_108:\n        /* \".deps/github/chiru-labs/ERC721A/contracts/ERC721A.sol\":4156:4168  _burnCounter */\n      sload(0x01)\n        /* \".deps/github/chiru-labs/ERC721A/contracts/ERC721A.sol\":4140:4153  _currentIndex */\n      sload(0x00)\n        /* \".deps/github/chiru-labs/ERC721A/contracts/ERC721A.sol\":4140:4168  _currentIndex - _burnCounter */\n      sub\n        /* \".deps/github/chiru-labs/ERC721A/contracts/ERC721A.sol\":4140:4186  _currentIndex - _burnCounter - _startTokenId() */\n      sub\n        /* \".deps/github/chiru-labs/ERC721A/contracts/ERC721A.sol\":4133:4186  return _currentIndex - _burnCounter - _startTokenId() */\n      swap1\n      pop\n        /* \".deps/github/chiru-labs/ERC721A/contracts/ERC721A.sol\":3906:4203  function totalSupply() public view returns (uint256) {... */\n      swap1\n      jump\t// out\n        /* \".deps/github/chiru-labs/ERC721A/contracts/ERC721A.sol\":9962:10126  function transferFrom(... */\n    tag_47:\n        /* \".deps/github/chiru-labs/ERC721A/contracts/ERC721A.sol\":10091:10119  _transfer(from, to, tokenId) */\n      tag_111\n        /* \".deps/github/chiru-labs/ERC721A/contracts/ERC721A.sol\":10101:10105  from */\n      dup4\n        /* \".deps/github/chiru-labs/ERC721A/contracts/ERC721A.sol\":10107:10109  to */\n      dup4\n        /* \".deps/github/chiru-labs/ERC721A/contracts/ERC721A.sol\":10111:10118  tokenId */\n      dup4\n        /* \".deps/github/chiru-labs/ERC721A/contracts/ERC721A.sol\":10091:10100  _transfer */\n      tag_112\n        /* \".deps/github/chiru-labs/ERC721A/contracts/ERC721A.sol\":10091:10119  _transfer(from, to, tokenId) */\n      jump\t// in\n    tag_111:\n        /* \".deps/github/chiru-labs/ERC721A/contracts/ERC721A.sol\":9962:10126  function transferFrom(... */\n      pop\n      pop\n      pop\n      jump\t// out\n        /* \".deps/github/chiru-labs/ERC721A/contracts/ERC721A.sol\":10192:10371  function safeTransferFrom(... */\n    tag_50:\n        /* \".deps/github/chiru-labs/ERC721A/contracts/ERC721A.sol\":10325:10364  safeTransferFrom(from, to, tokenId, '') */\n      tag_114\n        /* \".deps/github/chiru-labs/ERC721A/contracts/ERC721A.sol\":10342:10346  from */\n      dup4\n        /* \".deps/github/chiru-labs/ERC721A/contracts/ERC721A.sol\":10348:10350  to */\n      dup4\n        /* \".deps/github/chiru-labs/ERC721A/contracts/ERC721A.sol\":10352:10359  tokenId */\n      dup4\n        /* \".deps/github/chiru-labs/ERC721A/contracts/ERC721A.sol\":10325:10364  safeTransferFrom(from, to, tokenId, '') */\n      mload(0x40)\n      dup1\n      0x20\n      add\n      0x40\n      mstore\n      dup1\n      0x00\n      dup2\n      mstore\n      pop\n        /* \".deps/github/chiru-labs/ERC721A/contracts/ERC721A.sol\":10325:10341  safeTransferFrom */\n      tag_70\n        /* \".deps/github/chiru-labs/ERC721A/contracts/ERC721A.sol\":10325:10364  safeTransferFrom(from, to, tokenId, '') */\n      jump\t// in\n    tag_114:\n        /* \".deps/github/chiru-labs/ERC721A/contracts/ERC721A.sol\":10192:10371  function safeTransferFrom(... */\n      pop\n      pop\n      pop\n      jump\t// out\n        /* \".deps/github/chiru-labs/ERC721A/contracts/ERC721A.sol\":7478:7601  function ownerOf(uint256 tokenId) public view override returns (address) {... */\n    tag_53:\n        /* \".deps/github/chiru-labs/ERC721A/contracts/ERC721A.sol\":7542:7549  address */\n      0x00\n        /* \".deps/github/chiru-labs/ERC721A/contracts/ERC721A.sol\":7568:7589  _ownershipOf(tokenId) */\n      tag_116\n        /* \".deps/github/chiru-labs/ERC721A/contracts/ERC721A.sol\":7581:7588  tokenId */\n      dup3\n        /* \".deps/github/chiru-labs/ERC721A/contracts/ERC721A.sol\":7568:7580  _ownershipOf */\n      tag_117\n        /* \".deps/github/chiru-labs/ERC721A/contracts/ERC721A.sol\":7568:7589  _ownershipOf(tokenId) */\n      jump\t// in\n    tag_116:\n        /* \".deps/github/chiru-labs/ERC721A/contracts/ERC721A.sol\":7568:7594  _ownershipOf(tokenId).addr */\n      0x00\n      add\n      mload\n        /* \".deps/github/chiru-labs/ERC721A/contracts/ERC721A.sol\":7561:7594  return _ownershipOf(tokenId).addr */\n      swap1\n      pop\n        /* \".deps/github/chiru-labs/ERC721A/contracts/ERC721A.sol\":7478:7601  function ownerOf(uint256 tokenId) public view override returns (address) {... */\n      swap2\n      swap1\n      pop\n      jump\t// out\n        /* \".deps/github/chiru-labs/ERC721A/contracts/ERC721A.sol\":4994:5197  function balanceOf(address owner) public view override returns (uint256) {... */\n    tag_58:\n        /* \".deps/github/chiru-labs/ERC721A/contracts/ERC721A.sol\":5058:5065  uint256 */\n      0x00\n        /* \".deps/github/chiru-labs/ERC721A/contracts/ERC721A.sol\":5098:5099  0 */\n      dup1\n        /* \".deps/github/chiru-labs/ERC721A/contracts/ERC721A.sol\":5081:5100  owner == address(0) */\n      0xffffffffffffffffffffffffffffffffffffffff\n      and\n        /* \".deps/github/chiru-labs/ERC721A/contracts/ERC721A.sol\":5081:5086  owner */\n      dup3\n        /* \".deps/github/chiru-labs/ERC721A/contracts/ERC721A.sol\":5081:5100  owner == address(0) */\n      0xffffffffffffffffffffffffffffffffffffffff\n      and\n      eq\n        /* \".deps/github/chiru-labs/ERC721A/contracts/ERC721A.sol\":5077:5137  if (owner == address(0)) revert BalanceQueryForZeroAddress() */\n      iszero\n      tag_119\n      jumpi\n        /* \".deps/github/chiru-labs/ERC721A/contracts/ERC721A.sol\":5109:5137  BalanceQueryForZeroAddress() */\n      mload(0x40)\n      0x8f4eb60400000000000000000000000000000000000000000000000000000000\n      dup2\n      mstore\n      0x04\n      add\n      mload(0x40)\n      dup1\n      swap2\n      sub\n      swap1\n      revert\n        /* \".deps/github/chiru-labs/ERC721A/contracts/ERC721A.sol\":5077:5137  if (owner == address(0)) revert BalanceQueryForZeroAddress() */\n    tag_119:\n        /* \".deps/github/chiru-labs/ERC721A/contracts/ERC721A.sol\":5162:5174  _addressData */\n      0x06\n        /* \".deps/github/chiru-labs/ERC721A/contracts/ERC721A.sol\":5162:5181  _addressData[owner] */\n      0x00\n        /* \".deps/github/chiru-labs/ERC721A/contracts/ERC721A.sol\":5175:5180  owner */\n      dup4\n        /* \".deps/github/chiru-labs/ERC721A/contracts/ERC721A.sol\":5162:5181  _addressData[owner] */\n      0xffffffffffffffffffffffffffffffffffffffff\n      and\n      0xffffffffffffffffffffffffffffffffffffffff\n      and\n      dup2\n      mstore\n      0x20\n      add\n      swap1\n      dup2\n      mstore\n      0x20\n      add\n      0x00\n      keccak256\n        /* \".deps/github/chiru-labs/ERC721A/contracts/ERC721A.sol\":5162:5189  _addressData[owner].balance */\n      0x00\n      add\n      0x00\n      swap1\n      sload\n      swap1\n      0x0100\n      exp\n      swap1\n      div\n      0xffffffffffffffff\n      and\n        /* \".deps/github/chiru-labs/ERC721A/contracts/ERC721A.sol\":5154:5190  uint256(_addressData[owner].balance) */\n      0xffffffffffffffff\n      and\n        /* \".deps/github/chiru-labs/ERC721A/contracts/ERC721A.sol\":5147:5190  return uint256(_addressData[owner].balance) */\n      swap1\n      pop\n        /* \".deps/github/chiru-labs/ERC721A/contracts/ERC721A.sol\":4994:5197  function balanceOf(address owner) public view override returns (uint256) {... */\n      swap2\n      swap1\n      pop\n      jump\t// out\n        /* \".deps/github/chiru-labs/ERC721A/contracts/ERC721A.sol\":7825:7927  function symbol() public view virtual override returns (string memory) {... */\n    tag_61:\n        /* \".deps/github/chiru-labs/ERC721A/contracts/ERC721A.sol\":7881:7894  string memory */\n      0x60\n        /* \".deps/github/chiru-labs/ERC721A/contracts/ERC721A.sol\":7913:7920  _symbol */\n      0x03\n        /* \".deps/github/chiru-labs/ERC721A/contracts/ERC721A.sol\":7906:7920  return _symbol */\n      dup1\n      sload\n      tag_121\n      swap1\n      tag_87\n      jump\t// in\n    tag_121:\n      dup1\n      0x1f\n      add\n      0x20\n      dup1\n      swap2\n      div\n      mul\n      0x20\n      add\n      mload(0x40)\n      swap1\n      dup2\n      add\n      0x40\n      mstore\n      dup1\n      swap3\n      swap2\n      swap1\n      dup2\n      dup2\n      mstore\n      0x20\n      add\n      dup3\n      dup1\n      sload\n      tag_122\n      swap1\n      tag_87\n      jump\t// in\n    tag_122:\n      dup1\n      iszero\n      tag_123\n      jumpi\n      dup1\n      0x1f\n      lt\n      tag_124\n      jumpi\n      0x0100\n      dup1\n      dup4\n      sload\n      div\n      mul\n      dup4\n      mstore\n      swap2\n      0x20\n      add\n      swap2\n      jump(tag_123)\n    tag_124:\n      dup3\n      add\n      swap2\n      swap1\n      0x00\n      mstore\n      keccak256(0x00, 0x20)\n      swap1\n    tag_125:\n      dup2\n      sload\n      dup2\n      mstore\n      swap1\n      0x01\n      add\n      swap1\n      0x20\n      add\n      dup1\n      dup4\n      gt\n      tag_125\n      jumpi\n      dup3\n      swap1\n      sub\n      0x1f\n      and\n      dup3\n      add\n      swap2\n    tag_123:\n      pop\n      pop\n      pop\n      pop\n      pop\n      swap1\n      pop\n        /* \".deps/github/chiru-labs/ERC721A/contracts/ERC721A.sol\":7825:7927  function symbol() public view virtual override returns (string memory) {... */\n      swap1\n      jump\t// out\n        /* \".deps/github/chiru-labs/ERC721A/contracts/ERC721A.sol\":9390:9672  function setApprovalForAll(address operator, bool approved) public virtual override {... */\n    tag_66:\n        /* \".deps/github/chiru-labs/ERC721A/contracts/ERC721A.sol\":9500:9512  _msgSender() */\n      tag_127\n        /* \".deps/github/chiru-labs/ERC721A/contracts/ERC721A.sol\":9500:9510  _msgSender */\n      tag_100\n        /* \".deps/github/chiru-labs/ERC721A/contracts/ERC721A.sol\":9500:9512  _msgSender() */\n      jump\t// in\n    tag_127:\n        /* \".deps/github/chiru-labs/ERC721A/contracts/ERC721A.sol\":9488:9512  operator == _msgSender() */\n      0xffffffffffffffffffffffffffffffffffffffff\n      and\n        /* \".deps/github/chiru-labs/ERC721A/contracts/ERC721A.sol\":9488:9496  operator */\n      dup3\n        /* \".deps/github/chiru-labs/ERC721A/contracts/ERC721A.sol\":9488:9512  operator == _msgSender() */\n      0xffffffffffffffffffffffffffffffffffffffff\n      and\n      eq\n        /* \".deps/github/chiru-labs/ERC721A/contracts/ERC721A.sol\":9484:9538  if (operator == _msgSender()) revert ApproveToCaller() */\n      iszero\n      tag_128\n      jumpi\n        /* \".deps/github/chiru-labs/ERC721A/contracts/ERC721A.sol\":9521:9538  ApproveToCaller() */\n      mload(0x40)\n      0xb06307db00000000000000000000000000000000000000000000000000000000\n      dup2\n      mstore\n      0x04\n      add\n      mload(0x40)\n      dup1\n      swap2\n      sub\n      swap1\n      revert\n        /* \".deps/github/chiru-labs/ERC721A/contracts/ERC721A.sol\":9484:9538  if (operator == _msgSender()) revert ApproveToCaller() */\n    tag_128:\n        /* \".deps/github/chiru-labs/ERC721A/contracts/ERC721A.sol\":9594:9602  approved */\n      dup1\n        /* \".deps/github/chiru-labs/ERC721A/contracts/ERC721A.sol\":9549:9567  _operatorApprovals */\n      0x08\n        /* \".deps/github/chiru-labs/ERC721A/contracts/ERC721A.sol\":9549:9581  _operatorApprovals[_msgSender()] */\n      0x00\n        /* \".deps/github/chiru-labs/ERC721A/contracts/ERC721A.sol\":9568:9580  _msgSender() */\n      tag_129\n        /* \".deps/github/chiru-labs/ERC721A/contracts/ERC721A.sol\":9568:9578  _msgSender */\n      tag_100\n        /* \".deps/github/chiru-labs/ERC721A/contracts/ERC721A.sol\":9568:9580  _msgSender() */\n      jump\t// in\n    tag_129:\n        /* \".deps/github/chiru-labs/ERC721A/contracts/ERC721A.sol\":9549:9581  _operatorApprovals[_msgSender()] */\n      0xffffffffffffffffffffffffffffffffffffffff\n      and\n      0xffffffffffffffffffffffffffffffffffffffff\n      and\n      dup2\n      mstore\n      0x20\n      add\n      swap1\n      dup2\n      mstore\n      0x20\n      add\n      0x00\n      keccak256\n        /* \".deps/github/chiru-labs/ERC721A/contracts/ERC721A.sol\":9549:9591  _operatorApprovals[_msgSender()][operator] */\n      0x00\n        /* \".deps/github/chiru-labs/ERC721A/contracts/ERC721A.sol\":9582:9590  operator */\n      dup5\n        /* \".deps/github/chiru-labs/ERC721A/contracts/ERC721A.sol\":9549:9591  _operatorApprovals[_msgSender()][operator] */\n      0xffffffffffffffffffffffffffffffffffffffff\n      and\n      0xffffffffffffffffffffffffffffffffffffffff\n      and\n      dup2\n      mstore\n      0x20\n      add\n      swap1\n      dup2\n      mstore\n      0x20\n      add\n      0x00\n      keccak256\n      0x00\n        /* \".deps/github/chiru-labs/ERC721A/contracts/ERC721A.sol\":9549:9602  _operatorApprovals[_msgSender()][operator] = approved */\n      0x0100\n      exp\n      dup2\n      sload\n      dup2\n      0xff\n      mul\n      not\n      and\n      swap1\n      dup4\n      iszero\n      iszero\n      mul\n      or\n      swap1\n      sstore\n      pop\n        /* \".deps/github/chiru-labs/ERC721A/contracts/ERC721A.sol\":9646:9654  operator */\n      dup2\n        /* \".deps/github/chiru-labs/ERC721A/contracts/ERC721A.sol\":9617:9665  ApprovalForAll(_msgSender(), operator, approved) */\n      0xffffffffffffffffffffffffffffffffffffffff\n      and\n        /* \".deps/github/chiru-labs/ERC721A/contracts/ERC721A.sol\":9632:9644  _msgSender() */\n      tag_130\n        /* \".deps/github/chiru-labs/ERC721A/contracts/ERC721A.sol\":9632:9642  _msgSender */\n      tag_100\n        /* \".deps/github/chiru-labs/ERC721A/contracts/ERC721A.sol\":9632:9644  _msgSender() */\n      jump\t// in\n    tag_130:\n        /* \".deps/github/chiru-labs/ERC721A/contracts/ERC721A.sol\":9617:9665  ApprovalForAll(_msgSender(), operator, approved) */\n      0xffffffffffffffffffffffffffffffffffffffff\n      and\n      0x17307eab39ab6107e8899845ad3d59bd9653f200f220920489ca2b5937696c31\n        /* \".deps/github/chiru-labs/ERC721A/contracts/ERC721A.sol\":9656:9664  approved */\n      dup4\n        /* \".deps/github/chiru-labs/ERC721A/contracts/ERC721A.sol\":9617:9665  ApprovalForAll(_msgSender(), operator, approved) */\n      mload(0x40)\n      tag_131\n      swap2\n      swap1\n      tag_25\n      jump\t// in\n    tag_131:\n      mload(0x40)\n      dup1\n      swap2\n      sub\n      swap1\n      log3\n        /* \".deps/github/chiru-labs/ERC721A/contracts/ERC721A.sol\":9390:9672  function setApprovalForAll(address operator, bool approved) public virtual override {... */\n      pop\n      pop\n      jump\t// out\n        /* \".deps/github/chiru-labs/ERC721A/contracts/ERC721A.sol\":10437:10796  function safeTransferFrom(... */\n    tag_70:\n        /* \".deps/github/chiru-labs/ERC721A/contracts/ERC721A.sol\":10598:10626  _transfer(from, to, tokenId) */\n      tag_133\n        /* \".deps/github/chiru-labs/ERC721A/contracts/ERC721A.sol\":10608:10612  from */\n      dup5\n        /* \".deps/github/chiru-labs/ERC721A/contracts/ERC721A.sol\":10614:10616  to */\n      dup5\n        /* \".deps/github/chiru-labs/ERC721A/contracts/ERC721A.sol\":10618:10625  tokenId */\n      dup5\n        /* \".deps/github/chiru-labs/ERC721A/contracts/ERC721A.sol\":10598:10607  _transfer */\n      tag_112\n        /* \".deps/github/chiru-labs/ERC721A/contracts/ERC721A.sol\":10598:10626  _transfer(from, to, tokenId) */\n      jump\t// in\n    tag_133:\n        /* \".deps/github/chiru-labs/ERC721A/contracts/ERC721A.sol\":10640:10655  to.isContract() */\n      tag_134\n        /* \".deps/github/chiru-labs/ERC721A/contracts/ERC721A.sol\":10640:10642  to */\n      dup4\n        /* \".deps/github/chiru-labs/ERC721A/contracts/ERC721A.sol\":10640:10653  to.isContract */\n      0xffffffffffffffffffffffffffffffffffffffff\n      and\n      tag_135\n        /* \".deps/github/chiru-labs/ERC721A/contracts/ERC721A.sol\":10640:10655  to.isContract() */\n      jump\t// in\n    tag_134:\n        /* \".deps/github/chiru-labs/ERC721A/contracts/ERC721A.sol\":10640:10716  to.isContract() && !_checkContractOnERC721Received(from, to, tokenId, _data) */\n      dup1\n      iszero\n      tag_136\n      jumpi\n      pop\n        /* \".deps/github/chiru-labs/ERC721A/contracts/ERC721A.sol\":10660:10716  _checkContractOnERC721Received(from, to, tokenId, _data) */\n      tag_137\n        /* \".deps/github/chiru-labs/ERC721A/contracts/ERC721A.sol\":10691:10695  from */\n      dup5\n        /* \".deps/github/chiru-labs/ERC721A/contracts/ERC721A.sol\":10697:10699  to */\n      dup5\n        /* \".deps/github/chiru-labs/ERC721A/contracts/ERC721A.sol\":10701:10708  tokenId */\n      dup5\n        /* \".deps/github/chiru-labs/ERC721A/contracts/ERC721A.sol\":10710:10715  _data */\n      dup5\n        /* \".deps/github/chiru-labs/ERC721A/contracts/ERC721A.sol\":10660:10690  _checkContractOnERC721Received */\n      tag_138\n        /* \".deps/github/chiru-labs/ERC721A/contracts/ERC721A.sol\":10660:10716  _checkContractOnERC721Received(from, to, tokenId, _data) */\n      jump\t// in\n    tag_137:\n        /* \".deps/github/chiru-labs/ERC721A/contracts/ERC721A.sol\":10659:10716  !_checkContractOnERC721Received(from, to, tokenId, _data) */\n      iszero\n        /* \".deps/github/chiru-labs/ERC721A/contracts/ERC721A.sol\":10640:10716  to.isContract() && !_checkContractOnERC721Received(from, to, tokenId, _data) */\n    tag_136:\n        /* \".deps/github/chiru-labs/ERC721A/contracts/ERC721A.sol\":10636:10790  if (to.isContract() && !_checkContractOnERC721Received(from, to, tokenId, _data)) {... */\n      iszero\n      tag_139\n      jumpi\n        /* \".deps/github/chiru-labs/ERC721A/contracts/ERC721A.sol\":10739:10779  TransferToNonERC721ReceiverImplementer() */\n      mload(0x40)\n      0xd1a57ed600000000000000000000000000000000000000000000000000000000\n      dup2\n      mstore\n      0x04\n      add\n      mload(0x40)\n      dup1\n      swap2\n      sub\n      swap1\n      revert\n        /* \".deps/github/chiru-labs/ERC721A/contracts/ERC721A.sol\":10636:10790  if (to.isContract() && !_checkContractOnERC721Received(from, to, tokenId, _data)) {... */\n    tag_139:\n        /* \".deps/github/chiru-labs/ERC721A/contracts/ERC721A.sol\":10437:10796  function safeTransferFrom(... */\n      pop\n      pop\n      pop\n      pop\n      jump\t// out\n        /* \".deps/github/chiru-labs/ERC721A/contracts/ERC721A.sol\":7993:8306  function tokenURI(uint256 tokenId) public view virtual override returns (string memory) {... */\n    tag_73:\n        /* \".deps/github/chiru-labs/ERC721A/contracts/ERC721A.sol\":8066:8079  string memory */\n      0x60\n        /* \".deps/github/chiru-labs/ERC721A/contracts/ERC721A.sol\":8096:8112  _exists(tokenId) */\n      tag_141\n        /* \".deps/github/chiru-labs/ERC721A/contracts/ERC721A.sol\":8104:8111  tokenId */\n      dup3\n        /* \".deps/github/chiru-labs/ERC721A/contracts/ERC721A.sol\":8096:8103  _exists */\n      tag_94\n        /* \".deps/github/chiru-labs/ERC721A/contracts/ERC721A.sol\":8096:8112  _exists(tokenId) */\n      jump\t// in\n    tag_141:\n        /* \".deps/github/chiru-labs/ERC721A/contracts/ERC721A.sol\":8091:8150  if (!_exists(tokenId)) revert URIQueryForNonexistentToken() */\n      tag_142\n      jumpi\n        /* \".deps/github/chiru-labs/ERC721A/contracts/ERC721A.sol\":8121:8150  URIQueryForNonexistentToken() */\n      mload(0x40)\n      0xa14c4b5000000000000000000000000000000000000000000000000000000000\n      dup2\n      mstore\n      0x04\n      add\n      mload(0x40)\n      dup1\n      swap2\n      sub\n      swap1\n      revert\n        /* \".deps/github/chiru-labs/ERC721A/contracts/ERC721A.sol\":8091:8150  if (!_exists(tokenId)) revert URIQueryForNonexistentToken() */\n    tag_142:\n        /* \".deps/github/chiru-labs/ERC721A/contracts/ERC721A.sol\":8161:8182  string memory baseURI */\n      0x00\n        /* \".deps/github/chiru-labs/ERC721A/contracts/ERC721A.sol\":8185:8195  _baseURI() */\n      tag_143\n        /* \".deps/github/chiru-labs/ERC721A/contracts/ERC721A.sol\":8185:8193  _baseURI */\n      tag_144\n        /* \".deps/github/chiru-labs/ERC721A/contracts/ERC721A.sol\":8185:8195  _baseURI() */\n      jump\t// in\n    tag_143:\n        /* \".deps/github/chiru-labs/ERC721A/contracts/ERC721A.sol\":8161:8195  string memory baseURI = _baseURI() */\n      swap1\n      pop\n        /* \".deps/github/chiru-labs/ERC721A/contracts/ERC721A.sol\":8237:8238  0 */\n      0x00\n        /* \".deps/github/chiru-labs/ERC721A/contracts/ERC721A.sol\":8218:8225  baseURI */\n      dup2\n        /* \".deps/github/chiru-labs/ERC721A/contracts/ERC721A.sol\":8212:8233  bytes(baseURI).length */\n      mload\n        /* \".deps/github/chiru-labs/ERC721A/contracts/ERC721A.sol\":8212:8238  bytes(baseURI).length != 0 */\n      eq\n      iszero\n        /* \".deps/github/chiru-labs/ERC721A/contracts/ERC721A.sol\":8212:8299  bytes(baseURI).length != 0 ? string(abi.encodePacked(baseURI, tokenId.toString())) : '' */\n      tag_145\n      jumpi\n      mload(0x40)\n      dup1\n      0x20\n      add\n      0x40\n      mstore\n      dup1\n      0x00\n      dup2\n      mstore\n      pop\n      jump(tag_146)\n    tag_145:\n        /* \".deps/github/chiru-labs/ERC721A/contracts/ERC721A.sol\":8265:8272  baseURI */\n      dup1\n        /* \".deps/github/chiru-labs/ERC721A/contracts/ERC721A.sol\":8274:8292  tokenId.toString() */\n      tag_147\n        /* \".deps/github/chiru-labs/ERC721A/contracts/ERC721A.sol\":8274:8281  tokenId */\n      dup5\n        /* \".deps/github/chiru-labs/ERC721A/contracts/ERC721A.sol\":8274:8290  tokenId.toString */\n      tag_148\n        /* \".deps/github/chiru-labs/ERC721A/contracts/ERC721A.sol\":8274:8292  tokenId.toString() */\n      jump\t// in\n    tag_147:\n        /* \".deps/github/chiru-labs/ERC721A/contracts/ERC721A.sol\":8248:8293  abi.encodePacked(baseURI, tokenId.toString()) */\n      add(0x20, mload(0x40))\n      tag_149\n      swap3\n      swap2\n      swap1\n      tag_150\n      jump\t// in\n    tag_149:\n      mload(0x40)\n      0x20\n      dup2\n      dup4\n      sub\n      sub\n      dup2\n      mstore\n      swap1\n      0x40\n      mstore\n        /* \".deps/github/chiru-labs/ERC721A/contracts/ERC721A.sol\":8212:8299  bytes(baseURI).length != 0 ? string(abi.encodePacked(baseURI, tokenId.toString())) : '' */\n    tag_146:\n        /* \".deps/github/chiru-labs/ERC721A/contracts/ERC721A.sol\":8205:8299  return bytes(baseURI).length != 0 ? string(abi.encodePacked(baseURI, tokenId.toString())) : '' */\n      swap2\n      pop\n      pop\n        /* \".deps/github/chiru-labs/ERC721A/contracts/ERC721A.sol\":7993:8306  function tokenURI(uint256 tokenId) public view virtual override returns (string memory) {... */\n      swap2\n      swap1\n      pop\n      jump\t// out\n        /* \".deps/github/chiru-labs/ERC721A/contracts/ERC721A.sol\":9738:9900  function isApprovedForAll(address owner, address operator) public view virtual override returns (bool) {... */\n    tag_78:\n        /* \".deps/github/chiru-labs/ERC721A/contracts/ERC721A.sol\":9835:9839  bool */\n      0x00\n        /* \".deps/github/chiru-labs/ERC721A/contracts/ERC721A.sol\":9858:9876  _operatorApprovals */\n      0x08\n        /* \".deps/github/chiru-labs/ERC721A/contracts/ERC721A.sol\":9858:9883  _operatorApprovals[owner] */\n      0x00\n        /* \".deps/github/chiru-labs/ERC721A/contracts/ERC721A.sol\":9877:9882  owner */\n      dup5\n        /* \".deps/github/chiru-labs/ERC721A/contracts/ERC721A.sol\":9858:9883  _operatorApprovals[owner] */\n      0xffffffffffffffffffffffffffffffffffffffff\n      and\n      0xffffffffffffffffffffffffffffffffffffffff\n      and\n      dup2\n      mstore\n      0x20\n      add\n      swap1\n      dup2\n      mstore\n      0x20\n      add\n      0x00\n      keccak256\n        /* \".deps/github/chiru-labs/ERC721A/contracts/ERC721A.sol\":9858:9893  _operatorApprovals[owner][operator] */\n      0x00\n        /* \".deps/github/chiru-labs/ERC721A/contracts/ERC721A.sol\":9884:9892  operator */\n      dup4\n        /* \".deps/github/chiru-labs/ERC721A/contracts/ERC721A.sol\":9858:9893  _operatorApprovals[owner][operator] */\n      0xffffffffffffffffffffffffffffffffffffffff\n      and\n      0xffffffffffffffffffffffffffffffffffffffff\n      and\n      dup2\n      mstore\n      0x20\n      add\n      swap1\n      dup2\n      mstore\n      0x20\n      add\n      0x00\n      keccak256\n      0x00\n      swap1\n      sload\n      swap1\n      0x0100\n      exp\n      swap1\n      div\n      0xff\n      and\n        /* \".deps/github/chiru-labs/ERC721A/contracts/ERC721A.sol\":9851:9893  return _operatorApprovals[owner][operator] */\n      swap1\n      pop\n        /* \".deps/github/chiru-labs/ERC721A/contracts/ERC721A.sol\":9738:9900  function isApprovedForAll(address owner, address operator) public view virtual override returns (bool) {... */\n      swap3\n      swap2\n      pop\n      pop\n      jump\t// out\n        /* \"@openzeppelin/contracts/utils/introspection/ERC165.sol\":829:984  function supportsInterface(bytes4 interfaceId) public view virtual override returns (bool) {... */\n    tag_84:\n        /* \"@openzeppelin/contracts/utils/introspection/ERC165.sol\":914:918  bool */\n      0x00\n        /* \"@openzeppelin/contracts/utils/introspection/ERC165.sol\":952:977  type(IERC165).interfaceId */\n      0x01ffc9a700000000000000000000000000000000000000000000000000000000\n        /* \"@openzeppelin/contracts/utils/introspection/ERC165.sol\":937:977  interfaceId == type(IERC165).interfaceId */\n      not(0xffffffffffffffffffffffffffffffffffffffffffffffffffffffff)\n      and\n        /* \"@openzeppelin/contracts/utils/introspection/ERC165.sol\":937:948  interfaceId */\n      dup3\n        /* \"@openzeppelin/contracts/utils/introspection/ERC165.sol\":937:977  interfaceId == type(IERC165).interfaceId */\n      not(0xffffffffffffffffffffffffffffffffffffffffffffffffffffffff)\n      and\n      eq\n        /* \"@openzeppelin/contracts/utils/introspection/ERC165.sol\":930:977  return interfaceId == type(IERC165).interfaceId */\n      swap1\n      pop\n        /* \"@openzeppelin/contracts/utils/introspection/ERC165.sol\":829:984  function supportsInterface(bytes4 interfaceId) public view virtual override returns (bool) {... */\n      swap2\n      swap1\n      pop\n      jump\t// out\n        /* \".deps/github/chiru-labs/ERC721A/contracts/ERC721A.sol\":11042:11214  function _exists(uint256 tokenId) internal view returns (bool) {... */\n    tag_94:\n        /* \".deps/github/chiru-labs/ERC721A/contracts/ERC721A.sol\":11099:11103  bool */\n      0x00\n        /* \".deps/github/chiru-labs/ERC721A/contracts/ERC721A.sol\":11141:11148  tokenId */\n      dup2\n        /* \".deps/github/chiru-labs/ERC721A/contracts/ERC721A.sol\":11122:11137  _startTokenId() */\n      tag_154\n        /* \".deps/github/chiru-labs/ERC721A/contracts/ERC721A.sol\":11122:11135  _startTokenId */\n      tag_109\n        /* \".deps/github/chiru-labs/ERC721A/contracts/ERC721A.sol\":11122:11137  _startTokenId() */\n      jump\t// in\n    tag_154:\n        /* \".deps/github/chiru-labs/ERC721A/contracts/ERC721A.sol\":11122:11148  _startTokenId() <= tokenId */\n      gt\n      iszero\n        /* \".deps/github/chiru-labs/ERC721A/contracts/ERC721A.sol\":11122:11175  _startTokenId() <= tokenId && tokenId < _currentIndex */\n      dup1\n      iszero\n      tag_155\n      jumpi\n      pop\n        /* \".deps/github/chiru-labs/ERC721A/contracts/ERC721A.sol\":11162:11175  _currentIndex */\n      sload(0x00)\n        /* \".deps/github/chiru-labs/ERC721A/contracts/ERC721A.sol\":11152:11159  tokenId */\n      dup3\n        /* \".deps/github/chiru-labs/ERC721A/contracts/ERC721A.sol\":11152:11175  tokenId < _currentIndex */\n      lt\n        /* \".deps/github/chiru-labs/ERC721A/contracts/ERC721A.sol\":11122:11175  _startTokenId() <= tokenId && tokenId < _currentIndex */\n    tag_155:\n        /* \".deps/github/chiru-labs/ERC721A/contracts/ERC721A.sol\":11122:11207  _startTokenId() <= tokenId && tokenId < _currentIndex && !_ownerships[tokenId].burned */\n      dup1\n      iszero\n      tag_156\n      jumpi\n      pop\n        /* \".deps/github/chiru-labs/ERC721A/contracts/ERC721A.sol\":11180:11191  _ownerships */\n      0x05\n        /* \".deps/github/chiru-labs/ERC721A/contracts/ERC721A.sol\":11180:11200  _ownerships[tokenId] */\n      0x00\n        /* \".deps/github/chiru-labs/ERC721A/contracts/ERC721A.sol\":11192:11199  tokenId */\n      dup4\n        /* \".deps/github/chiru-labs/ERC721A/contracts/ERC721A.sol\":11180:11200  _ownerships[tokenId] */\n      dup2\n      mstore\n      0x20\n      add\n      swap1\n      dup2\n      mstore\n      0x20\n      add\n      0x00\n      keccak256\n        /* \".deps/github/chiru-labs/ERC721A/contracts/ERC721A.sol\":11180:11207  _ownerships[tokenId].burned */\n      0x00\n      add\n      0x1c\n      swap1\n      sload\n      swap1\n      0x0100\n      exp\n      swap1\n      div\n      0xff\n      and\n        /* \".deps/github/chiru-labs/ERC721A/contracts/ERC721A.sol\":11179:11207  !_ownerships[tokenId].burned */\n      iszero\n        /* \".deps/github/chiru-labs/ERC721A/contracts/ERC721A.sol\":11122:11207  _startTokenId() <= tokenId && tokenId < _currentIndex && !_ownerships[tokenId].burned */\n    tag_156:\n        /* \".deps/github/chiru-labs/ERC721A/contracts/ERC721A.sol\":11115:11207  return _startTokenId() <= tokenId && tokenId < _currentIndex && !_ownerships[tokenId].burned */\n      swap1\n      pop\n        /* \".deps/github/chiru-labs/ERC721A/contracts/ERC721A.sol\":11042:11214  function _exists(uint256 tokenId) internal view returns (bool) {... */\n      swap2\n      swap1\n      pop\n      jump\t// out\n        /* \"@openzeppelin/contracts/utils/Context.sol\":640:736  function _msgSender() internal view virtual returns (address) {... */\n    tag_100:\n        /* \"@openzeppelin/contracts/utils/Context.sol\":693:700  address */\n      0x00\n        /* \"@openzeppelin/contracts/utils/Context.sol\":719:729  msg.sender */\n      caller\n        /* \"@openzeppelin/contracts/utils/Context.sol\":712:729  return msg.sender */\n      swap1\n      pop\n        /* \"@openzeppelin/contracts/utils/Context.sol\":640:736  function _msgSender() internal view virtual returns (address) {... */\n      swap1\n      jump\t// out\n        /* \".deps/github/chiru-labs/ERC721A/contracts/ERC721A.sol\":18982:19171  function _approve(... */\n    tag_106:\n        /* \".deps/github/chiru-labs/ERC721A/contracts/ERC721A.sol\":19119:19121  to */\n      dup3\n        /* \".deps/github/chiru-labs/ERC721A/contracts/ERC721A.sol\":19092:19107  _tokenApprovals */\n      0x07\n        /* \".deps/github/chiru-labs/ERC721A/contracts/ERC721A.sol\":19092:19116  _tokenApprovals[tokenId] */\n      0x00\n        /* \".deps/github/chiru-labs/ERC721A/contracts/ERC721A.sol\":19108:19115  tokenId */\n      dup5\n        /* \".deps/github/chiru-labs/ERC721A/contracts/ERC721A.sol\":19092:19116  _tokenApprovals[tokenId] */\n      dup2\n      mstore\n      0x20\n      add\n      swap1\n      dup2\n      mstore\n      0x20\n      add\n      0x00\n      keccak256\n      0x00\n        /* \".deps/github/chiru-labs/ERC721A/contracts/ERC721A.sol\":19092:19121  _tokenApprovals[tokenId] = to */\n      0x0100\n      exp\n      dup2\n      sload\n      dup2\n      0xffffffffffffffffffffffffffffffffffffffff\n      mul\n      not\n      and\n      swap1\n      dup4\n      0xffffffffffffffffffffffffffffffffffffffff\n      and\n      mul\n      or\n      swap1\n      sstore\n      pop\n        /* \".deps/github/chiru-labs/ERC721A/contracts/ERC721A.sol\":19156:19163  tokenId */\n      dup2\n        /* \".deps/github/chiru-labs/ERC721A/contracts/ERC721A.sol\":19152:19154  to */\n      dup4\n        /* \".deps/github/chiru-labs/ERC721A/contracts/ERC721A.sol\":19136:19164  Approval(owner, to, tokenId) */\n      0xffffffffffffffffffffffffffffffffffffffff\n      and\n        /* \".deps/github/chiru-labs/ERC721A/contracts/ERC721A.sol\":19145:19150  owner */\n      dup3\n        /* \".deps/github/chiru-labs/ERC721A/contracts/ERC721A.sol\":19136:19164  Approval(owner, to, tokenId) */\n      0xffffffffffffffffffffffffffffffffffffffff\n      and\n      0x8c5be1e5ebec7d5bd14f71427d1e84f3dd0314c0f7b2291e5b200ac8c7c3b925\n      mload(0x40)\n      mload(0x40)\n      dup1\n      swap2\n      sub\n      swap1\n      log4\n        /* \".deps/github/chiru-labs/ERC721A/contracts/ERC721A.sol\":18982:19171  function _approve(... */\n      pop\n      pop\n      pop\n      jump\t// out\n        /* \".deps/github/chiru-labs/ERC721A/contracts/ERC721A.sol\":3687:3777  function _startTokenId() internal view virtual returns (uint256) {... */\n    tag_109:\n        /* \".deps/github/chiru-labs/ERC721A/contracts/ERC721A.sol\":3743:3750  uint256 */\n      0x00\n        /* \".deps/github/chiru-labs/ERC721A/contracts/ERC721A.sol\":3687:3777  function _startTokenId() internal view virtual returns (uint256) {... */\n      swap1\n      jump\t// out\n        /* \".deps/github/chiru-labs/ERC721A/contracts/ERC721A.sol\":14052:16134  function _transfer(... */\n    tag_112:\n        /* \".deps/github/chiru-labs/ERC721A/contracts/ERC721A.sol\":14162:14197  TokenOwnership memory prevOwnership */\n      0x00\n        /* \".deps/github/chiru-labs/ERC721A/contracts/ERC721A.sol\":14200:14221  _ownershipOf(tokenId) */\n      tag_161\n        /* \".deps/github/chiru-labs/ERC721A/contracts/ERC721A.sol\":14213:14220  tokenId */\n      dup3\n        /* \".deps/github/chiru-labs/ERC721A/contracts/ERC721A.sol\":14200:14212  _ownershipOf */\n      tag_117\n        /* \".deps/github/chiru-labs/ERC721A/contracts/ERC721A.sol\":14200:14221  _ownershipOf(tokenId) */\n      jump\t// in\n    tag_161:\n        /* \".deps/github/chiru-labs/ERC721A/contracts/ERC721A.sol\":14162:14221  TokenOwnership memory prevOwnership = _ownershipOf(tokenId) */\n      swap1\n      pop\n        /* \".deps/github/chiru-labs/ERC721A/contracts/ERC721A.sol\":14258:14262  from */\n      dup4\n        /* \".deps/github/chiru-labs/ERC721A/contracts/ERC721A.sol\":14236:14262  prevOwnership.addr != from */\n      0xffffffffffffffffffffffffffffffffffffffff\n      and\n        /* \".deps/github/chiru-labs/ERC721A/contracts/ERC721A.sol\":14236:14249  prevOwnership */\n      dup2\n        /* \".deps/github/chiru-labs/ERC721A/contracts/ERC721A.sol\":14236:14254  prevOwnership.addr */\n      0x00\n      add\n      mload\n        /* \".deps/github/chiru-labs/ERC721A/contracts/ERC721A.sol\":14236:14262  prevOwnership.addr != from */\n      0xffffffffffffffffffffffffffffffffffffffff\n      and\n      eq\n        /* \".deps/github/chiru-labs/ERC721A/contracts/ERC721A.sol\":14232:14299  if (prevOwnership.addr != from) revert TransferFromIncorrectOwner() */\n      tag_162\n      jumpi\n        /* \".deps/github/chiru-labs/ERC721A/contracts/ERC721A.sol\":14271:14299  TransferFromIncorrectOwner() */\n      mload(0x40)\n      0xa114810000000000000000000000000000000000000000000000000000000000\n      dup2\n      mstore\n      0x04\n      add\n      mload(0x40)\n      dup1\n      swap2\n      sub\n      swap1\n      revert\n        /* \".deps/github/chiru-labs/ERC721A/contracts/ERC721A.sol\":14232:14299  if (prevOwnership.addr != from) revert TransferFromIncorrectOwner() */\n    tag_162:\n        /* \".deps/github/chiru-labs/ERC721A/contracts/ERC721A.sol\":14310:14332  bool isApprovedOrOwner */\n      0x00\n        /* \".deps/github/chiru-labs/ERC721A/contracts/ERC721A.sol\":14352:14356  from */\n      dup5\n        /* \".deps/github/chiru-labs/ERC721A/contracts/ERC721A.sol\":14336:14356  _msgSender() == from */\n      0xffffffffffffffffffffffffffffffffffffffff\n      and\n        /* \".deps/github/chiru-labs/ERC721A/contracts/ERC721A.sol\":14336:14348  _msgSender() */\n      tag_163\n        /* \".deps/github/chiru-labs/ERC721A/contracts/ERC721A.sol\":14336:14346  _msgSender */\n      tag_100\n        /* \".deps/github/chiru-labs/ERC721A/contracts/ERC721A.sol\":14336:14348  _msgSender() */\n      jump\t// in\n    tag_163:\n        /* \".deps/github/chiru-labs/ERC721A/contracts/ERC721A.sol\":14336:14356  _msgSender() == from */\n      0xffffffffffffffffffffffffffffffffffffffff\n      and\n      eq\n        /* \".deps/github/chiru-labs/ERC721A/contracts/ERC721A.sol\":14336:14408  _msgSender() == from ||... */\n      dup1\n      tag_164\n      jumpi\n      pop\n        /* \".deps/github/chiru-labs/ERC721A/contracts/ERC721A.sol\":14372:14408  isApprovedForAll(from, _msgSender()) */\n      tag_165\n        /* \".deps/github/chiru-labs/ERC721A/contracts/ERC721A.sol\":14389:14393  from */\n      dup6\n        /* \".deps/github/chiru-labs/ERC721A/contracts/ERC721A.sol\":14395:14407  _msgSender() */\n      tag_166\n        /* \".deps/github/chiru-labs/ERC721A/contracts/ERC721A.sol\":14395:14405  _msgSender */\n      tag_100\n        /* \".deps/github/chiru-labs/ERC721A/contracts/ERC721A.sol\":14395:14407  _msgSender() */\n      jump\t// in\n    tag_166:\n        /* \".deps/github/chiru-labs/ERC721A/contracts/ERC721A.sol\":14372:14388  isApprovedForAll */\n      tag_78\n        /* \".deps/github/chiru-labs/ERC721A/contracts/ERC721A.sol\":14372:14408  isApprovedForAll(from, _msgSender()) */\n      jump\t// in\n    tag_165:\n        /* \".deps/github/chiru-labs/ERC721A/contracts/ERC721A.sol\":14336:14408  _msgSender() == from ||... */\n    tag_164:\n        /* \".deps/github/chiru-labs/ERC721A/contracts/ERC721A.sol\":14336:14460  _msgSender() == from ||... */\n      dup1\n      tag_167\n      jumpi\n      pop\n        /* \".deps/github/chiru-labs/ERC721A/contracts/ERC721A.sol\":14448:14460  _msgSender() */\n      tag_168\n        /* \".deps/github/chiru-labs/ERC721A/contracts/ERC721A.sol\":14448:14458  _msgSender */\n      tag_100\n        /* \".deps/github/chiru-labs/ERC721A/contracts/ERC721A.sol\":14448:14460  _msgSender() */\n      jump\t// in\n    tag_168:\n        /* \".deps/github/chiru-labs/ERC721A/contracts/ERC721A.sol\":14424:14460  getApproved(tokenId) == _msgSender() */\n      0xffffffffffffffffffffffffffffffffffffffff\n      and\n        /* \".deps/github/chiru-labs/ERC721A/contracts/ERC721A.sol\":14424:14444  getApproved(tokenId) */\n      tag_169\n        /* \".deps/github/chiru-labs/ERC721A/contracts/ERC721A.sol\":14436:14443  tokenId */\n      dup5\n        /* \".deps/github/chiru-labs/ERC721A/contracts/ERC721A.sol\":14424:14435  getApproved */\n      tag_33\n        /* \".deps/github/chiru-labs/ERC721A/contracts/ERC721A.sol\":14424:14444  getApproved(tokenId) */\n      jump\t// in\n    tag_169:\n        /* \".deps/github/chiru-labs/ERC721A/contracts/ERC721A.sol\":14424:14460  getApproved(tokenId) == _msgSender() */\n      0xffffffffffffffffffffffffffffffffffffffff\n      and\n      eq\n        /* \".deps/github/chiru-labs/ERC721A/contracts/ERC721A.sol\":14336:14460  _msgSender() == from ||... */\n    tag_167:\n        /* \".deps/github/chiru-labs/ERC721A/contracts/ERC721A.sol\":14310:14461  bool isApprovedOrOwner = (_msgSender() == from ||... */\n      swap1\n      pop\n        /* \".deps/github/chiru-labs/ERC721A/contracts/ERC721A.sol\":14477:14494  isApprovedOrOwner */\n      dup1\n        /* \".deps/github/chiru-labs/ERC721A/contracts/ERC721A.sol\":14472:14538  if (!isApprovedOrOwner) revert TransferCallerNotOwnerNorApproved() */\n      tag_170\n      jumpi\n        /* \".deps/github/chiru-labs/ERC721A/contracts/ERC721A.sol\":14503:14538  TransferCallerNotOwnerNorApproved() */\n      mload(0x40)\n      0x59c896be00000000000000000000000000000000000000000000000000000000\n      dup2\n      mstore\n      0x04\n      add\n      mload(0x40)\n      dup1\n      swap2\n      sub\n      swap1\n      revert\n        /* \".deps/github/chiru-labs/ERC721A/contracts/ERC721A.sol\":14472:14538  if (!isApprovedOrOwner) revert TransferCallerNotOwnerNorApproved() */\n    tag_170:\n        /* \".deps/github/chiru-labs/ERC721A/contracts/ERC721A.sol\":14566:14567  0 */\n      0x00\n        /* \".deps/github/chiru-labs/ERC721A/contracts/ERC721A.sol\":14552:14568  to == address(0) */\n      0xffffffffffffffffffffffffffffffffffffffff\n      and\n        /* \".deps/github/chiru-labs/ERC721A/contracts/ERC721A.sol\":14552:14554  to */\n      dup5\n        /* \".deps/github/chiru-labs/ERC721A/contracts/ERC721A.sol\":14552:14568  to == address(0) */\n      0xffffffffffffffffffffffffffffffffffffffff\n      and\n      eq\n        /* \".deps/github/chiru-labs/ERC721A/contracts/ERC721A.sol\":14548:14600  if (to == address(0)) revert TransferToZeroAddress() */\n      iszero\n      tag_171\n      jumpi\n        /* \".deps/github/chiru-labs/ERC721A/contracts/ERC721A.sol\":14577:14600  TransferToZeroAddress() */\n      mload(0x40)\n      0xea553b3400000000000000000000000000000000000000000000000000000000\n      dup2\n      mstore\n      0x04\n      add\n      mload(0x40)\n      dup1\n      swap2\n      sub\n      swap1\n      revert\n        /* \".deps/github/chiru-labs/ERC721A/contracts/ERC721A.sol\":14548:14600  if (to == address(0)) revert TransferToZeroAddress() */\n    tag_171:\n        /* \".deps/github/chiru-labs/ERC721A/contracts/ERC721A.sol\":14611:14654  _beforeTokenTransfers(from, to, tokenId, 1) */\n      tag_172\n        /* \".deps/github/chiru-labs/ERC721A/contracts/ERC721A.sol\":14633:14637  from */\n      dup6\n        /* \".deps/github/chiru-labs/ERC721A/contracts/ERC721A.sol\":14639:14641  to */\n      dup6\n        /* \".deps/github/chiru-labs/ERC721A/contracts/ERC721A.sol\":14643:14650  tokenId */\n      dup6\n        /* \".deps/github/chiru-labs/ERC721A/contracts/ERC721A.sol\":14652:14653  1 */\n      0x01\n        /* \".deps/github/chiru-labs/ERC721A/contracts/ERC721A.sol\":14611:14632  _beforeTokenTransfers */\n      tag_173\n        /* \".deps/github/chiru-labs/ERC721A/contracts/ERC721A.sol\":14611:14654  _beforeTokenTransfers(from, to, tokenId, 1) */\n      jump\t// in\n    tag_172:\n        /* \".deps/github/chiru-labs/ERC721A/contracts/ERC721A.sol\":14716:14751  _approve(address(0), tokenId, from) */\n      tag_174\n        /* \".deps/github/chiru-labs/ERC721A/contracts/ERC721A.sol\":14733:14734  0 */\n      0x00\n        /* \".deps/github/chiru-labs/ERC721A/contracts/ERC721A.sol\":14737:14744  tokenId */\n      dup5\n        /* \".deps/github/chiru-labs/ERC721A/contracts/ERC721A.sol\":14746:14750  from */\n      dup8\n        /* \".deps/github/chiru-labs/ERC721A/contracts/ERC721A.sol\":14716:14724  _approve */\n      tag_106\n        /* \".deps/github/chiru-labs/ERC721A/contracts/ERC721A.sol\":14716:14751  _approve(address(0), tokenId, from) */\n      jump\t// in\n    tag_174:\n        /* \".deps/github/chiru-labs/ERC721A/contracts/ERC721A.sol\":15071:15072  1 */\n      0x01\n        /* \".deps/github/chiru-labs/ERC721A/contracts/ERC721A.sol\":15041:15053  _addressData */\n      0x06\n        /* \".deps/github/chiru-labs/ERC721A/contracts/ERC721A.sol\":15041:15059  _addressData[from] */\n      0x00\n        /* \".deps/github/chiru-labs/ERC721A/contracts/ERC721A.sol\":15054:15058  from */\n      dup8\n        /* \".deps/github/chiru-labs/ERC721A/contracts/ERC721A.sol\":15041:15059  _addressData[from] */\n      0xffffffffffffffffffffffffffffffffffffffff\n      and\n      0xffffffffffffffffffffffffffffffffffffffff\n      and\n      dup2\n      mstore\n      0x20\n      add\n      swap1\n      dup2\n      mstore\n      0x20\n      add\n      0x00\n      keccak256\n        /* \".deps/github/chiru-labs/ERC721A/contracts/ERC721A.sol\":15041:15067  _addressData[from].balance */\n      0x00\n      add\n      0x00\n        /* \".deps/github/chiru-labs/ERC721A/contracts/ERC721A.sol\":15041:15072  _addressData[from].balance -= 1 */\n      dup3\n      dup3\n      dup3\n      swap1\n      sload\n      swap1\n      0x0100\n      exp\n      swap1\n      div\n      0xffffffffffffffff\n      and\n      sub\n      swap3\n      pop\n      0x0100\n      exp\n      dup2\n      sload\n      dup2\n      0xffffffffffffffff\n      mul\n      not\n      and\n      swap1\n      dup4\n      0xffffffffffffffff\n      and\n      mul\n      or\n      swap1\n      sstore\n      pop\n        /* \".deps/github/chiru-labs/ERC721A/contracts/ERC721A.sol\":15114:15115  1 */\n      0x01\n        /* \".deps/github/chiru-labs/ERC721A/contracts/ERC721A.sol\":15086:15098  _addressData */\n      0x06\n        /* \".deps/github/chiru-labs/ERC721A/contracts/ERC721A.sol\":15086:15102  _addressData[to] */\n      0x00\n        /* \".deps/github/chiru-labs/ERC721A/contracts/ERC721A.sol\":15099:15101  to */\n      dup7\n        /* \".deps/github/chiru-labs/ERC721A/contracts/ERC721A.sol\":15086:15102  _addressData[to] */\n      0xffffffffffffffffffffffffffffffffffffffff\n      and\n      0xffffffffffffffffffffffffffffffffffffffff\n      and\n      dup2\n      mstore\n      0x20\n      add\n      swap1\n      dup2\n      mstore\n      0x20\n      add\n      0x00\n      keccak256\n        /* \".deps/github/chiru-labs/ERC721A/contracts/ERC721A.sol\":15086:15110  _addressData[to].balance */\n      0x00\n      add\n      0x00\n        /* \".deps/github/chiru-labs/ERC721A/contracts/ERC721A.sol\":15086:15115  _addressData[to].balance += 1 */\n      dup3\n      dup3\n      dup3\n      swap1\n      sload\n      swap1\n      0x0100\n      exp\n      swap1\n      div\n      0xffffffffffffffff\n      and\n      add\n      swap3\n      pop\n      0x0100\n      exp\n      dup2\n      sload\n      dup2\n      0xffffffffffffffff\n      mul\n      not\n      and\n      swap1\n      dup4\n      0xffffffffffffffff\n      and\n      mul\n      or\n      swap1\n      sstore\n      pop\n        /* \".deps/github/chiru-labs/ERC721A/contracts/ERC721A.sol\":15130:15161  TokenOwnership storage currSlot */\n      0x00\n        /* \".deps/github/chiru-labs/ERC721A/contracts/ERC721A.sol\":15164:15175  _ownerships */\n      0x05\n        /* \".deps/github/chiru-labs/ERC721A/contracts/ERC721A.sol\":15164:15184  _ownerships[tokenId] */\n      0x00\n        /* \".deps/github/chiru-labs/ERC721A/contracts/ERC721A.sol\":15176:15183  tokenId */\n      dup6\n        /* \".deps/github/chiru-labs/ERC721A/contracts/ERC721A.sol\":15164:15184  _ownerships[tokenId] */\n      dup2\n      mstore\n      0x20\n      add\n      swap1\n      dup2\n      mstore\n      0x20\n      add\n      0x00\n      keccak256\n        /* \".deps/github/chiru-labs/ERC721A/contracts/ERC721A.sol\":15130:15184  TokenOwnership storage currSlot = _ownerships[tokenId] */\n      swap1\n      pop\n        /* \".deps/github/chiru-labs/ERC721A/contracts/ERC721A.sol\":15214:15216  to */\n      dup5\n        /* \".deps/github/chiru-labs/ERC721A/contracts/ERC721A.sol\":15198:15206  currSlot */\n      dup2\n        /* \".deps/github/chiru-labs/ERC721A/contracts/ERC721A.sol\":15198:15211  currSlot.addr */\n      0x00\n      add\n      0x00\n        /* \".deps/github/chiru-labs/ERC721A/contracts/ERC721A.sol\":15198:15216  currSlot.addr = to */\n      0x0100\n      exp\n      dup2\n      sload\n      dup2\n      0xffffffffffffffffffffffffffffffffffffffff\n      mul\n      not\n      and\n      swap1\n      dup4\n      0xffffffffffffffffffffffffffffffffffffffff\n      and\n      mul\n      or\n      swap1\n      sstore\n      pop\n        /* \".deps/github/chiru-labs/ERC721A/contracts/ERC721A.sol\":15263:15278  block.timestamp */\n      timestamp\n        /* \".deps/github/chiru-labs/ERC721A/contracts/ERC721A.sol\":15230:15238  currSlot */\n      dup2\n        /* \".deps/github/chiru-labs/ERC721A/contracts/ERC721A.sol\":15230:15253  currSlot.startTimestamp */\n      0x00\n      add\n      0x14\n        /* \".deps/github/chiru-labs/ERC721A/contracts/ERC721A.sol\":15230:15279  currSlot.startTimestamp = uint64(block.timestamp) */\n      0x0100\n      exp\n      dup2\n      sload\n      dup2\n      0xffffffffffffffff\n      mul\n      not\n      and\n      swap1\n      dup4\n      0xffffffffffffffff\n      and\n      mul\n      or\n      swap1\n      sstore\n      pop\n        /* \".deps/github/chiru-labs/ERC721A/contracts/ERC721A.sol\":15527:15546  uint256 nextTokenId */\n      0x00\n        /* \".deps/github/chiru-labs/ERC721A/contracts/ERC721A.sol\":15559:15560  1 */\n      0x01\n        /* \".deps/github/chiru-labs/ERC721A/contracts/ERC721A.sol\":15549:15556  tokenId */\n      dup6\n        /* \".deps/github/chiru-labs/ERC721A/contracts/ERC721A.sol\":15549:15560  tokenId + 1 */\n      add\n        /* \".deps/github/chiru-labs/ERC721A/contracts/ERC721A.sol\":15527:15560  uint256 nextTokenId = tokenId + 1 */\n      swap1\n      pop\n        /* \".deps/github/chiru-labs/ERC721A/contracts/ERC721A.sol\":15574:15605  TokenOwnership storage nextSlot */\n      0x00\n        /* \".deps/github/chiru-labs/ERC721A/contracts/ERC721A.sol\":15608:15619  _ownerships */\n      0x05\n        /* \".deps/github/chiru-labs/ERC721A/contracts/ERC721A.sol\":15608:15632  _ownerships[nextTokenId] */\n      0x00\n        /* \".deps/github/chiru-labs/ERC721A/contracts/ERC721A.sol\":15620:15631  nextTokenId */\n      dup4\n        /* \".deps/github/chiru-labs/ERC721A/contracts/ERC721A.sol\":15608:15632  _ownerships[nextTokenId] */\n      dup2\n      mstore\n      0x20\n      add\n      swap1\n      dup2\n      mstore\n      0x20\n      add\n      0x00\n      keccak256\n        /* \".deps/github/chiru-labs/ERC721A/contracts/ERC721A.sol\":15574:15632  TokenOwnership storage nextSlot = _ownerships[nextTokenId] */\n      swap1\n      pop\n        /* \".deps/github/chiru-labs/ERC721A/contracts/ERC721A.sol\":15675:15676  0 */\n      0x00\n        /* \".deps/github/chiru-labs/ERC721A/contracts/ERC721A.sol\":15650:15677  nextSlot.addr == address(0) */\n      0xffffffffffffffffffffffffffffffffffffffff\n      and\n        /* \".deps/github/chiru-labs/ERC721A/contracts/ERC721A.sol\":15650:15658  nextSlot */\n      dup2\n        /* \".deps/github/chiru-labs/ERC721A/contracts/ERC721A.sol\":15650:15663  nextSlot.addr */\n      0x00\n      add\n      0x00\n      swap1\n      sload\n      swap1\n      0x0100\n      exp\n      swap1\n      div\n      0xffffffffffffffffffffffffffffffffffffffff\n      and\n        /* \".deps/github/chiru-labs/ERC721A/contracts/ERC721A.sol\":15650:15677  nextSlot.addr == address(0) */\n      0xffffffffffffffffffffffffffffffffffffffff\n      and\n      eq\n        /* \".deps/github/chiru-labs/ERC721A/contracts/ERC721A.sol\":15646:16023  if (nextSlot.addr == address(0)) {... */\n      iszero\n      tag_175\n      jumpi\n        /* \".deps/github/chiru-labs/ERC721A/contracts/ERC721A.sol\":15857:15870  _currentIndex */\n      sload(0x00)\n        /* \".deps/github/chiru-labs/ERC721A/contracts/ERC721A.sol\":15842:15853  nextTokenId */\n      dup3\n        /* \".deps/github/chiru-labs/ERC721A/contracts/ERC721A.sol\":15842:15870  nextTokenId != _currentIndex */\n      eq\n        /* \".deps/github/chiru-labs/ERC721A/contracts/ERC721A.sol\":15838:16009  if (nextTokenId != _currentIndex) {... */\n      tag_176\n      jumpi\n        /* \".deps/github/chiru-labs/ERC721A/contracts/ERC721A.sol\":15910:15914  from */\n      dup8\n        /* \".deps/github/chiru-labs/ERC721A/contracts/ERC721A.sol\":15894:15902  nextSlot */\n      dup2\n        /* \".deps/github/chiru-labs/ERC721A/contracts/ERC721A.sol\":15894:15907  nextSlot.addr */\n      0x00\n      add\n      0x00\n        /* \".deps/github/chiru-labs/ERC721A/contracts/ERC721A.sol\":15894:15914  nextSlot.addr = from */\n      0x0100\n      exp\n      dup2\n      sload\n      dup2\n      0xffffffffffffffffffffffffffffffffffffffff\n      mul\n      not\n      and\n      swap1\n      dup4\n      0xffffffffffffffffffffffffffffffffffffffff\n      and\n      mul\n      or\n      swap1\n      sstore\n      pop\n        /* \".deps/github/chiru-labs/ERC721A/contracts/ERC721A.sol\":15962:15975  prevOwnership */\n      dup5\n        /* \".deps/github/chiru-labs/ERC721A/contracts/ERC721A.sol\":15962:15990  prevOwnership.startTimestamp */\n      0x20\n      add\n      mload\n        /* \".deps/github/chiru-labs/ERC721A/contracts/ERC721A.sol\":15936:15944  nextSlot */\n      dup2\n        /* \".deps/github/chiru-labs/ERC721A/contracts/ERC721A.sol\":15936:15959  nextSlot.startTimestamp */\n      0x00\n      add\n      0x14\n        /* \".deps/github/chiru-labs/ERC721A/contracts/ERC721A.sol\":15936:15990  nextSlot.startTimestamp = prevOwnership.startTimestamp */\n      0x0100\n      exp\n      dup2\n      sload\n      dup2\n      0xffffffffffffffff\n      mul\n      not\n      and\n      swap1\n      dup4\n      0xffffffffffffffff\n      and\n      mul\n      or\n      swap1\n      sstore\n      pop\n        /* \".deps/github/chiru-labs/ERC721A/contracts/ERC721A.sol\":15838:16009  if (nextTokenId != _currentIndex) {... */\n    tag_176:\n        /* \".deps/github/chiru-labs/ERC721A/contracts/ERC721A.sol\":15646:16023  if (nextSlot.addr == address(0)) {... */\n    tag_175:\n        /* \".deps/github/chiru-labs/ERC721A/contracts/ERC721A.sol\":15017:16033  unchecked {... */\n      pop\n      pop\n      pop\n        /* \".deps/github/chiru-labs/ERC721A/contracts/ERC721A.sol\":16067:16074  tokenId */\n      dup3\n        /* \".deps/github/chiru-labs/ERC721A/contracts/ERC721A.sol\":16063:16065  to */\n      dup5\n        /* \".deps/github/chiru-labs/ERC721A/contracts/ERC721A.sol\":16048:16075  Transfer(from, to, tokenId) */\n      0xffffffffffffffffffffffffffffffffffffffff\n      and\n        /* \".deps/github/chiru-labs/ERC721A/contracts/ERC721A.sol\":16057:16061  from */\n      dup7\n        /* \".deps/github/chiru-labs/ERC721A/contracts/ERC721A.sol\":16048:16075  Transfer(from, to, tokenId) */\n      0xffffffffffffffffffffffffffffffffffffffff\n      and\n      0xddf252ad1be2c89b69c2b068fc378daa952ba7f163c4a11628f55a4df523b3ef\n      mload(0x40)\n      mload(0x40)\n      dup1\n      swap2\n      sub\n      swap1\n      log4\n        /* \".deps/github/chiru-labs/ERC721A/contracts/ERC721A.sol\":16085:16127  _afterTokenTransfers(from, to, tokenId, 1) */\n      tag_177\n        /* \".deps/github/chiru-labs/ERC721A/contracts/ERC721A.sol\":16106:16110  from */\n      dup6\n        /* \".deps/github/chiru-labs/ERC721A/contracts/ERC721A.sol\":16112:16114  to */\n      dup6\n        /* \".deps/github/chiru-labs/ERC721A/contracts/ERC721A.sol\":16116:16123  tokenId */\n      dup6\n        /* \".deps/github/chiru-labs/ERC721A/contracts/ERC721A.sol\":16125:16126  1 */\n      0x01\n        /* \".deps/github/chiru-labs/ERC721A/contracts/ERC721A.sol\":16085:16105  _afterTokenTransfers */\n      tag_178\n        /* \".deps/github/chiru-labs/ERC721A/contracts/ERC721A.sol\":16085:16127  _afterTokenTransfers(from, to, tokenId, 1) */\n      jump\t// in\n    tag_177:\n        /* \".deps/github/chiru-labs/ERC721A/contracts/ERC721A.sol\":14152:16134  {... */\n      pop\n      pop\n        /* \".deps/github/chiru-labs/ERC721A/contracts/ERC721A.sol\":14052:16134  function _transfer(... */\n      pop\n      pop\n      pop\n      jump\t// out\n        /* \".deps/github/chiru-labs/ERC721A/contracts/ERC721A.sol\":6337:7421  function _ownershipOf(uint256 tokenId) internal view returns (TokenOwnership memory) {... */\n    tag_117:\n        /* \".deps/github/chiru-labs/ERC721A/contracts/ERC721A.sol\":6399:6420  TokenOwnership memory */\n      tag_179\n      tag_180\n      jump\t// in\n    tag_179:\n        /* \".deps/github/chiru-labs/ERC721A/contracts/ERC721A.sol\":6432:6444  uint256 curr */\n      0x00\n        /* \".deps/github/chiru-labs/ERC721A/contracts/ERC721A.sol\":6447:6454  tokenId */\n      dup3\n        /* \".deps/github/chiru-labs/ERC721A/contracts/ERC721A.sol\":6432:6454  uint256 curr = tokenId */\n      swap1\n      pop\n        /* \".deps/github/chiru-labs/ERC721A/contracts/ERC721A.sol\":6512:6516  curr */\n      dup1\n        /* \".deps/github/chiru-labs/ERC721A/contracts/ERC721A.sol\":6493:6508  _startTokenId() */\n      tag_182\n        /* \".deps/github/chiru-labs/ERC721A/contracts/ERC721A.sol\":6493:6506  _startTokenId */\n      tag_109\n        /* \".deps/github/chiru-labs/ERC721A/contracts/ERC721A.sol\":6493:6508  _startTokenId() */\n      jump\t// in\n    tag_182:\n        /* \".deps/github/chiru-labs/ERC721A/contracts/ERC721A.sol\":6493:6516  _startTokenId() <= curr */\n      gt\n      iszero\n        /* \".deps/github/chiru-labs/ERC721A/contracts/ERC721A.sol\":6493:6540  _startTokenId() <= curr && curr < _currentIndex */\n      dup1\n      iszero\n      tag_183\n      jumpi\n      pop\n        /* \".deps/github/chiru-labs/ERC721A/contracts/ERC721A.sol\":6527:6540  _currentIndex */\n      sload(0x00)\n        /* \".deps/github/chiru-labs/ERC721A/contracts/ERC721A.sol\":6520:6524  curr */\n      dup2\n        /* \".deps/github/chiru-labs/ERC721A/contracts/ERC721A.sol\":6520:6540  curr < _currentIndex */\n      lt\n        /* \".deps/github/chiru-labs/ERC721A/contracts/ERC721A.sol\":6493:6540  _startTokenId() <= curr && curr < _currentIndex */\n    tag_183:\n        /* \".deps/github/chiru-labs/ERC721A/contracts/ERC721A.sol\":6489:7357  if (_startTokenId() <= curr && curr < _currentIndex) {... */\n      iszero\n      tag_184\n      jumpi\n        /* \".deps/github/chiru-labs/ERC721A/contracts/ERC721A.sol\":6560:6591  TokenOwnership memory ownership */\n      0x00\n        /* \".deps/github/chiru-labs/ERC721A/contracts/ERC721A.sol\":6594:6605  _ownerships */\n      0x05\n        /* \".deps/github/chiru-labs/ERC721A/contracts/ERC721A.sol\":6594:6611  _ownerships[curr] */\n      0x00\n        /* \".deps/github/chiru-labs/ERC721A/contracts/ERC721A.sol\":6606:6610  curr */\n      dup4\n        /* \".deps/github/chiru-labs/ERC721A/contracts/ERC721A.sol\":6594:6611  _ownerships[curr] */\n      dup2\n      mstore\n      0x20\n      add\n      swap1\n      dup2\n      mstore\n      0x20\n      add\n      0x00\n      keccak256\n        /* \".deps/github/chiru-labs/ERC721A/contracts/ERC721A.sol\":6560:6611  TokenOwnership memory ownership = _ownerships[curr] */\n      mload(0x40)\n      dup1\n      0x60\n      add\n      0x40\n      mstore\n      swap1\n      dup2\n      0x00\n      dup3\n      add\n      0x00\n      swap1\n      sload\n      swap1\n      0x0100\n      exp\n      swap1\n      div\n      0xffffffffffffffffffffffffffffffffffffffff\n      and\n      0xffffffffffffffffffffffffffffffffffffffff\n      and\n      0xffffffffffffffffffffffffffffffffffffffff\n      and\n      dup2\n      mstore\n      0x20\n      add\n      0x00\n      dup3\n      add\n      0x14\n      swap1\n      sload\n      swap1\n      0x0100\n      exp\n      swap1\n      div\n      0xffffffffffffffff\n      and\n      0xffffffffffffffff\n      and\n      0xffffffffffffffff\n      and\n      dup2\n      mstore\n      0x20\n      add\n      0x00\n      dup3\n      add\n      0x1c\n      swap1\n      sload\n      swap1\n      0x0100\n      exp\n      swap1\n      div\n      0xff\n      and\n      iszero\n      iszero\n      iszero\n      iszero\n      dup2\n      mstore\n      pop\n      pop\n      swap1\n      pop\n        /* \".deps/github/chiru-labs/ERC721A/contracts/ERC721A.sol\":6634:6643  ownership */\n      dup1\n        /* \".deps/github/chiru-labs/ERC721A/contracts/ERC721A.sol\":6634:6650  ownership.burned */\n      0x40\n      add\n      mload\n        /* \".deps/github/chiru-labs/ERC721A/contracts/ERC721A.sol\":6629:7343  if (!ownership.burned) {... */\n      tag_185\n      jumpi\n        /* \".deps/github/chiru-labs/ERC721A/contracts/ERC721A.sol\":6704:6705  0 */\n      0x00\n        /* \".deps/github/chiru-labs/ERC721A/contracts/ERC721A.sol\":6678:6706  ownership.addr != address(0) */\n      0xffffffffffffffffffffffffffffffffffffffff\n      and\n        /* \".deps/github/chiru-labs/ERC721A/contracts/ERC721A.sol\":6678:6687  ownership */\n      dup2\n        /* \".deps/github/chiru-labs/ERC721A/contracts/ERC721A.sol\":6678:6692  ownership.addr */\n      0x00\n      add\n      mload\n        /* \".deps/github/chiru-labs/ERC721A/contracts/ERC721A.sol\":6678:6706  ownership.addr != address(0) */\n      0xffffffffffffffffffffffffffffffffffffffff\n      and\n      eq\n        /* \".deps/github/chiru-labs/ERC721A/contracts/ERC721A.sol\":6674:6773  if (ownership.addr != address(0)) {... */\n      tag_186\n      jumpi\n        /* \".deps/github/chiru-labs/ERC721A/contracts/ERC721A.sol\":6741:6750  ownership */\n      dup1\n        /* \".deps/github/chiru-labs/ERC721A/contracts/ERC721A.sol\":6734:6750  return ownership */\n      swap3\n      pop\n      pop\n      pop\n      jump(tag_181)\n        /* \".deps/github/chiru-labs/ERC721A/contracts/ERC721A.sol\":6674:6773  if (ownership.addr != address(0)) {... */\n    tag_186:\n        /* \".deps/github/chiru-labs/ERC721A/contracts/ERC721A.sol\":7070:7325  while (true) {... */\n    tag_187:\n        /* \".deps/github/chiru-labs/ERC721A/contracts/ERC721A.sol\":7077:7081  true */\n      0x01\n        /* \".deps/github/chiru-labs/ERC721A/contracts/ERC721A.sol\":7070:7325  while (true) {... */\n      iszero\n      tag_188\n      jumpi\n        /* \".deps/github/chiru-labs/ERC721A/contracts/ERC721A.sol\":7109:7115  curr-- */\n      dup2\n      dup1\n      0x01\n      swap1\n      sub\n      swap3\n      pop\n      pop\n        /* \".deps/github/chiru-labs/ERC721A/contracts/ERC721A.sol\":7153:7164  _ownerships */\n      0x05\n        /* \".deps/github/chiru-labs/ERC721A/contracts/ERC721A.sol\":7153:7170  _ownerships[curr] */\n      0x00\n        /* \".deps/github/chiru-labs/ERC721A/contracts/ERC721A.sol\":7165:7169  curr */\n      dup4\n        /* \".deps/github/chiru-labs/ERC721A/contracts/ERC721A.sol\":7153:7170  _ownerships[curr] */\n      dup2\n      mstore\n      0x20\n      add\n      swap1\n      dup2\n      mstore\n      0x20\n      add\n      0x00\n      keccak256\n        /* \".deps/github/chiru-labs/ERC721A/contracts/ERC721A.sol\":7141:7170  ownership = _ownerships[curr] */\n      mload(0x40)\n      dup1\n      0x60\n      add\n      0x40\n      mstore\n      swap1\n      dup2\n      0x00\n      dup3\n      add\n      0x00\n      swap1\n      sload\n      swap1\n      0x0100\n      exp\n      swap1\n      div\n      0xffffffffffffffffffffffffffffffffffffffff\n      and\n      0xffffffffffffffffffffffffffffffffffffffff\n      and\n      0xffffffffffffffffffffffffffffffffffffffff\n      and\n      dup2\n      mstore\n      0x20\n      add\n      0x00\n      dup3\n      add\n      0x14\n      swap1\n      sload\n      swap1\n      0x0100\n      exp\n      swap1\n      div\n      0xffffffffffffffff\n      and\n      0xffffffffffffffff\n      and\n      0xffffffffffffffff\n      and\n      dup2\n      mstore\n      0x20\n      add\n      0x00\n      dup3\n      add\n      0x1c\n      swap1\n      sload\n      swap1\n      0x0100\n      exp\n      swap1\n      div\n      0xff\n      and\n      iszero\n      iszero\n      iszero\n      iszero\n      dup2\n      mstore\n      pop\n      pop\n      swap1\n      pop\n        /* \".deps/github/chiru-labs/ERC721A/contracts/ERC721A.sol\":7226:7227  0 */\n      0x00\n        /* \".deps/github/chiru-labs/ERC721A/contracts/ERC721A.sol\":7200:7228  ownership.addr != address(0) */\n      0xffffffffffffffffffffffffffffffffffffffff\n      and\n        /* \".deps/github/chiru-labs/ERC721A/contracts/ERC721A.sol\":7200:7209  ownership */\n      dup2\n        /* \".deps/github/chiru-labs/ERC721A/contracts/ERC721A.sol\":7200:7214  ownership.addr */\n      0x00\n      add\n      mload\n        /* \".deps/github/chiru-labs/ERC721A/contracts/ERC721A.sol\":7200:7228  ownership.addr != address(0) */\n      0xffffffffffffffffffffffffffffffffffffffff\n      and\n      eq\n        /* \".deps/github/chiru-labs/ERC721A/contracts/ERC721A.sol\":7196:7303  if (ownership.addr != address(0)) {... */\n      tag_189\n      jumpi\n        /* \".deps/github/chiru-labs/ERC721A/contracts/ERC721A.sol\":7267:7276  ownership */\n      dup1\n        /* \".deps/github/chiru-labs/ERC721A/contracts/ERC721A.sol\":7260:7276  return ownership */\n      swap3\n      pop\n      pop\n      pop\n      jump(tag_181)\n        /* \".deps/github/chiru-labs/ERC721A/contracts/ERC721A.sol\":7196:7303  if (ownership.addr != address(0)) {... */\n    tag_189:\n        /* \".deps/github/chiru-labs/ERC721A/contracts/ERC721A.sol\":7070:7325  while (true) {... */\n      jump(tag_187)\n    tag_188:\n        /* \".deps/github/chiru-labs/ERC721A/contracts/ERC721A.sol\":6629:7343  if (!ownership.burned) {... */\n    tag_185:\n        /* \".deps/github/chiru-labs/ERC721A/contracts/ERC721A.sol\":6542:7357  {... */\n      pop\n        /* \".deps/github/chiru-labs/ERC721A/contracts/ERC721A.sol\":6489:7357  if (_startTokenId() <= curr && curr < _currentIndex) {... */\n    tag_184:\n        /* \".deps/github/chiru-labs/ERC721A/contracts/ERC721A.sol\":7383:7414  OwnerQueryForNonexistentToken() */\n      mload(0x40)\n      0xdf2d9b4200000000000000000000000000000000000000000000000000000000\n      dup2\n      mstore\n      0x04\n      add\n      mload(0x40)\n      dup1\n      swap2\n      sub\n      swap1\n      revert\n        /* \".deps/github/chiru-labs/ERC721A/contracts/ERC721A.sol\":6337:7421  function _ownershipOf(uint256 tokenId) internal view returns (TokenOwnership memory) {... */\n    tag_181:\n      swap2\n      swap1\n      pop\n      jump\t// out\n        /* \"@openzeppelin/contracts/utils/Address.sol\":1175:1495  function isContract(address account) internal view returns (bool) {... */\n    tag_135:\n        /* \"@openzeppelin/contracts/utils/Address.sol\":1235:1239  bool */\n      0x00\n        /* \"@openzeppelin/contracts/utils/Address.sol\":1487:1488  0 */\n      dup1\n        /* \"@openzeppelin/contracts/utils/Address.sol\":1465:1472  account */\n      dup3\n        /* \"@openzeppelin/contracts/utils/Address.sol\":1465:1484  account.code.length */\n      0xffffffffffffffffffffffffffffffffffffffff\n      and\n      extcodesize\n        /* \"@openzeppelin/contracts/utils/Address.sol\":1465:1488  account.code.length > 0 */\n      gt\n        /* \"@openzeppelin/contracts/utils/Address.sol\":1458:1488  return account.code.length > 0 */\n      swap1\n      pop\n        /* \"@openzeppelin/contracts/utils/Address.sol\":1175:1495  function isContract(address account) internal view returns (bool) {... */\n      swap2\n      swap1\n      pop\n      jump\t// out\n        /* \".deps/github/chiru-labs/ERC721A/contracts/ERC721A.sol\":19652:20302  function _checkContractOnERC721Received(... */\n    tag_138:\n        /* \".deps/github/chiru-labs/ERC721A/contracts/ERC721A.sol\":19810:19814  bool */\n      0x00\n        /* \".deps/github/chiru-labs/ERC721A/contracts/ERC721A.sol\":19846:19848  to */\n      dup4\n        /* \".deps/github/chiru-labs/ERC721A/contracts/ERC721A.sol\":19830:19866  IERC721Receiver(to).onERC721Received */\n      0xffffffffffffffffffffffffffffffffffffffff\n      and\n      0x150b7a02\n        /* \".deps/github/chiru-labs/ERC721A/contracts/ERC721A.sol\":19867:19879  _msgSender() */\n      tag_192\n        /* \".deps/github/chiru-labs/ERC721A/contracts/ERC721A.sol\":19867:19877  _msgSender */\n      tag_100\n        /* \".deps/github/chiru-labs/ERC721A/contracts/ERC721A.sol\":19867:19879  _msgSender() */\n      jump\t// in\n    tag_192:\n        /* \".deps/github/chiru-labs/ERC721A/contracts/ERC721A.sol\":19881:19885  from */\n      dup8\n        /* \".deps/github/chiru-labs/ERC721A/contracts/ERC721A.sol\":19887:19894  tokenId */\n      dup7\n        /* \".deps/github/chiru-labs/ERC721A/contracts/ERC721A.sol\":19896:19901  _data */\n      dup7\n        /* \".deps/github/chiru-labs/ERC721A/contracts/ERC721A.sol\":19830:19902  IERC721Receiver(to).onERC721Received(_msgSender(), from, tokenId, _data) */\n      mload(0x40)\n      dup6\n      0xffffffff\n      and\n      0xe0\n      shl\n      dup2\n      mstore\n      0x04\n      add\n      tag_193\n      swap5\n      swap4\n      swap3\n      swap2\n      swap1\n      tag_194\n      jump\t// in\n    tag_193:\n      0x20\n      mload(0x40)\n      dup1\n      dup4\n      sub\n      dup2\n      0x00\n      dup8\n      dup1\n      extcodesize\n      iszero\n      dup1\n      iszero\n      tag_195\n      jumpi\n      0x00\n      dup1\n      revert\n    tag_195:\n      pop\n      gas\n      call\n      swap3\n      pop\n      pop\n      pop\n      dup1\n      iszero\n      tag_196\n      jumpi\n      pop\n      mload(0x40)\n      returndatasize\n      not(0x1f)\n      0x1f\n      dup3\n      add\n      and\n      dup3\n      add\n      dup1\n      0x40\n      mstore\n      pop\n      dup2\n      add\n      swap1\n      tag_197\n      swap2\n      swap1\n      tag_198\n      jump\t// in\n    tag_197:\n      0x01\n    tag_196:\n        /* \".deps/github/chiru-labs/ERC721A/contracts/ERC721A.sol\":19826:20296  try IERC721Receiver(to).onERC721Received(_msgSender(), from, tokenId, _data) returns (bytes4 retval) {... */\n      tag_199\n      jumpi\n      returndatasize\n      dup1\n      0x00\n      dup2\n      eq\n      tag_204\n      jumpi\n      mload(0x40)\n      swap2\n      pop\n      and(add(returndatasize, 0x3f), not(0x1f))\n      dup3\n      add\n      0x40\n      mstore\n      returndatasize\n      dup3\n      mstore\n      returndatasize\n      0x00\n      0x20\n      dup5\n      add\n      returndatacopy\n      jump(tag_203)\n    tag_204:\n      0x60\n      swap2\n      pop\n    tag_203:\n      pop\n        /* \".deps/github/chiru-labs/ERC721A/contracts/ERC721A.sol\":20078:20079  0 */\n      0x00\n        /* \".deps/github/chiru-labs/ERC721A/contracts/ERC721A.sol\":20061:20067  reason */\n      dup2\n        /* \".deps/github/chiru-labs/ERC721A/contracts/ERC721A.sol\":20061:20074  reason.length */\n      mload\n        /* \".deps/github/chiru-labs/ERC721A/contracts/ERC721A.sol\":20061:20079  reason.length == 0 */\n      eq\n        /* \".deps/github/chiru-labs/ERC721A/contracts/ERC721A.sol\":20057:20286  if (reason.length == 0) {... */\n      iszero\n      tag_205\n      jumpi\n        /* \".deps/github/chiru-labs/ERC721A/contracts/ERC721A.sol\":20106:20146  TransferToNonERC721ReceiverImplementer() */\n      mload(0x40)\n      0xd1a57ed600000000000000000000000000000000000000000000000000000000\n      dup2\n      mstore\n      0x04\n      add\n      mload(0x40)\n      dup1\n      swap2\n      sub\n      swap1\n      revert\n        /* \".deps/github/chiru-labs/ERC721A/contracts/ERC721A.sol\":20057:20286  if (reason.length == 0) {... */\n    tag_205:\n        /* \".deps/github/chiru-labs/ERC721A/contracts/ERC721A.sol\":20246:20252  reason */\n      dup1\n        /* \".deps/github/chiru-labs/ERC721A/contracts/ERC721A.sol\":20240:20253  mload(reason) */\n      mload\n        /* \".deps/github/chiru-labs/ERC721A/contracts/ERC721A.sol\":20231:20237  reason */\n      dup2\n        /* \".deps/github/chiru-labs/ERC721A/contracts/ERC721A.sol\":20227:20229  32 */\n      0x20\n        /* \".deps/github/chiru-labs/ERC721A/contracts/ERC721A.sol\":20223:20238  add(32, reason) */\n      add\n        /* \".deps/github/chiru-labs/ERC721A/contracts/ERC721A.sol\":20216:20254  revert(add(32, reason), mload(reason)) */\n      revert\n        /* \".deps/github/chiru-labs/ERC721A/contracts/ERC721A.sol\":19826:20296  try IERC721Receiver(to).onERC721Received(_msgSender(), from, tokenId, _data) returns (bytes4 retval) {... */\n    tag_199:\n        /* \".deps/github/chiru-labs/ERC721A/contracts/ERC721A.sol\":19958:20003  IERC721Receiver(to).onERC721Received.selector */\n      shl(0xe0, 0x150b7a02)\n        /* \".deps/github/chiru-labs/ERC721A/contracts/ERC721A.sol\":19948:20003  retval == IERC721Receiver(to).onERC721Received.selector */\n      not(0xffffffffffffffffffffffffffffffffffffffffffffffffffffffff)\n      and\n        /* \".deps/github/chiru-labs/ERC721A/contracts/ERC721A.sol\":19948:19954  retval */\n      dup2\n        /* \".deps/github/chiru-labs/ERC721A/contracts/ERC721A.sol\":19948:20003  retval == IERC721Receiver(to).onERC721Received.selector */\n      not(0xffffffffffffffffffffffffffffffffffffffffffffffffffffffff)\n      and\n      eq\n        /* \".deps/github/chiru-labs/ERC721A/contracts/ERC721A.sol\":19941:20003  return retval == IERC721Receiver(to).onERC721Received.selector */\n      swap2\n      pop\n      pop\n        /* \".deps/github/chiru-labs/ERC721A/contracts/ERC721A.sol\":19652:20302  function _checkContractOnERC721Received(... */\n      swap5\n      swap4\n      pop\n      pop\n      pop\n      pop\n      jump\t// out\n        /* \".deps/github/chiru-labs/ERC721A/contracts/ERC721A.sol\":8547:8641  function _baseURI() internal view virtual returns (string memory) {... */\n    tag_144:\n        /* \".deps/github/chiru-labs/ERC721A/contracts/ERC721A.sol\":8598:8611  string memory */\n      0x60\n        /* \".deps/github/chiru-labs/ERC721A/contracts/ERC721A.sol\":8630:8634  _url */\n      0x04\n        /* \".deps/github/chiru-labs/ERC721A/contracts/ERC721A.sol\":8623:8634  return _url */\n      dup1\n      sload\n      tag_209\n      swap1\n      tag_87\n      jump\t// in\n    tag_209:\n      dup1\n      0x1f\n      add\n      0x20\n      dup1\n      swap2\n      div\n      mul\n      0x20\n      add\n      mload(0x40)\n      swap1\n      dup2\n      add\n      0x40\n      mstore\n      dup1\n      swap3\n      swap2\n      swap1\n      dup2\n      dup2\n      mstore\n      0x20\n      add\n      dup3\n      dup1\n      sload\n      tag_210\n      swap1\n      tag_87\n      jump\t// in\n    tag_210:\n      dup1\n      iszero\n      tag_211\n      jumpi\n      dup1\n      0x1f\n      lt\n      tag_212\n      jumpi\n      0x0100\n      dup1\n      dup4\n      sload\n      div\n      mul\n      dup4\n      mstore\n      swap2\n      0x20\n      add\n      swap2\n      jump(tag_211)\n    tag_212:\n      dup3\n      add\n      swap2\n      swap1\n      0x00\n      mstore\n      keccak256(0x00, 0x20)\n      swap1\n    tag_213:\n      dup2\n      sload\n      dup2\n      mstore\n      swap1\n      0x01\n      add\n      swap1\n      0x20\n      add\n      dup1\n      dup4\n      gt\n      tag_213\n      jumpi\n      dup3\n      swap1\n      sub\n      0x1f\n      and\n      dup3\n      add\n      swap2\n    tag_211:\n      pop\n      pop\n      pop\n      pop\n      pop\n      swap1\n      pop\n        /* \".deps/github/chiru-labs/ERC721A/contracts/ERC721A.sol\":8547:8641  function _baseURI() internal view virtual returns (string memory) {... */\n      swap1\n      jump\t// out\n        /* \"@openzeppelin/contracts/utils/Strings.sol\":328:1031  function toString(uint256 value) internal pure returns (string memory) {... */\n    tag_148:\n        /* \"@openzeppelin/contracts/utils/Strings.sol\":384:397  string memory */\n      0x60\n        /* \"@openzeppelin/contracts/utils/Strings.sol\":610:611  0 */\n      0x00\n        /* \"@openzeppelin/contracts/utils/Strings.sol\":601:606  value */\n      dup3\n        /* \"@openzeppelin/contracts/utils/Strings.sol\":601:611  value == 0 */\n      eq\n        /* \"@openzeppelin/contracts/utils/Strings.sol\":597:648  if (value == 0) {... */\n      iszero\n      tag_215\n      jumpi\n        /* \"@openzeppelin/contracts/utils/Strings.sol\":627:637  return \"0\" */\n      mload(0x40)\n      dup1\n      0x40\n      add\n      0x40\n      mstore\n      dup1\n      0x01\n      dup2\n      mstore\n      0x20\n      add\n      0x3000000000000000000000000000000000000000000000000000000000000000\n      dup2\n      mstore\n      pop\n      swap1\n      pop\n      jump(tag_214)\n        /* \"@openzeppelin/contracts/utils/Strings.sol\":597:648  if (value == 0) {... */\n    tag_215:\n        /* \"@openzeppelin/contracts/utils/Strings.sol\":657:669  uint256 temp */\n      0x00\n        /* \"@openzeppelin/contracts/utils/Strings.sol\":672:677  value */\n      dup3\n        /* \"@openzeppelin/contracts/utils/Strings.sol\":657:677  uint256 temp = value */\n      swap1\n      pop\n        /* \"@openzeppelin/contracts/utils/Strings.sol\":687:701  uint256 digits */\n      0x00\n        /* \"@openzeppelin/contracts/utils/Strings.sol\":711:786  while (temp != 0) {... */\n    tag_216:\n        /* \"@openzeppelin/contracts/utils/Strings.sol\":726:727  0 */\n      0x00\n        /* \"@openzeppelin/contracts/utils/Strings.sol\":718:722  temp */\n      dup3\n        /* \"@openzeppelin/contracts/utils/Strings.sol\":718:727  temp != 0 */\n      eq\n        /* \"@openzeppelin/contracts/utils/Strings.sol\":711:786  while (temp != 0) {... */\n      tag_217\n      jumpi\n        /* \"@openzeppelin/contracts/utils/Strings.sol\":743:751  digits++ */\n      dup1\n      dup1\n      tag_218\n      swap1\n      tag_219\n      jump\t// in\n    tag_218:\n      swap2\n      pop\n      pop\n        /* \"@openzeppelin/contracts/utils/Strings.sol\":773:775  10 */\n      0x0a\n        /* \"@openzeppelin/contracts/utils/Strings.sol\":765:775  temp /= 10 */\n      dup3\n      tag_220\n      swap2\n      swap1\n      tag_221\n      jump\t// in\n    tag_220:\n      swap2\n      pop\n        /* \"@openzeppelin/contracts/utils/Strings.sol\":711:786  while (temp != 0) {... */\n      jump(tag_216)\n    tag_217:\n        /* \"@openzeppelin/contracts/utils/Strings.sol\":795:814  bytes memory buffer */\n      0x00\n        /* \"@openzeppelin/contracts/utils/Strings.sol\":827:833  digits */\n      dup2\n        /* \"@openzeppelin/contracts/utils/Strings.sol\":817:834  new bytes(digits) */\n      0xffffffffffffffff\n      dup2\n      gt\n      iszero\n      tag_222\n      jumpi\n      tag_223\n      tag_224\n      jump\t// in\n    tag_223:\n    tag_222:\n      mload(0x40)\n      swap1\n      dup1\n      dup3\n      mstore\n      dup1\n      0x1f\n      add\n      not(0x1f)\n      and\n      0x20\n      add\n      dup3\n      add\n      0x40\n      mstore\n      dup1\n      iszero\n      tag_225\n      jumpi\n      dup2\n      0x20\n      add\n      0x01\n      dup3\n      mul\n      dup1\n      calldatasize\n      dup4\n      calldatacopy\n      dup1\n      dup3\n      add\n      swap2\n      pop\n      pop\n      swap1\n      pop\n    tag_225:\n      pop\n        /* \"@openzeppelin/contracts/utils/Strings.sol\":795:834  bytes memory buffer = new bytes(digits) */\n      swap1\n      pop\n        /* \"@openzeppelin/contracts/utils/Strings.sol\":844:994  while (value != 0) {... */\n    tag_226:\n        /* \"@openzeppelin/contracts/utils/Strings.sol\":860:861  0 */\n      0x00\n        /* \"@openzeppelin/contracts/utils/Strings.sol\":851:856  value */\n      dup6\n        /* \"@openzeppelin/contracts/utils/Strings.sol\":851:861  value != 0 */\n      eq\n        /* \"@openzeppelin/contracts/utils/Strings.sol\":844:994  while (value != 0) {... */\n      tag_227\n      jumpi\n        /* \"@openzeppelin/contracts/utils/Strings.sol\":887:888  1 */\n      0x01\n        /* \"@openzeppelin/contracts/utils/Strings.sol\":877:888  digits -= 1 */\n      dup3\n      tag_228\n      swap2\n      swap1\n      tag_229\n      jump\t// in\n    tag_228:\n      swap2\n      pop\n        /* \"@openzeppelin/contracts/utils/Strings.sol\":953:955  10 */\n      0x0a\n        /* \"@openzeppelin/contracts/utils/Strings.sol\":945:950  value */\n      dup6\n        /* \"@openzeppelin/contracts/utils/Strings.sol\":945:955  value % 10 */\n      tag_230\n      swap2\n      swap1\n      tag_231\n      jump\t// in\n    tag_230:\n        /* \"@openzeppelin/contracts/utils/Strings.sol\":932:934  48 */\n      0x30\n        /* \"@openzeppelin/contracts/utils/Strings.sol\":932:956  48 + uint256(value % 10) */\n      tag_232\n      swap2\n      swap1\n      tag_233\n      jump\t// in\n    tag_232:\n        /* \"@openzeppelin/contracts/utils/Strings.sol\":919:958  bytes1(uint8(48 + uint256(value % 10))) */\n      0xf8\n      shl\n        /* \"@openzeppelin/contracts/utils/Strings.sol\":902:908  buffer */\n      dup2\n        /* \"@openzeppelin/contracts/utils/Strings.sol\":909:915  digits */\n      dup4\n        /* \"@openzeppelin/contracts/utils/Strings.sol\":902:916  buffer[digits] */\n      dup2\n      mload\n      dup2\n      lt\n      tag_234\n      jumpi\n      tag_235\n      tag_236\n      jump\t// in\n    tag_235:\n    tag_234:\n      0x20\n      add\n      add\n        /* \"@openzeppelin/contracts/utils/Strings.sol\":902:958  buffer[digits] = bytes1(uint8(48 + uint256(value % 10))) */\n      swap1\n      not(0xffffffffffffffffffffffffffffffffffffffffffffffffffffffffffffff)\n      and\n      swap1\n      dup2\n      0x00\n      byte\n      swap1\n      mstore8\n      pop\n        /* \"@openzeppelin/contracts/utils/Strings.sol\":981:983  10 */\n      0x0a\n        /* \"@openzeppelin/contracts/utils/Strings.sol\":972:983  value /= 10 */\n      dup6\n      tag_237\n      swap2\n      swap1\n      tag_221\n      jump\t// in\n    tag_237:\n      swap5\n      pop\n        /* \"@openzeppelin/contracts/utils/Strings.sol\":844:994  while (value != 0) {... */\n      jump(tag_226)\n    tag_227:\n        /* \"@openzeppelin/contracts/utils/Strings.sol\":1017:1023  buffer */\n      dup1\n        /* \"@openzeppelin/contracts/utils/Strings.sol\":1003:1024  return string(buffer) */\n      swap4\n      pop\n      pop\n      pop\n      pop\n        /* \"@openzeppelin/contracts/utils/Strings.sol\":328:1031  function toString(uint256 value) internal pure returns (string memory) {... */\n    tag_214:\n      swap2\n      swap1\n      pop\n      jump\t// out\n        /* \".deps/github/chiru-labs/ERC721A/contracts/ERC721A.sol\":20933:21087  function _beforeTokenTransfers(... */\n    tag_173:\n      pop\n      pop\n      pop\n      pop\n      jump\t// out\n        /* \".deps/github/chiru-labs/ERC721A/contracts/ERC721A.sol\":21728:21881  function _afterTokenTransfers(... */\n    tag_178:\n      pop\n      pop\n      pop\n      pop\n      jump\t// out\n    tag_180:\n      mload(0x40)\n      dup1\n      0x60\n      add\n      0x40\n      mstore\n      dup1\n      and(0xffffffffffffffffffffffffffffffffffffffff, 0x00)\n      dup2\n      mstore\n      0x20\n      add\n      and(0xffffffffffffffff, 0x00)\n      dup2\n      mstore\n      0x20\n      add\n      iszero(iszero(0x00))\n      dup2\n      mstore\n      pop\n      swap1\n      jump\t// out\n        /* \"#utility.yul\":7:417   */\n    tag_241:\n        /* \"#utility.yul\":84:89   */\n      0x00\n        /* \"#utility.yul\":109:174   */\n      tag_243\n        /* \"#utility.yul\":125:173   */\n      tag_244\n        /* \"#utility.yul\":166:172   */\n      dup5\n        /* \"#utility.yul\":125:173   */\n      tag_245\n      jump\t// in\n    tag_244:\n        /* \"#utility.yul\":109:174   */\n      tag_246\n      jump\t// in\n    tag_243:\n        /* \"#utility.yul\":100:174   */\n      swap1\n      pop\n        /* \"#utility.yul\":197:203   */\n      dup3\n        /* \"#utility.yul\":190:195   */\n      dup2\n        /* \"#utility.yul\":183:204   */\n      mstore\n        /* \"#utility.yul\":235:239   */\n      0x20\n        /* \"#utility.yul\":228:233   */\n      dup2\n        /* \"#utility.yul\":224:240   */\n      add\n        /* \"#utility.yul\":273:276   */\n      dup5\n        /* \"#utility.yul\":264:270   */\n      dup5\n        /* \"#utility.yul\":259:262   */\n      dup5\n        /* \"#utility.yul\":255:271   */\n      add\n        /* \"#utility.yul\":252:277   */\n      gt\n        /* \"#utility.yul\":249:361   */\n      iszero\n      tag_247\n      jumpi\n        /* \"#utility.yul\":280:359   */\n      tag_248\n      tag_249\n      jump\t// in\n    tag_248:\n        /* \"#utility.yul\":249:361   */\n    tag_247:\n        /* \"#utility.yul\":370:411   */\n      tag_250\n        /* \"#utility.yul\":404:410   */\n      dup5\n        /* \"#utility.yul\":399:402   */\n      dup3\n        /* \"#utility.yul\":394:397   */\n      dup6\n        /* \"#utility.yul\":370:411   */\n      tag_251\n      jump\t// in\n    tag_250:\n        /* \"#utility.yul\":90:417   */\n      pop\n        /* \"#utility.yul\":7:417   */\n      swap4\n      swap3\n      pop\n      pop\n      pop\n      jump\t// out\n        /* \"#utility.yul\":423:562   */\n    tag_252:\n        /* \"#utility.yul\":469:474   */\n      0x00\n        /* \"#utility.yul\":507:513   */\n      dup2\n        /* \"#utility.yul\":494:514   */\n      calldataload\n        /* \"#utility.yul\":485:514   */\n      swap1\n      pop\n        /* \"#utility.yul\":523:556   */\n      tag_254\n        /* \"#utility.yul\":550:555   */\n      dup2\n        /* \"#utility.yul\":523:556   */\n      tag_255\n      jump\t// in\n    tag_254:\n        /* \"#utility.yul\":423:562   */\n      swap3\n      swap2\n      pop\n      pop\n      jump\t// out\n        /* \"#utility.yul\":568:701   */\n    tag_256:\n        /* \"#utility.yul\":611:616   */\n      0x00\n        /* \"#utility.yul\":649:655   */\n      dup2\n        /* \"#utility.yul\":636:656   */\n      calldataload\n        /* \"#utility.yul\":627:656   */\n      swap1\n      pop\n        /* \"#utility.yul\":665:695   */\n      tag_258\n        /* \"#utility.yul\":689:694   */\n      dup2\n        /* \"#utility.yul\":665:695   */\n      tag_259\n      jump\t// in\n    tag_258:\n        /* \"#utility.yul\":568:701   */\n      swap3\n      swap2\n      pop\n      pop\n      jump\t// out\n        /* \"#utility.yul\":707:844   */\n    tag_260:\n        /* \"#utility.yul\":752:757   */\n      0x00\n        /* \"#utility.yul\":790:796   */\n      dup2\n        /* \"#utility.yul\":777:797   */\n      calldataload\n        /* \"#utility.yul\":768:797   */\n      swap1\n      pop\n        /* \"#utility.yul\":806:838   */\n      tag_262\n        /* \"#utility.yul\":832:837   */\n      dup2\n        /* \"#utility.yul\":806:838   */\n      tag_263\n      jump\t// in\n    tag_262:\n        /* \"#utility.yul\":707:844   */\n      swap3\n      swap2\n      pop\n      pop\n      jump\t// out\n        /* \"#utility.yul\":850:991   */\n    tag_264:\n        /* \"#utility.yul\":906:911   */\n      0x00\n        /* \"#utility.yul\":937:943   */\n      dup2\n        /* \"#utility.yul\":931:944   */\n      mload\n        /* \"#utility.yul\":922:944   */\n      swap1\n      pop\n        /* \"#utility.yul\":953:985   */\n      tag_266\n        /* \"#utility.yul\":979:984   */\n      dup2\n        /* \"#utility.yul\":953:985   */\n      tag_263\n      jump\t// in\n    tag_266:\n        /* \"#utility.yul\":850:991   */\n      swap3\n      swap2\n      pop\n      pop\n      jump\t// out\n        /* \"#utility.yul\":1010:1348   */\n    tag_267:\n        /* \"#utility.yul\":1065:1070   */\n      0x00\n        /* \"#utility.yul\":1114:1117   */\n      dup3\n        /* \"#utility.yul\":1107:1111   */\n      0x1f\n        /* \"#utility.yul\":1099:1105   */\n      dup4\n        /* \"#utility.yul\":1095:1112   */\n      add\n        /* \"#utility.yul\":1091:1118   */\n      slt\n        /* \"#utility.yul\":1081:1203   */\n      tag_269\n      jumpi\n        /* \"#utility.yul\":1122:1201   */\n      tag_270\n      tag_271\n      jump\t// in\n    tag_270:\n        /* \"#utility.yul\":1081:1203   */\n    tag_269:\n        /* \"#utility.yul\":1239:1245   */\n      dup2\n        /* \"#utility.yul\":1226:1246   */\n      calldataload\n        /* \"#utility.yul\":1264:1342   */\n      tag_272\n        /* \"#utility.yul\":1338:1341   */\n      dup5\n        /* \"#utility.yul\":1330:1336   */\n      dup3\n        /* \"#utility.yul\":1323:1327   */\n      0x20\n        /* \"#utility.yul\":1315:1321   */\n      dup7\n        /* \"#utility.yul\":1311:1328   */\n      add\n        /* \"#utility.yul\":1264:1342   */\n      tag_241\n      jump\t// in\n    tag_272:\n        /* \"#utility.yul\":1255:1342   */\n      swap2\n      pop\n        /* \"#utility.yul\":1071:1348   */\n      pop\n        /* \"#utility.yul\":1010:1348   */\n      swap3\n      swap2\n      pop\n      pop\n      jump\t// out\n        /* \"#utility.yul\":1354:1493   */\n    tag_273:\n        /* \"#utility.yul\":1400:1405   */\n      0x00\n        /* \"#utility.yul\":1438:1444   */\n      dup2\n        /* \"#utility.yul\":1425:1445   */\n      calldataload\n        /* \"#utility.yul\":1416:1445   */\n      swap1\n      pop\n        /* \"#utility.yul\":1454:1487   */\n      tag_275\n        /* \"#utility.yul\":1481:1486   */\n      dup2\n        /* \"#utility.yul\":1454:1487   */\n      tag_276\n      jump\t// in\n    tag_275:\n        /* \"#utility.yul\":1354:1493   */\n      swap3\n      swap2\n      pop\n      pop\n      jump\t// out\n        /* \"#utility.yul\":1499:1828   */\n    tag_57:\n        /* \"#utility.yul\":1558:1564   */\n      0x00\n        /* \"#utility.yul\":1607:1609   */\n      0x20\n        /* \"#utility.yul\":1595:1604   */\n      dup3\n        /* \"#utility.yul\":1586:1593   */\n      dup5\n        /* \"#utility.yul\":1582:1605   */\n      sub\n        /* \"#utility.yul\":1578:1610   */\n      slt\n        /* \"#utility.yul\":1575:1694   */\n      iszero\n      tag_278\n      jumpi\n        /* \"#utility.yul\":1613:1692   */\n      tag_279\n      tag_280\n      jump\t// in\n    tag_279:\n        /* \"#utility.yul\":1575:1694   */\n    tag_278:\n        /* \"#utility.yul\":1733:1734   */\n      0x00\n        /* \"#utility.yul\":1758:1811   */\n      tag_281\n        /* \"#utility.yul\":1803:1810   */\n      dup5\n        /* \"#utility.yul\":1794:1800   */\n      dup3\n        /* \"#utility.yul\":1783:1792   */\n      dup6\n        /* \"#utility.yul\":1779:1801   */\n      add\n        /* \"#utility.yul\":1758:1811   */\n      tag_252\n      jump\t// in\n    tag_281:\n        /* \"#utility.yul\":1748:1811   */\n      swap2\n      pop\n        /* \"#utility.yul\":1704:1821   */\n      pop\n        /* \"#utility.yul\":1499:1828   */\n      swap3\n      swap2\n      pop\n      pop\n      jump\t// out\n        /* \"#utility.yul\":1834:2308   */\n    tag_77:\n        /* \"#utility.yul\":1902:1908   */\n      0x00\n        /* \"#utility.yul\":1910:1916   */\n      dup1\n        /* \"#utility.yul\":1959:1961   */\n      0x40\n        /* \"#utility.yul\":1947:1956   */\n      dup4\n        /* \"#utility.yul\":1938:1945   */\n      dup6\n        /* \"#utility.yul\":1934:1957   */\n      sub\n        /* \"#utility.yul\":1930:1962   */\n      slt\n        /* \"#utility.yul\":1927:2046   */\n      iszero\n      tag_283\n      jumpi\n        /* \"#utility.yul\":1965:2044   */\n      tag_284\n      tag_280\n      jump\t// in\n    tag_284:\n        /* \"#utility.yul\":1927:2046   */\n    tag_283:\n        /* \"#utility.yul\":2085:2086   */\n      0x00\n        /* \"#utility.yul\":2110:2163   */\n      tag_285\n        /* \"#utility.yul\":2155:2162   */\n      dup6\n        /* \"#utility.yul\":2146:2152   */\n      dup3\n        /* \"#utility.yul\":2135:2144   */\n      dup7\n        /* \"#utility.yul\":2131:2153   */\n      add\n        /* \"#utility.yul\":2110:2163   */\n      tag_252\n      jump\t// in\n    tag_285:\n        /* \"#utility.yul\":2100:2163   */\n      swap3\n      pop\n        /* \"#utility.yul\":2056:2173   */\n      pop\n        /* \"#utility.yul\":2212:2214   */\n      0x20\n        /* \"#utility.yul\":2238:2291   */\n      tag_286\n        /* \"#utility.yul\":2283:2290   */\n      dup6\n        /* \"#utility.yul\":2274:2280   */\n      dup3\n        /* \"#utility.yul\":2263:2272   */\n      dup7\n        /* \"#utility.yul\":2259:2281   */\n      add\n        /* \"#utility.yul\":2238:2291   */\n      tag_252\n      jump\t// in\n    tag_286:\n        /* \"#utility.yul\":2228:2291   */\n      swap2\n      pop\n        /* \"#utility.yul\":2183:2301   */\n      pop\n        /* \"#utility.yul\":1834:2308   */\n      swap3\n      pop\n      swap3\n      swap1\n      pop\n      jump\t// out\n        /* \"#utility.yul\":2314:2933   */\n    tag_46:\n        /* \"#utility.yul\":2391:2397   */\n      0x00\n        /* \"#utility.yul\":2399:2405   */\n      dup1\n        /* \"#utility.yul\":2407:2413   */\n      0x00\n        /* \"#utility.yul\":2456:2458   */\n      0x60\n        /* \"#utility.yul\":2444:2453   */\n      dup5\n        /* \"#utility.yul\":2435:2442   */\n      dup7\n        /* \"#utility.yul\":2431:2454   */\n      sub\n        /* \"#utility.yul\":2427:2459   */\n      slt\n        /* \"#utility.yul\":2424:2543   */\n      iszero\n      tag_288\n      jumpi\n        /* \"#utility.yul\":2462:2541   */\n      tag_289\n      tag_280\n      jump\t// in\n    tag_289:\n        /* \"#utility.yul\":2424:2543   */\n    tag_288:\n        /* \"#utility.yul\":2582:2583   */\n      0x00\n        /* \"#utility.yul\":2607:2660   */\n      tag_290\n        /* \"#utility.yul\":2652:2659   */\n      dup7\n        /* \"#utility.yul\":2643:2649   */\n      dup3\n        /* \"#utility.yul\":2632:2641   */\n      dup8\n        /* \"#utility.yul\":2628:2650   */\n      add\n        /* \"#utility.yul\":2607:2660   */\n      tag_252\n      jump\t// in\n    tag_290:\n        /* \"#utility.yul\":2597:2660   */\n      swap4\n      pop\n        /* \"#utility.yul\":2553:2670   */\n      pop\n        /* \"#utility.yul\":2709:2711   */\n      0x20\n        /* \"#utility.yul\":2735:2788   */\n      tag_291\n        /* \"#utility.yul\":2780:2787   */\n      dup7\n        /* \"#utility.yul\":2771:2777   */\n      dup3\n        /* \"#utility.yul\":2760:2769   */\n      dup8\n        /* \"#utility.yul\":2756:2778   */\n      add\n        /* \"#utility.yul\":2735:2788   */\n      tag_252\n      jump\t// in\n    tag_291:\n        /* \"#utility.yul\":2725:2788   */\n      swap3\n      pop\n        /* \"#utility.yul\":2680:2798   */\n      pop\n        /* \"#utility.yul\":2837:2839   */\n      0x40\n        /* \"#utility.yul\":2863:2916   */\n      tag_292\n        /* \"#utility.yul\":2908:2915   */\n      dup7\n        /* \"#utility.yul\":2899:2905   */\n      dup3\n        /* \"#utility.yul\":2888:2897   */\n      dup8\n        /* \"#utility.yul\":2884:2906   */\n      add\n        /* \"#utility.yul\":2863:2916   */\n      tag_273\n      jump\t// in\n    tag_292:\n        /* \"#utility.yul\":2853:2916   */\n      swap2\n      pop\n        /* \"#utility.yul\":2808:2926   */\n      pop\n        /* \"#utility.yul\":2314:2933   */\n      swap3\n      pop\n      swap3\n      pop\n      swap3\n      jump\t// out\n        /* \"#utility.yul\":2939:3882   */\n    tag_69:\n        /* \"#utility.yul\":3034:3040   */\n      0x00\n        /* \"#utility.yul\":3042:3048   */\n      dup1\n        /* \"#utility.yul\":3050:3056   */\n      0x00\n        /* \"#utility.yul\":3058:3064   */\n      dup1\n        /* \"#utility.yul\":3107:3110   */\n      0x80\n        /* \"#utility.yul\":3095:3104   */\n      dup6\n        /* \"#utility.yul\":3086:3093   */\n      dup8\n        /* \"#utility.yul\":3082:3105   */\n      sub\n        /* \"#utility.yul\":3078:3111   */\n      slt\n        /* \"#utility.yul\":3075:3195   */\n      iszero\n      tag_294\n      jumpi\n        /* \"#utility.yul\":3114:3193   */\n      tag_295\n      tag_280\n      jump\t// in\n    tag_295:\n        /* \"#utility.yul\":3075:3195   */\n    tag_294:\n        /* \"#utility.yul\":3234:3235   */\n      0x00\n        /* \"#utility.yul\":3259:3312   */\n      tag_296\n        /* \"#utility.yul\":3304:3311   */\n      dup8\n        /* \"#utility.yul\":3295:3301   */\n      dup3\n        /* \"#utility.yul\":3284:3293   */\n      dup9\n        /* \"#utility.yul\":3280:3302   */\n      add\n        /* \"#utility.yul\":3259:3312   */\n      tag_252\n      jump\t// in\n    tag_296:\n        /* \"#utility.yul\":3249:3312   */\n      swap5\n      pop\n        /* \"#utility.yul\":3205:3322   */\n      pop\n        /* \"#utility.yul\":3361:3363   */\n      0x20\n        /* \"#utility.yul\":3387:3440   */\n      tag_297\n        /* \"#utility.yul\":3432:3439   */\n      dup8\n        /* \"#utility.yul\":3423:3429   */\n      dup3\n        /* \"#utility.yul\":3412:3421   */\n      dup9\n        /* \"#utility.yul\":3408:3430   */\n      add\n        /* \"#utility.yul\":3387:3440   */\n      tag_252\n      jump\t// in\n    tag_297:\n        /* \"#utility.yul\":3377:3440   */\n      swap4\n      pop\n        /* \"#utility.yul\":3332:3450   */\n      pop\n        /* \"#utility.yul\":3489:3491   */\n      0x40\n        /* \"#utility.yul\":3515:3568   */\n      tag_298\n        /* \"#utility.yul\":3560:3567   */\n      dup8\n        /* \"#utility.yul\":3551:3557   */\n      dup3\n        /* \"#utility.yul\":3540:3549   */\n      dup9\n        /* \"#utility.yul\":3536:3558   */\n      add\n        /* \"#utility.yul\":3515:3568   */\n      tag_273\n      jump\t// in\n    tag_298:\n        /* \"#utility.yul\":3505:3568   */\n      swap3\n      pop\n        /* \"#utility.yul\":3460:3578   */\n      pop\n        /* \"#utility.yul\":3645:3647   */\n      0x60\n        /* \"#utility.yul\":3634:3643   */\n      dup6\n        /* \"#utility.yul\":3630:3648   */\n      add\n        /* \"#utility.yul\":3617:3649   */\n      calldataload\n        /* \"#utility.yul\":3676:3694   */\n      0xffffffffffffffff\n        /* \"#utility.yul\":3668:3674   */\n      dup2\n        /* \"#utility.yul\":3665:3695   */\n      gt\n        /* \"#utility.yul\":3662:3779   */\n      iszero\n      tag_299\n      jumpi\n        /* \"#utility.yul\":3698:3777   */\n      tag_300\n      tag_301\n      jump\t// in\n    tag_300:\n        /* \"#utility.yul\":3662:3779   */\n    tag_299:\n        /* \"#utility.yul\":3803:3865   */\n      tag_302\n        /* \"#utility.yul\":3857:3864   */\n      dup8\n        /* \"#utility.yul\":3848:3854   */\n      dup3\n        /* \"#utility.yul\":3837:3846   */\n      dup9\n        /* \"#utility.yul\":3833:3855   */\n      add\n        /* \"#utility.yul\":3803:3865   */\n      tag_267\n      jump\t// in\n    tag_302:\n        /* \"#utility.yul\":3793:3865   */\n      swap2\n      pop\n        /* \"#utility.yul\":3588:3875   */\n      pop\n        /* \"#utility.yul\":2939:3882   */\n      swap3\n      swap6\n      swap2\n      swap5\n      pop\n      swap3\n      pop\n      jump\t// out\n        /* \"#utility.yul\":3888:4356   */\n    tag_65:\n        /* \"#utility.yul\":3953:3959   */\n      0x00\n        /* \"#utility.yul\":3961:3967   */\n      dup1\n        /* \"#utility.yul\":4010:4012   */\n      0x40\n        /* \"#utility.yul\":3998:4007   */\n      dup4\n        /* \"#utility.yul\":3989:3996   */\n      dup6\n        /* \"#utility.yul\":3985:4008   */\n      sub\n        /* \"#utility.yul\":3981:4013   */\n      slt\n        /* \"#utility.yul\":3978:4097   */\n      iszero\n      tag_304\n      jumpi\n        /* \"#utility.yul\":4016:4095   */\n      tag_305\n      tag_280\n      jump\t// in\n    tag_305:\n        /* \"#utility.yul\":3978:4097   */\n    tag_304:\n        /* \"#utility.yul\":4136:4137   */\n      0x00\n        /* \"#utility.yul\":4161:4214   */\n      tag_306\n        /* \"#utility.yul\":4206:4213   */\n      dup6\n        /* \"#utility.yul\":4197:4203   */\n      dup3\n        /* \"#utility.yul\":4186:4195   */\n      dup7\n        /* \"#utility.yul\":4182:4204   */\n      add\n        /* \"#utility.yul\":4161:4214   */\n      tag_252\n      jump\t// in\n    tag_306:\n        /* \"#utility.yul\":4151:4214   */\n      swap3\n      pop\n        /* \"#utility.yul\":4107:4224   */\n      pop\n        /* \"#utility.yul\":4263:4265   */\n      0x20\n        /* \"#utility.yul\":4289:4339   */\n      tag_307\n        /* \"#utility.yul\":4331:4338   */\n      dup6\n        /* \"#utility.yul\":4322:4328   */\n      dup3\n        /* \"#utility.yul\":4311:4320   */\n      dup7\n        /* \"#utility.yul\":4307:4329   */\n      add\n        /* \"#utility.yul\":4289:4339   */\n      tag_256\n      jump\t// in\n    tag_307:\n        /* \"#utility.yul\":4279:4339   */\n      swap2\n      pop\n        /* \"#utility.yul\":4234:4349   */\n      pop\n        /* \"#utility.yul\":3888:4356   */\n      swap3\n      pop\n      swap3\n      swap1\n      pop\n      jump\t// out\n        /* \"#utility.yul\":4362:4836   */\n    tag_38:\n        /* \"#utility.yul\":4430:4436   */\n      0x00\n        /* \"#utility.yul\":4438:4444   */\n      dup1\n        /* \"#utility.yul\":4487:4489   */\n      0x40\n        /* \"#utility.yul\":4475:4484   */\n      dup4\n        /* \"#utility.yul\":4466:4473   */\n      dup6\n        /* \"#utility.yul\":4462:4485   */\n      sub\n        /* \"#utility.yul\":4458:4490   */\n      slt\n        /* \"#utility.yul\":4455:4574   */\n      iszero\n      tag_309\n      jumpi\n        /* \"#utility.yul\":4493:4572   */\n      tag_310\n      tag_280\n      jump\t// in\n    tag_310:\n        /* \"#utility.yul\":4455:4574   */\n    tag_309:\n        /* \"#utility.yul\":4613:4614   */\n      0x00\n        /* \"#utility.yul\":4638:4691   */\n      tag_311\n        /* \"#utility.yul\":4683:4690   */\n      dup6\n        /* \"#utility.yul\":4674:4680   */\n      dup3\n        /* \"#utility.yul\":4663:4672   */\n      dup7\n        /* \"#utility.yul\":4659:4681   */\n      add\n        /* \"#utility.yul\":4638:4691   */\n      tag_252\n      jump\t// in\n    tag_311:\n        /* \"#utility.yul\":4628:4691   */\n      swap3\n      pop\n        /* \"#utility.yul\":4584:4701   */\n      pop\n        /* \"#utility.yul\":4740:4742   */\n      0x20\n        /* \"#utility.yul\":4766:4819   */\n      tag_312\n        /* \"#utility.yul\":4811:4818   */\n      dup6\n        /* \"#utility.yul\":4802:4808   */\n      dup3\n        /* \"#utility.yul\":4791:4800   */\n      dup7\n        /* \"#utility.yul\":4787:4809   */\n      add\n        /* \"#utility.yul\":4766:4819   */\n      tag_273\n      jump\t// in\n    tag_312:\n        /* \"#utility.yul\":4756:4819   */\n      swap2\n      pop\n        /* \"#utility.yul\":4711:4829   */\n      pop\n        /* \"#utility.yul\":4362:4836   */\n      swap3\n      pop\n      swap3\n      swap1\n      pop\n      jump\t// out\n        /* \"#utility.yul\":4842:5169   */\n    tag_22:\n        /* \"#utility.yul\":4900:4906   */\n      0x00\n        /* \"#utility.yul\":4949:4951   */\n      0x20\n        /* \"#utility.yul\":4937:4946   */\n      dup3\n        /* \"#utility.yul\":4928:4935   */\n      dup5\n        /* \"#utility.yul\":4924:4947   */\n      sub\n        /* \"#utility.yul\":4920:4952   */\n      slt\n        /* \"#utility.yul\":4917:5036   */\n      iszero\n      tag_314\n      jumpi\n        /* \"#utility.yul\":4955:5034   */\n      tag_315\n      tag_280\n      jump\t// in\n    tag_315:\n        /* \"#utility.yul\":4917:5036   */\n    tag_314:\n        /* \"#utility.yul\":5075:5076   */\n      0x00\n        /* \"#utility.yul\":5100:5152   */\n      tag_316\n        /* \"#utility.yul\":5144:5151   */\n      dup5\n        /* \"#utility.yul\":5135:5141   */\n      dup3\n        /* \"#utility.yul\":5124:5133   */\n      dup6\n        /* \"#utility.yul\":5120:5142   */\n      add\n        /* \"#utility.yul\":5100:5152   */\n      tag_260\n      jump\t// in\n    tag_316:\n        /* \"#utility.yul\":5090:5152   */\n      swap2\n      pop\n        /* \"#utility.yul\":5046:5162   */\n      pop\n        /* \"#utility.yul\":4842:5169   */\n      swap3\n      swap2\n      pop\n      pop\n      jump\t// out\n        /* \"#utility.yul\":5175:5524   */\n    tag_198:\n        /* \"#utility.yul\":5244:5250   */\n      0x00\n        /* \"#utility.yul\":5293:5295   */\n      0x20\n        /* \"#utility.yul\":5281:5290   */\n      dup3\n        /* \"#utility.yul\":5272:5279   */\n      dup5\n        /* \"#utility.yul\":5268:5291   */\n      sub\n        /* \"#utility.yul\":5264:5296   */\n      slt\n        /* \"#utility.yul\":5261:5380   */\n      iszero\n      tag_318\n      jumpi\n        /* \"#utility.yul\":5299:5378   */\n      tag_319\n      tag_280\n      jump\t// in\n    tag_319:\n        /* \"#utility.yul\":5261:5380   */\n    tag_318:\n        /* \"#utility.yul\":5419:5420   */\n      0x00\n        /* \"#utility.yul\":5444:5507   */\n      tag_320\n        /* \"#utility.yul\":5499:5506   */\n      dup5\n        /* \"#utility.yul\":5490:5496   */\n      dup3\n        /* \"#utility.yul\":5479:5488   */\n      dup6\n        /* \"#utility.yul\":5475:5497   */\n      add\n        /* \"#utility.yul\":5444:5507   */\n      tag_264\n      jump\t// in\n    tag_320:\n        /* \"#utility.yul\":5434:5507   */\n      swap2\n      pop\n        /* \"#utility.yul\":5390:5517   */\n      pop\n        /* \"#utility.yul\":5175:5524   */\n      swap3\n      swap2\n      pop\n      pop\n      jump\t// out\n        /* \"#utility.yul\":5530:5859   */\n    tag_32:\n        /* \"#utility.yul\":5589:5595   */\n      0x00\n        /* \"#utility.yul\":5638:5640   */\n      0x20\n        /* \"#utility.yul\":5626:5635   */\n      dup3\n        /* \"#utility.yul\":5617:5624   */\n      dup5\n        /* \"#utility.yul\":5613:5636   */\n      sub\n        /* \"#utility.yul\":5609:5641   */\n      slt\n        /* \"#utility.yul\":5606:5725   */\n      iszero\n      tag_322\n      jumpi\n        /* \"#utility.yul\":5644:5723   */\n      tag_323\n      tag_280\n      jump\t// in\n    tag_323:\n        /* \"#utility.yul\":5606:5725   */\n    tag_322:\n        /* \"#utility.yul\":5764:5765   */\n      0x00\n        /* \"#utility.yul\":5789:5842   */\n      tag_324\n        /* \"#utility.yul\":5834:5841   */\n      dup5\n        /* \"#utility.yul\":5825:5831   */\n      dup3\n        /* \"#utility.yul\":5814:5823   */\n      dup6\n        /* \"#utility.yul\":5810:5832   */\n      add\n        /* \"#utility.yul\":5789:5842   */\n      tag_273\n      jump\t// in\n    tag_324:\n        /* \"#utility.yul\":5779:5842   */\n      swap2\n      pop\n        /* \"#utility.yul\":5735:5852   */\n      pop\n        /* \"#utility.yul\":5530:5859   */\n      swap3\n      swap2\n      pop\n      pop\n      jump\t// out\n        /* \"#utility.yul\":5865:5983   */\n    tag_325:\n        /* \"#utility.yul\":5952:5976   */\n      tag_327\n        /* \"#utility.yul\":5970:5975   */\n      dup2\n        /* \"#utility.yul\":5952:5976   */\n      tag_328\n      jump\t// in\n    tag_327:\n        /* \"#utility.yul\":5947:5950   */\n      dup3\n        /* \"#utility.yul\":5940:5977   */\n      mstore\n        /* \"#utility.yul\":5865:5983   */\n      pop\n      pop\n      jump\t// out\n        /* \"#utility.yul\":5989:6098   */\n    tag_329:\n        /* \"#utility.yul\":6070:6091   */\n      tag_331\n        /* \"#utility.yul\":6085:6090   */\n      dup2\n        /* \"#utility.yul\":6070:6091   */\n      tag_332\n      jump\t// in\n    tag_331:\n        /* \"#utility.yul\":6065:6068   */\n      dup3\n        /* \"#utility.yul\":6058:6092   */\n      mstore\n        /* \"#utility.yul\":5989:6098   */\n      pop\n      pop\n      jump\t// out\n        /* \"#utility.yul\":6104:6464   */\n    tag_333:\n        /* \"#utility.yul\":6190:6193   */\n      0x00\n        /* \"#utility.yul\":6218:6256   */\n      tag_335\n        /* \"#utility.yul\":6250:6255   */\n      dup3\n        /* \"#utility.yul\":6218:6256   */\n      tag_336\n      jump\t// in\n    tag_335:\n        /* \"#utility.yul\":6272:6342   */\n      tag_337\n        /* \"#utility.yul\":6335:6341   */\n      dup2\n        /* \"#utility.yul\":6330:6333   */\n      dup6\n        /* \"#utility.yul\":6272:6342   */\n      tag_338\n      jump\t// in\n    tag_337:\n        /* \"#utility.yul\":6265:6342   */\n      swap4\n      pop\n        /* \"#utility.yul\":6351:6403   */\n      tag_339\n        /* \"#utility.yul\":6396:6402   */\n      dup2\n        /* \"#utility.yul\":6391:6394   */\n      dup6\n        /* \"#utility.yul\":6384:6388   */\n      0x20\n        /* \"#utility.yul\":6377:6382   */\n      dup7\n        /* \"#utility.yul\":6373:6389   */\n      add\n        /* \"#utility.yul\":6351:6403   */\n      tag_340\n      jump\t// in\n    tag_339:\n        /* \"#utility.yul\":6428:6457   */\n      tag_341\n        /* \"#utility.yul\":6450:6456   */\n      dup2\n        /* \"#utility.yul\":6428:6457   */\n      tag_342\n      jump\t// in\n    tag_341:\n        /* \"#utility.yul\":6423:6426   */\n      dup5\n        /* \"#utility.yul\":6419:6458   */\n      add\n        /* \"#utility.yul\":6412:6458   */\n      swap2\n      pop\n        /* \"#utility.yul\":6194:6464   */\n      pop\n        /* \"#utility.yul\":6104:6464   */\n      swap3\n      swap2\n      pop\n      pop\n      jump\t// out\n        /* \"#utility.yul\":6470:6834   */\n    tag_343:\n        /* \"#utility.yul\":6558:6561   */\n      0x00\n        /* \"#utility.yul\":6586:6625   */\n      tag_345\n        /* \"#utility.yul\":6619:6624   */\n      dup3\n        /* \"#utility.yul\":6586:6625   */\n      tag_346\n      jump\t// in\n    tag_345:\n        /* \"#utility.yul\":6641:6712   */\n      tag_347\n        /* \"#utility.yul\":6705:6711   */\n      dup2\n        /* \"#utility.yul\":6700:6703   */\n      dup6\n        /* \"#utility.yul\":6641:6712   */\n      tag_348\n      jump\t// in\n    tag_347:\n        /* \"#utility.yul\":6634:6712   */\n      swap4\n      pop\n        /* \"#utility.yul\":6721:6773   */\n      tag_349\n        /* \"#utility.yul\":6766:6772   */\n      dup2\n        /* \"#utility.yul\":6761:6764   */\n      dup6\n        /* \"#utility.yul\":6754:6758   */\n      0x20\n        /* \"#utility.yul\":6747:6752   */\n      dup7\n        /* \"#utility.yul\":6743:6759   */\n      add\n        /* \"#utility.yul\":6721:6773   */\n      tag_340\n      jump\t// in\n    tag_349:\n        /* \"#utility.yul\":6798:6827   */\n      tag_350\n        /* \"#utility.yul\":6820:6826   */\n      dup2\n        /* \"#utility.yul\":6798:6827   */\n      tag_342\n      jump\t// in\n    tag_350:\n        /* \"#utility.yul\":6793:6796   */\n      dup5\n        /* \"#utility.yul\":6789:6828   */\n      add\n        /* \"#utility.yul\":6782:6828   */\n      swap2\n      pop\n        /* \"#utility.yul\":6562:6834   */\n      pop\n        /* \"#utility.yul\":6470:6834   */\n      swap3\n      swap2\n      pop\n      pop\n      jump\t// out\n        /* \"#utility.yul\":6840:7217   */\n    tag_351:\n        /* \"#utility.yul\":6946:6949   */\n      0x00\n        /* \"#utility.yul\":6974:7013   */\n      tag_353\n        /* \"#utility.yul\":7007:7012   */\n      dup3\n        /* \"#utility.yul\":6974:7013   */\n      tag_346\n      jump\t// in\n    tag_353:\n        /* \"#utility.yul\":7029:7118   */\n      tag_354\n        /* \"#utility.yul\":7111:7117   */\n      dup2\n        /* \"#utility.yul\":7106:7109   */\n      dup6\n        /* \"#utility.yul\":7029:7118   */\n      tag_355\n      jump\t// in\n    tag_354:\n        /* \"#utility.yul\":7022:7118   */\n      swap4\n      pop\n        /* \"#utility.yul\":7127:7179   */\n      tag_356\n        /* \"#utility.yul\":7172:7178   */\n      dup2\n        /* \"#utility.yul\":7167:7170   */\n      dup6\n        /* \"#utility.yul\":7160:7164   */\n      0x20\n        /* \"#utility.yul\":7153:7158   */\n      dup7\n        /* \"#utility.yul\":7149:7165   */\n      add\n        /* \"#utility.yul\":7127:7179   */\n      tag_340\n      jump\t// in\n    tag_356:\n        /* \"#utility.yul\":7204:7210   */\n      dup1\n        /* \"#utility.yul\":7199:7202   */\n      dup5\n        /* \"#utility.yul\":7195:7211   */\n      add\n        /* \"#utility.yul\":7188:7211   */\n      swap2\n      pop\n        /* \"#utility.yul\":6950:7217   */\n      pop\n        /* \"#utility.yul\":6840:7217   */\n      swap3\n      swap2\n      pop\n      pop\n      jump\t// out\n        /* \"#utility.yul\":7223:7341   */\n    tag_357:\n        /* \"#utility.yul\":7310:7334   */\n      tag_359\n        /* \"#utility.yul\":7328:7333   */\n      dup2\n        /* \"#utility.yul\":7310:7334   */\n      tag_360\n      jump\t// in\n    tag_359:\n        /* \"#utility.yul\":7305:7308   */\n      dup3\n        /* \"#utility.yul\":7298:7335   */\n      mstore\n        /* \"#utility.yul\":7223:7341   */\n      pop\n      pop\n      jump\t// out\n        /* \"#utility.yul\":7347:7782   */\n    tag_150:\n        /* \"#utility.yul\":7527:7530   */\n      0x00\n        /* \"#utility.yul\":7549:7644   */\n      tag_362\n        /* \"#utility.yul\":7640:7643   */\n      dup3\n        /* \"#utility.yul\":7631:7637   */\n      dup6\n        /* \"#utility.yul\":7549:7644   */\n      tag_351\n      jump\t// in\n    tag_362:\n        /* \"#utility.yul\":7542:7644   */\n      swap2\n      pop\n        /* \"#utility.yul\":7661:7756   */\n      tag_363\n        /* \"#utility.yul\":7752:7755   */\n      dup3\n        /* \"#utility.yul\":7743:7749   */\n      dup5\n        /* \"#utility.yul\":7661:7756   */\n      tag_351\n      jump\t// in\n    tag_363:\n        /* \"#utility.yul\":7654:7756   */\n      swap2\n      pop\n        /* \"#utility.yul\":7773:7776   */\n      dup2\n        /* \"#utility.yul\":7766:7776   */\n      swap1\n      pop\n        /* \"#utility.yul\":7347:7782   */\n      swap4\n      swap3\n      pop\n      pop\n      pop\n      jump\t// out\n        /* \"#utility.yul\":7788:8010   */\n    tag_35:\n        /* \"#utility.yul\":7881:7885   */\n      0x00\n        /* \"#utility.yul\":7919:7921   */\n      0x20\n        /* \"#utility.yul\":7908:7917   */\n      dup3\n        /* \"#utility.yul\":7904:7922   */\n      add\n        /* \"#utility.yul\":7896:7922   */\n      swap1\n      pop\n        /* \"#utility.yul\":7932:8003   */\n      tag_365\n        /* \"#utility.yul\":8000:8001   */\n      0x00\n        /* \"#utility.yul\":7989:7998   */\n      dup4\n        /* \"#utility.yul\":7985:8002   */\n      add\n        /* \"#utility.yul\":7976:7982   */\n      dup5\n        /* \"#utility.yul\":7932:8003   */\n      tag_325\n      jump\t// in\n    tag_365:\n        /* \"#utility.yul\":7788:8010   */\n      swap3\n      swap2\n      pop\n      pop\n      jump\t// out\n        /* \"#utility.yul\":8016:8656   */\n    tag_194:\n        /* \"#utility.yul\":8211:8215   */\n      0x00\n        /* \"#utility.yul\":8249:8252   */\n      0x80\n        /* \"#utility.yul\":8238:8247   */\n      dup3\n        /* \"#utility.yul\":8234:8253   */\n      add\n        /* \"#utility.yul\":8226:8253   */\n      swap1\n      pop\n        /* \"#utility.yul\":8263:8334   */\n      tag_367\n        /* \"#utility.yul\":8331:8332   */\n      0x00\n        /* \"#utility.yul\":8320:8329   */\n      dup4\n        /* \"#utility.yul\":8316:8333   */\n      add\n        /* \"#utility.yul\":8307:8313   */\n      dup8\n        /* \"#utility.yul\":8263:8334   */\n      tag_325\n      jump\t// in\n    tag_367:\n        /* \"#utility.yul\":8344:8416   */\n      tag_368\n        /* \"#utility.yul\":8412:8414   */\n      0x20\n        /* \"#utility.yul\":8401:8410   */\n      dup4\n        /* \"#utility.yul\":8397:8415   */\n      add\n        /* \"#utility.yul\":8388:8394   */\n      dup7\n        /* \"#utility.yul\":8344:8416   */\n      tag_325\n      jump\t// in\n    tag_368:\n        /* \"#utility.yul\":8426:8498   */\n      tag_369\n        /* \"#utility.yul\":8494:8496   */\n      0x40\n        /* \"#utility.yul\":8483:8492   */\n      dup4\n        /* \"#utility.yul\":8479:8497   */\n      add\n        /* \"#utility.yul\":8470:8476   */\n      dup6\n        /* \"#utility.yul\":8426:8498   */\n      tag_357\n      jump\t// in\n    tag_369:\n        /* \"#utility.yul\":8545:8554   */\n      dup2\n        /* \"#utility.yul\":8539:8543   */\n      dup2\n        /* \"#utility.yul\":8535:8555   */\n      sub\n        /* \"#utility.yul\":8530:8532   */\n      0x60\n        /* \"#utility.yul\":8519:8528   */\n      dup4\n        /* \"#utility.yul\":8515:8533   */\n      add\n        /* \"#utility.yul\":8508:8556   */\n      mstore\n        /* \"#utility.yul\":8573:8649   */\n      tag_370\n        /* \"#utility.yul\":8644:8648   */\n      dup2\n        /* \"#utility.yul\":8635:8641   */\n      dup5\n        /* \"#utility.yul\":8573:8649   */\n      tag_333\n      jump\t// in\n    tag_370:\n        /* \"#utility.yul\":8565:8649   */\n      swap1\n      pop\n        /* \"#utility.yul\":8016:8656   */\n      swap6\n      swap5\n      pop\n      pop\n      pop\n      pop\n      pop\n      jump\t// out\n        /* \"#utility.yul\":8662:8872   */\n    tag_25:\n        /* \"#utility.yul\":8749:8753   */\n      0x00\n        /* \"#utility.yul\":8787:8789   */\n      0x20\n        /* \"#utility.yul\":8776:8785   */\n      dup3\n        /* \"#utility.yul\":8772:8790   */\n      add\n        /* \"#utility.yul\":8764:8790   */\n      swap1\n      pop\n        /* \"#utility.yul\":8800:8865   */\n      tag_372\n        /* \"#utility.yul\":8862:8863   */\n      0x00\n        /* \"#utility.yul\":8851:8860   */\n      dup4\n        /* \"#utility.yul\":8847:8864   */\n      add\n        /* \"#utility.yul\":8838:8844   */\n      dup5\n        /* \"#utility.yul\":8800:8865   */\n      tag_329\n      jump\t// in\n    tag_372:\n        /* \"#utility.yul\":8662:8872   */\n      swap3\n      swap2\n      pop\n      pop\n      jump\t// out\n        /* \"#utility.yul\":8878:9191   */\n    tag_29:\n        /* \"#utility.yul\":8991:8995   */\n      0x00\n        /* \"#utility.yul\":9029:9031   */\n      0x20\n        /* \"#utility.yul\":9018:9027   */\n      dup3\n        /* \"#utility.yul\":9014:9032   */\n      add\n        /* \"#utility.yul\":9006:9032   */\n      swap1\n      pop\n        /* \"#utility.yul\":9078:9087   */\n      dup2\n        /* \"#utility.yul\":9072:9076   */\n      dup2\n        /* \"#utility.yul\":9068:9088   */\n      sub\n        /* \"#utility.yul\":9064:9065   */\n      0x00\n        /* \"#utility.yul\":9053:9062   */\n      dup4\n        /* \"#utility.yul\":9049:9066   */\n      add\n        /* \"#utility.yul\":9042:9089   */\n      mstore\n        /* \"#utility.yul\":9106:9184   */\n      tag_374\n        /* \"#utility.yul\":9179:9183   */\n      dup2\n        /* \"#utility.yul\":9170:9176   */\n      dup5\n        /* \"#utility.yul\":9106:9184   */\n      tag_343\n      jump\t// in\n    tag_374:\n        /* \"#utility.yul\":9098:9184   */\n      swap1\n      pop\n        /* \"#utility.yul\":8878:9191   */\n      swap3\n      swap2\n      pop\n      pop\n      jump\t// out\n        /* \"#utility.yul\":9197:9419   */\n    tag_43:\n        /* \"#utility.yul\":9290:9294   */\n      0x00\n        /* \"#utility.yul\":9328:9330   */\n      0x20\n        /* \"#utility.yul\":9317:9326   */\n      dup3\n        /* \"#utility.yul\":9313:9331   */\n      add\n        /* \"#utility.yul\":9305:9331   */\n      swap1\n      pop\n        /* \"#utility.yul\":9341:9412   */\n      tag_376\n        /* \"#utility.yul\":9409:9410   */\n      0x00\n        /* \"#utility.yul\":9398:9407   */\n      dup4\n        /* \"#utility.yul\":9394:9411   */\n      add\n        /* \"#utility.yul\":9385:9391   */\n      dup5\n        /* \"#utility.yul\":9341:9412   */\n      tag_357\n      jump\t// in\n    tag_376:\n        /* \"#utility.yul\":9197:9419   */\n      swap3\n      swap2\n      pop\n      pop\n      jump\t// out\n        /* \"#utility.yul\":9425:9554   */\n    tag_246:\n        /* \"#utility.yul\":9459:9465   */\n      0x00\n        /* \"#utility.yul\":9486:9506   */\n      tag_378\n      tag_379\n      jump\t// in\n    tag_378:\n        /* \"#utility.yul\":9476:9506   */\n      swap1\n      pop\n        /* \"#utility.yul\":9515:9548   */\n      tag_380\n        /* \"#utility.yul\":9543:9547   */\n      dup3\n        /* \"#utility.yul\":9535:9541   */\n      dup3\n        /* \"#utility.yul\":9515:9548   */\n      tag_381\n      jump\t// in\n    tag_380:\n        /* \"#utility.yul\":9425:9554   */\n      swap2\n      swap1\n      pop\n      jump\t// out\n        /* \"#utility.yul\":9560:9635   */\n    tag_379:\n        /* \"#utility.yul\":9593:9599   */\n      0x00\n        /* \"#utility.yul\":9626:9628   */\n      0x40\n        /* \"#utility.yul\":9620:9629   */\n      mload\n        /* \"#utility.yul\":9610:9629   */\n      swap1\n      pop\n        /* \"#utility.yul\":9560:9635   */\n      swap1\n      jump\t// out\n        /* \"#utility.yul\":9641:9948   */\n    tag_245:\n        /* \"#utility.yul\":9702:9706   */\n      0x00\n        /* \"#utility.yul\":9792:9810   */\n      0xffffffffffffffff\n        /* \"#utility.yul\":9784:9790   */\n      dup3\n        /* \"#utility.yul\":9781:9811   */\n      gt\n        /* \"#utility.yul\":9778:9834   */\n      iszero\n      tag_384\n      jumpi\n        /* \"#utility.yul\":9814:9832   */\n      tag_385\n      tag_224\n      jump\t// in\n    tag_385:\n        /* \"#utility.yul\":9778:9834   */\n    tag_384:\n        /* \"#utility.yul\":9852:9881   */\n      tag_386\n        /* \"#utility.yul\":9874:9880   */\n      dup3\n        /* \"#utility.yul\":9852:9881   */\n      tag_342\n      jump\t// in\n    tag_386:\n        /* \"#utility.yul\":9844:9881   */\n      swap1\n      pop\n        /* \"#utility.yul\":9936:9940   */\n      0x20\n        /* \"#utility.yul\":9930:9934   */\n      dup2\n        /* \"#utility.yul\":9926:9941   */\n      add\n        /* \"#utility.yul\":9918:9941   */\n      swap1\n      pop\n        /* \"#utility.yul\":9641:9948   */\n      swap2\n      swap1\n      pop\n      jump\t// out\n        /* \"#utility.yul\":9954:10052   */\n    tag_336:\n        /* \"#utility.yul\":10005:10011   */\n      0x00\n        /* \"#utility.yul\":10039:10044   */\n      dup2\n        /* \"#utility.yul\":10033:10045   */\n      mload\n        /* \"#utility.yul\":10023:10045   */\n      swap1\n      pop\n        /* \"#utility.yul\":9954:10052   */\n      swap2\n      swap1\n      pop\n      jump\t// out\n        /* \"#utility.yul\":10058:10157   */\n    tag_346:\n        /* \"#utility.yul\":10110:10116   */\n      0x00\n        /* \"#utility.yul\":10144:10149   */\n      dup2\n        /* \"#utility.yul\":10138:10150   */\n      mload\n        /* \"#utility.yul\":10128:10150   */\n      swap1\n      pop\n        /* \"#utility.yul\":10058:10157   */\n      swap2\n      swap1\n      pop\n      jump\t// out\n        /* \"#utility.yul\":10163:10331   */\n    tag_338:\n        /* \"#utility.yul\":10246:10257   */\n      0x00\n        /* \"#utility.yul\":10280:10286   */\n      dup3\n        /* \"#utility.yul\":10275:10278   */\n      dup3\n        /* \"#utility.yul\":10268:10287   */\n      mstore\n        /* \"#utility.yul\":10320:10324   */\n      0x20\n        /* \"#utility.yul\":10315:10318   */\n      dup3\n        /* \"#utility.yul\":10311:10325   */\n      add\n        /* \"#utility.yul\":10296:10325   */\n      swap1\n      pop\n        /* \"#utility.yul\":10163:10331   */\n      swap3\n      swap2\n      pop\n      pop\n      jump\t// out\n        /* \"#utility.yul\":10337:10506   */\n    tag_348:\n        /* \"#utility.yul\":10421:10432   */\n      0x00\n        /* \"#utility.yul\":10455:10461   */\n      dup3\n        /* \"#utility.yul\":10450:10453   */\n      dup3\n        /* \"#utility.yul\":10443:10462   */\n      mstore\n        /* \"#utility.yul\":10495:10499   */\n      0x20\n        /* \"#utility.yul\":10490:10493   */\n      dup3\n        /* \"#utility.yul\":10486:10500   */\n      add\n        /* \"#utility.yul\":10471:10500   */\n      swap1\n      pop\n        /* \"#utility.yul\":10337:10506   */\n      swap3\n      swap2\n      pop\n      pop\n      jump\t// out\n        /* \"#utility.yul\":10512:10660   */\n    tag_355:\n        /* \"#utility.yul\":10614:10625   */\n      0x00\n        /* \"#utility.yul\":10651:10654   */\n      dup2\n        /* \"#utility.yul\":10636:10654   */\n      swap1\n      pop\n        /* \"#utility.yul\":10512:10660   */\n      swap3\n      swap2\n      pop\n      pop\n      jump\t// out\n        /* \"#utility.yul\":10666:10971   */\n    tag_233:\n        /* \"#utility.yul\":10706:10709   */\n      0x00\n        /* \"#utility.yul\":10725:10745   */\n      tag_393\n        /* \"#utility.yul\":10743:10744   */\n      dup3\n        /* \"#utility.yul\":10725:10745   */\n      tag_360\n      jump\t// in\n    tag_393:\n        /* \"#utility.yul\":10720:10745   */\n      swap2\n      pop\n        /* \"#utility.yul\":10759:10779   */\n      tag_394\n        /* \"#utility.yul\":10777:10778   */\n      dup4\n        /* \"#utility.yul\":10759:10779   */\n      tag_360\n      jump\t// in\n    tag_394:\n        /* \"#utility.yul\":10754:10779   */\n      swap3\n      pop\n        /* \"#utility.yul\":10913:10914   */\n      dup3\n        /* \"#utility.yul\":10845:10911   */\n      0xffffffffffffffffffffffffffffffffffffffffffffffffffffffffffffffff\n        /* \"#utility.yul\":10841:10915   */\n      sub\n        /* \"#utility.yul\":10838:10839   */\n      dup3\n        /* \"#utility.yul\":10835:10916   */\n      gt\n        /* \"#utility.yul\":10832:10939   */\n      iszero\n      tag_395\n      jumpi\n        /* \"#utility.yul\":10919:10937   */\n      tag_396\n      tag_397\n      jump\t// in\n    tag_396:\n        /* \"#utility.yul\":10832:10939   */\n    tag_395:\n        /* \"#utility.yul\":10963:10964   */\n      dup3\n        /* \"#utility.yul\":10960:10961   */\n      dup3\n        /* \"#utility.yul\":10956:10965   */\n      add\n        /* \"#utility.yul\":10949:10965   */\n      swap1\n      pop\n        /* \"#utility.yul\":10666:10971   */\n      swap3\n      swap2\n      pop\n      pop\n      jump\t// out\n        /* \"#utility.yul\":10977:11162   */\n    tag_221:\n        /* \"#utility.yul\":11017:11018   */\n      0x00\n        /* \"#utility.yul\":11034:11054   */\n      tag_399\n        /* \"#utility.yul\":11052:11053   */\n      dup3\n        /* \"#utility.yul\":11034:11054   */\n      tag_360\n      jump\t// in\n    tag_399:\n        /* \"#utility.yul\":11029:11054   */\n      swap2\n      pop\n        /* \"#utility.yul\":11068:11088   */\n      tag_400\n        /* \"#utility.yul\":11086:11087   */\n      dup4\n        /* \"#utility.yul\":11068:11088   */\n      tag_360\n      jump\t// in\n    tag_400:\n        /* \"#utility.yul\":11063:11088   */\n      swap3\n      pop\n        /* \"#utility.yul\":11107:11108   */\n      dup3\n        /* \"#utility.yul\":11097:11132   */\n      tag_401\n      jumpi\n        /* \"#utility.yul\":11112:11130   */\n      tag_402\n      tag_403\n      jump\t// in\n    tag_402:\n        /* \"#utility.yul\":11097:11132   */\n    tag_401:\n        /* \"#utility.yul\":11154:11155   */\n      dup3\n        /* \"#utility.yul\":11151:11152   */\n      dup3\n        /* \"#utility.yul\":11147:11156   */\n      div\n        /* \"#utility.yul\":11142:11156   */\n      swap1\n      pop\n        /* \"#utility.yul\":10977:11162   */\n      swap3\n      swap2\n      pop\n      pop\n      jump\t// out\n        /* \"#utility.yul\":11168:11359   */\n    tag_229:\n        /* \"#utility.yul\":11208:11212   */\n      0x00\n        /* \"#utility.yul\":11228:11248   */\n      tag_405\n        /* \"#utility.yul\":11246:11247   */\n      dup3\n        /* \"#utility.yul\":11228:11248   */\n      tag_360\n      jump\t// in\n    tag_405:\n        /* \"#utility.yul\":11223:11248   */\n      swap2\n      pop\n        /* \"#utility.yul\":11262:11282   */\n      tag_406\n        /* \"#utility.yul\":11280:11281   */\n      dup4\n        /* \"#utility.yul\":11262:11282   */\n      tag_360\n      jump\t// in\n    tag_406:\n        /* \"#utility.yul\":11257:11282   */\n      swap3\n      pop\n        /* \"#utility.yul\":11301:11302   */\n      dup3\n        /* \"#utility.yul\":11298:11299   */\n      dup3\n        /* \"#utility.yul\":11295:11303   */\n      lt\n        /* \"#utility.yul\":11292:11326   */\n      iszero\n      tag_407\n      jumpi\n        /* \"#utility.yul\":11306:11324   */\n      tag_408\n      tag_397\n      jump\t// in\n    tag_408:\n        /* \"#utility.yul\":11292:11326   */\n    tag_407:\n        /* \"#utility.yul\":11351:11352   */\n      dup3\n        /* \"#utility.yul\":11348:11349   */\n      dup3\n        /* \"#utility.yul\":11344:11353   */\n      sub\n        /* \"#utility.yul\":11336:11353   */\n      swap1\n      pop\n        /* \"#utility.yul\":11168:11359   */\n      swap3\n      swap2\n      pop\n      pop\n      jump\t// out\n        /* \"#utility.yul\":11365:11461   */\n    tag_328:\n        /* \"#utility.yul\":11402:11409   */\n      0x00\n        /* \"#utility.yul\":11431:11455   */\n      tag_410\n        /* \"#utility.yul\":11449:11454   */\n      dup3\n        /* \"#utility.yul\":11431:11455   */\n      tag_411\n      jump\t// in\n    tag_410:\n        /* \"#utility.yul\":11420:11455   */\n      swap1\n      pop\n        /* \"#utility.yul\":11365:11461   */\n      swap2\n      swap1\n      pop\n      jump\t// out\n        /* \"#utility.yul\":11467:11557   */\n    tag_332:\n        /* \"#utility.yul\":11501:11508   */\n      0x00\n        /* \"#utility.yul\":11544:11549   */\n      dup2\n        /* \"#utility.yul\":11537:11550   */\n      iszero\n        /* \"#utility.yul\":11530:11551   */\n      iszero\n        /* \"#utility.yul\":11519:11551   */\n      swap1\n      pop\n        /* \"#utility.yul\":11467:11557   */\n      swap2\n      swap1\n      pop\n      jump\t// out\n        /* \"#utility.yul\":11563:11712   */\n    tag_413:\n        /* \"#utility.yul\":11599:11606   */\n      0x00\n        /* \"#utility.yul\":11639:11705   */\n      0xffffffff00000000000000000000000000000000000000000000000000000000\n        /* \"#utility.yul\":11632:11637   */\n      dup3\n        /* \"#utility.yul\":11628:11706   */\n      and\n        /* \"#utility.yul\":11617:11706   */\n      swap1\n      pop\n        /* \"#utility.yul\":11563:11712   */\n      swap2\n      swap1\n      pop\n      jump\t// out\n        /* \"#utility.yul\":11718:11844   */\n    tag_411:\n        /* \"#utility.yul\":11755:11762   */\n      0x00\n        /* \"#utility.yul\":11795:11837   */\n      0xffffffffffffffffffffffffffffffffffffffff\n        /* \"#utility.yul\":11788:11793   */\n      dup3\n        /* \"#utility.yul\":11784:11838   */\n      and\n        /* \"#utility.yul\":11773:11838   */\n      swap1\n      pop\n        /* \"#utility.yul\":11718:11844   */\n      swap2\n      swap1\n      pop\n      jump\t// out\n        /* \"#utility.yul\":11850:11927   */\n    tag_360:\n        /* \"#utility.yul\":11887:11894   */\n      0x00\n        /* \"#utility.yul\":11916:11921   */\n      dup2\n        /* \"#utility.yul\":11905:11921   */\n      swap1\n      pop\n        /* \"#utility.yul\":11850:11927   */\n      swap2\n      swap1\n      pop\n      jump\t// out\n        /* \"#utility.yul\":11933:12087   */\n    tag_251:\n        /* \"#utility.yul\":12017:12023   */\n      dup3\n        /* \"#utility.yul\":12012:12015   */\n      dup2\n        /* \"#utility.yul\":12007:12010   */\n      dup4\n        /* \"#utility.yul\":11994:12024   */\n      calldatacopy\n        /* \"#utility.yul\":12079:12080   */\n      0x00\n        /* \"#utility.yul\":12070:12076   */\n      dup4\n        /* \"#utility.yul\":12065:12068   */\n      dup4\n        /* \"#utility.yul\":12061:12077   */\n      add\n        /* \"#utility.yul\":12054:12081   */\n      mstore\n        /* \"#utility.yul\":11933:12087   */\n      pop\n      pop\n      pop\n      jump\t// out\n        /* \"#utility.yul\":12093:12400   */\n    tag_340:\n        /* \"#utility.yul\":12161:12162   */\n      0x00\n        /* \"#utility.yul\":12171:12284   */\n    tag_419:\n        /* \"#utility.yul\":12185:12191   */\n      dup4\n        /* \"#utility.yul\":12182:12183   */\n      dup2\n        /* \"#utility.yul\":12179:12192   */\n      lt\n        /* \"#utility.yul\":12171:12284   */\n      iszero\n      tag_421\n      jumpi\n        /* \"#utility.yul\":12270:12271   */\n      dup1\n        /* \"#utility.yul\":12265:12268   */\n      dup3\n        /* \"#utility.yul\":12261:12272   */\n      add\n        /* \"#utility.yul\":12255:12273   */\n      mload\n        /* \"#utility.yul\":12251:12252   */\n      dup2\n        /* \"#utility.yul\":12246:12249   */\n      dup5\n        /* \"#utility.yul\":12242:12253   */\n      add\n        /* \"#utility.yul\":12235:12274   */\n      mstore\n        /* \"#utility.yul\":12207:12209   */\n      0x20\n        /* \"#utility.yul\":12204:12205   */\n      dup2\n        /* \"#utility.yul\":12200:12210   */\n      add\n        /* \"#utility.yul\":12195:12210   */\n      swap1\n      pop\n        /* \"#utility.yul\":12171:12284   */\n      jump(tag_419)\n    tag_421:\n        /* \"#utility.yul\":12302:12308   */\n      dup4\n        /* \"#utility.yul\":12299:12300   */\n      dup2\n        /* \"#utility.yul\":12296:12309   */\n      gt\n        /* \"#utility.yul\":12293:12394   */\n      iszero\n      tag_422\n      jumpi\n        /* \"#utility.yul\":12382:12383   */\n      0x00\n        /* \"#utility.yul\":12373:12379   */\n      dup5\n        /* \"#utility.yul\":12368:12371   */\n      dup5\n        /* \"#utility.yul\":12364:12380   */\n      add\n        /* \"#utility.yul\":12357:12384   */\n      mstore\n        /* \"#utility.yul\":12293:12394   */\n    tag_422:\n        /* \"#utility.yul\":12142:12400   */\n      pop\n        /* \"#utility.yul\":12093:12400   */\n      pop\n      pop\n      pop\n      jump\t// out\n        /* \"#utility.yul\":12406:12726   */\n    tag_87:\n        /* \"#utility.yul\":12450:12456   */\n      0x00\n        /* \"#utility.yul\":12487:12488   */\n      0x02\n        /* \"#utility.yul\":12481:12485   */\n      dup3\n        /* \"#utility.yul\":12477:12489   */\n      div\n        /* \"#utility.yul\":12467:12489   */\n      swap1\n      pop\n        /* \"#utility.yul\":12534:12535   */\n      0x01\n        /* \"#utility.yul\":12528:12532   */\n      dup3\n        /* \"#utility.yul\":12524:12536   */\n      and\n        /* \"#utility.yul\":12555:12573   */\n      dup1\n        /* \"#utility.yul\":12545:12626   */\n      tag_424\n      jumpi\n        /* \"#utility.yul\":12611:12615   */\n      0x7f\n        /* \"#utility.yul\":12603:12609   */\n      dup3\n        /* \"#utility.yul\":12599:12616   */\n      and\n        /* \"#utility.yul\":12589:12616   */\n      swap2\n      pop\n        /* \"#utility.yul\":12545:12626   */\n    tag_424:\n        /* \"#utility.yul\":12673:12675   */\n      0x20\n        /* \"#utility.yul\":12665:12671   */\n      dup3\n        /* \"#utility.yul\":12662:12676   */\n      lt\n        /* \"#utility.yul\":12642:12660   */\n      dup2\n        /* \"#utility.yul\":12639:12677   */\n      eq\n        /* \"#utility.yul\":12636:12720   */\n      iszero\n      tag_425\n      jumpi\n        /* \"#utility.yul\":12692:12710   */\n      tag_426\n      tag_427\n      jump\t// in\n    tag_426:\n        /* \"#utility.yul\":12636:12720   */\n    tag_425:\n        /* \"#utility.yul\":12457:12726   */\n      pop\n        /* \"#utility.yul\":12406:12726   */\n      swap2\n      swap1\n      pop\n      jump\t// out\n        /* \"#utility.yul\":12732:13013   */\n    tag_381:\n        /* \"#utility.yul\":12815:12842   */\n      tag_429\n        /* \"#utility.yul\":12837:12841   */\n      dup3\n        /* \"#utility.yul\":12815:12842   */\n      tag_342\n      jump\t// in\n    tag_429:\n        /* \"#utility.yul\":12807:12813   */\n      dup2\n        /* \"#utility.yul\":12803:12843   */\n      add\n        /* \"#utility.yul\":12945:12951   */\n      dup2\n        /* \"#utility.yul\":12933:12943   */\n      dup2\n        /* \"#utility.yul\":12930:12952   */\n      lt\n        /* \"#utility.yul\":12909:12927   */\n      0xffffffffffffffff\n        /* \"#utility.yul\":12897:12907   */\n      dup3\n        /* \"#utility.yul\":12894:12928   */\n      gt\n        /* \"#utility.yul\":12891:12953   */\n      or\n        /* \"#utility.yul\":12888:12976   */\n      iszero\n      tag_430\n      jumpi\n        /* \"#utility.yul\":12956:12974   */\n      tag_431\n      tag_224\n      jump\t// in\n    tag_431:\n        /* \"#utility.yul\":12888:12976   */\n    tag_430:\n        /* \"#utility.yul\":12996:13006   */\n      dup1\n        /* \"#utility.yul\":12992:12994   */\n      0x40\n        /* \"#utility.yul\":12985:13007   */\n      mstore\n        /* \"#utility.yul\":12775:13013   */\n      pop\n        /* \"#utility.yul\":12732:13013   */\n      pop\n      pop\n      jump\t// out\n        /* \"#utility.yul\":13019:13252   */\n    tag_219:\n        /* \"#utility.yul\":13058:13061   */\n      0x00\n        /* \"#utility.yul\":13081:13105   */\n      tag_433\n        /* \"#utility.yul\":13099:13104   */\n      dup3\n        /* \"#utility.yul\":13081:13105   */\n      tag_360\n      jump\t// in\n    tag_433:\n        /* \"#utility.yul\":13072:13105   */\n      swap2\n      pop\n        /* \"#utility.yul\":13127:13193   */\n      0xffffffffffffffffffffffffffffffffffffffffffffffffffffffffffffffff\n        /* \"#utility.yul\":13120:13125   */\n      dup3\n        /* \"#utility.yul\":13117:13194   */\n      eq\n        /* \"#utility.yul\":13114:13217   */\n      iszero\n      tag_434\n      jumpi\n        /* \"#utility.yul\":13197:13215   */\n      tag_435\n      tag_397\n      jump\t// in\n    tag_435:\n        /* \"#utility.yul\":13114:13217   */\n    tag_434:\n        /* \"#utility.yul\":13244:13245   */\n      0x01\n        /* \"#utility.yul\":13237:13242   */\n      dup3\n        /* \"#utility.yul\":13233:13246   */\n      add\n        /* \"#utility.yul\":13226:13246   */\n      swap1\n      pop\n        /* \"#utility.yul\":13019:13252   */\n      swap2\n      swap1\n      pop\n      jump\t// out\n        /* \"#utility.yul\":13258:13434   */\n    tag_231:\n        /* \"#utility.yul\":13290:13291   */\n      0x00\n        /* \"#utility.yul\":13307:13327   */\n      tag_437\n        /* \"#utility.yul\":13325:13326   */\n      dup3\n        /* \"#utility.yul\":13307:13327   */\n      tag_360\n      jump\t// in\n    tag_437:\n        /* \"#utility.yul\":13302:13327   */\n      swap2\n      pop\n        /* \"#utility.yul\":13341:13361   */\n      tag_438\n        /* \"#utility.yul\":13359:13360   */\n      dup4\n        /* \"#utility.yul\":13341:13361   */\n      tag_360\n      jump\t// in\n    tag_438:\n        /* \"#utility.yul\":13336:13361   */\n      swap3\n      pop\n        /* \"#utility.yul\":13380:13381   */\n      dup3\n        /* \"#utility.yul\":13370:13405   */\n      tag_439\n      jumpi\n        /* \"#utility.yul\":13385:13403   */\n      tag_440\n      tag_403\n      jump\t// in\n    tag_440:\n        /* \"#utility.yul\":13370:13405   */\n    tag_439:\n        /* \"#utility.yul\":13426:13427   */\n      dup3\n        /* \"#utility.yul\":13423:13424   */\n      dup3\n        /* \"#utility.yul\":13419:13428   */\n      mod\n        /* \"#utility.yul\":13414:13428   */\n      swap1\n      pop\n        /* \"#utility.yul\":13258:13434   */\n      swap3\n      swap2\n      pop\n      pop\n      jump\t// out\n        /* \"#utility.yul\":13440:13620   */\n    tag_397:\n        /* \"#utility.yul\":13488:13565   */\n      0x4e487b7100000000000000000000000000000000000000000000000000000000\n        /* \"#utility.yul\":13485:13486   */\n      0x00\n        /* \"#utility.yul\":13478:13566   */\n      mstore\n        /* \"#utility.yul\":13585:13589   */\n      0x11\n        /* \"#utility.yul\":13582:13583   */\n      0x04\n        /* \"#utility.yul\":13575:13590   */\n      mstore\n        /* \"#utility.yul\":13609:13613   */\n      0x24\n        /* \"#utility.yul\":13606:13607   */\n      0x00\n        /* \"#utility.yul\":13599:13614   */\n      revert\n        /* \"#utility.yul\":13626:13806   */\n    tag_403:\n        /* \"#utility.yul\":13674:13751   */\n      0x4e487b7100000000000000000000000000000000000000000000000000000000\n        /* \"#utility.yul\":13671:13672   */\n      0x00\n        /* \"#utility.yul\":13664:13752   */\n      mstore\n        /* \"#utility.yul\":13771:13775   */\n      0x12\n        /* \"#utility.yul\":13768:13769   */\n      0x04\n        /* \"#utility.yul\":13761:13776   */\n      mstore\n        /* \"#utility.yul\":13795:13799   */\n      0x24\n        /* \"#utility.yul\":13792:13793   */\n      0x00\n        /* \"#utility.yul\":13785:13800   */\n      revert\n        /* \"#utility.yul\":13812:13992   */\n    tag_427:\n        /* \"#utility.yul\":13860:13937   */\n      0x4e487b7100000000000000000000000000000000000000000000000000000000\n        /* \"#utility.yul\":13857:13858   */\n      0x00\n        /* \"#utility.yul\":13850:13938   */\n      mstore\n        /* \"#utility.yul\":13957:13961   */\n      0x22\n        /* \"#utility.yul\":13954:13955   */\n      0x04\n        /* \"#utility.yul\":13947:13962   */\n      mstore\n        /* \"#utility.yul\":13981:13985   */\n      0x24\n        /* \"#utility.yul\":13978:13979   */\n      0x00\n        /* \"#utility.yul\":13971:13986   */\n      revert\n        /* \"#utility.yul\":13998:14178   */\n    tag_236:\n        /* \"#utility.yul\":14046:14123   */\n      0x4e487b7100000000000000000000000000000000000000000000000000000000\n        /* \"#utility.yul\":14043:14044   */\n      0x00\n        /* \"#utility.yul\":14036:14124   */\n      mstore\n        /* \"#utility.yul\":14143:14147   */\n      0x32\n        /* \"#utility.yul\":14140:14141   */\n      0x04\n        /* \"#utility.yul\":14133:14148   */\n      mstore\n        /* \"#utility.yul\":14167:14171   */\n      0x24\n        /* \"#utility.yul\":14164:14165   */\n      0x00\n        /* \"#utility.yul\":14157:14172   */\n      revert\n        /* \"#utility.yul\":14184:14364   */\n    tag_224:\n        /* \"#utility.yul\":14232:14309   */\n      0x4e487b7100000000000000000000000000000000000000000000000000000000\n        /* \"#utility.yul\":14229:14230   */\n      0x00\n        /* \"#utility.yul\":14222:14310   */\n      mstore\n        /* \"#utility.yul\":14329:14333   */\n      0x41\n        /* \"#utility.yul\":14326:14327   */\n      0x04\n        /* \"#utility.yul\":14319:14334   */\n      mstore\n        /* \"#utility.yul\":14353:14357   */\n      0x24\n        /* \"#utility.yul\":14350:14351   */\n      0x00\n        /* \"#utility.yul\":14343:14358   */\n      revert\n        /* \"#utility.yul\":14370:14487   */\n    tag_271:\n        /* \"#utility.yul\":14479:14480   */\n      0x00\n        /* \"#utility.yul\":14476:14477   */\n      dup1\n        /* \"#utility.yul\":14469:14481   */\n      revert\n        /* \"#utility.yul\":14493:14610   */\n    tag_249:\n        /* \"#utility.yul\":14602:14603   */\n      0x00\n        /* \"#utility.yul\":14599:14600   */\n      dup1\n        /* \"#utility.yul\":14592:14604   */\n      revert\n        /* \"#utility.yul\":14616:14733   */\n    tag_301:\n        /* \"#utility.yul\":14725:14726   */\n      0x00\n        /* \"#utility.yul\":14722:14723   */\n      dup1\n        /* \"#utility.yul\":14715:14727   */\n      revert\n        /* \"#utility.yul\":14739:14856   */\n    tag_280:\n        /* \"#utility.yul\":14848:14849   */\n      0x00\n        /* \"#utility.yul\":14845:14846   */\n      dup1\n        /* \"#utility.yul\":14838:14850   */\n      revert\n        /* \"#utility.yul\":14862:14964   */\n    tag_342:\n        /* \"#utility.yul\":14903:14909   */\n      0x00\n        /* \"#utility.yul\":14954:14956   */\n      0x1f\n        /* \"#utility.yul\":14950:14957   */\n      not\n        /* \"#utility.yul\":14945:14947   */\n      0x1f\n        /* \"#utility.yul\":14938:14943   */\n      dup4\n        /* \"#utility.yul\":14934:14948   */\n      add\n        /* \"#utility.yul\":14930:14958   */\n      and\n        /* \"#utility.yul\":14920:14958   */\n      swap1\n      pop\n        /* \"#utility.yul\":14862:14964   */\n      swap2\n      swap1\n      pop\n      jump\t// out\n        /* \"#utility.yul\":14970:15092   */\n    tag_255:\n        /* \"#utility.yul\":15043:15067   */\n      tag_452\n        /* \"#utility.yul\":15061:15066   */\n      dup2\n        /* \"#utility.yul\":15043:15067   */\n      tag_328\n      jump\t// in\n    tag_452:\n        /* \"#utility.yul\":15036:15041   */\n      dup2\n        /* \"#utility.yul\":15033:15068   */\n      eq\n        /* \"#utility.yul\":15023:15086   */\n      tag_453\n      jumpi\n        /* \"#utility.yul\":15082:15083   */\n      0x00\n        /* \"#utility.yul\":15079:15080   */\n      dup1\n        /* \"#utility.yul\":15072:15084   */\n      revert\n        /* \"#utility.yul\":15023:15086   */\n    tag_453:\n        /* \"#utility.yul\":14970:15092   */\n      pop\n      jump\t// out\n        /* \"#utility.yul\":15098:15214   */\n    tag_259:\n        /* \"#utility.yul\":15168:15189   */\n      tag_455\n        /* \"#utility.yul\":15183:15188   */\n      dup2\n        /* \"#utility.yul\":15168:15189   */\n      tag_332\n      jump\t// in\n    tag_455:\n        /* \"#utility.yul\":15161:15166   */\n      dup2\n        /* \"#utility.yul\":15158:15190   */\n      eq\n        /* \"#utility.yul\":15148:15208   */\n      tag_456\n      jumpi\n        /* \"#utility.yul\":15204:15205   */\n      0x00\n        /* \"#utility.yul\":15201:15202   */\n      dup1\n        /* \"#utility.yul\":15194:15206   */\n      revert\n        /* \"#utility.yul\":15148:15208   */\n    tag_456:\n        /* \"#utility.yul\":15098:15214   */\n      pop\n      jump\t// out\n        /* \"#utility.yul\":15220:15340   */\n    tag_263:\n        /* \"#utility.yul\":15292:15315   */\n      tag_458\n        /* \"#utility.yul\":15309:15314   */\n      dup2\n        /* \"#utility.yul\":15292:15315   */\n      tag_413\n      jump\t// in\n    tag_458:\n        /* \"#utility.yul\":15285:15290   */\n      dup2\n        /* \"#utility.yul\":15282:15316   */\n      eq\n        /* \"#utility.yul\":15272:15334   */\n      tag_459\n      jumpi\n        /* \"#utility.yul\":15330:15331   */\n      0x00\n        /* \"#utility.yul\":15327:15328   */\n      dup1\n        /* \"#utility.yul\":15320:15332   */\n      revert\n        /* \"#utility.yul\":15272:15334   */\n    tag_459:\n        /* \"#utility.yul\":15220:15340   */\n      pop\n      jump\t// out\n        /* \"#utility.yul\":15346:15468   */\n    tag_276:\n        /* \"#utility.yul\":15419:15443   */\n      tag_461\n        /* \"#utility.yul\":15437:15442   */\n      dup2\n        /* \"#utility.yul\":15419:15443   */\n      tag_360\n      jump\t// in\n    tag_461:\n        /* \"#utility.yul\":15412:15417   */\n      dup2\n        /* \"#utility.yul\":15409:15444   */\n      eq\n        /* \"#utility.yul\":15399:15462   */\n      tag_462\n      jumpi\n        /* \"#utility.yul\":15458:15459   */\n      0x00\n        /* \"#utility.yul\":15455:15456   */\n      dup1\n        /* \"#utility.yul\":15448:15460   */\n      revert\n        /* \"#utility.yul\":15399:15462   */\n    tag_462:\n        /* \"#utility.yul\":15346:15468   */\n      pop\n      jump\t// out\n\n    auxdata: 0xa2646970667358221220ce069e97304c16f9459b6a443fa88d03efa61632c61e1bc89d982b1d90c02f6964736f6c63430008070033\n}\n",
				"bytecode": {
					"linkReferences": {},
					"object": "60806040523480156200001157600080fd5b50604051620024d7380380620024d78339818101604052810190620000379190620001d4565b82600290805190602001906200004f929190620000a6565b50816003908051906020019062000068929190620000a6565b50806004908051906020019062000081929190620000a6565b5062000092620000a160201b60201c565b60008190555050505062000411565b600090565b828054620000b49062000322565b90600052602060002090601f016020900481019282620000d8576000855562000124565b82601f10620000f357805160ff191683800117855562000124565b8280016001018555821562000124579182015b828111156200012357825182559160200191906001019062000106565b5b50905062000133919062000137565b5090565b5b808211156200015257600081600090555060010162000138565b5090565b60006200016d6200016784620002b6565b6200028d565b9050828152602081018484840111156200018c576200018b620003f1565b5b62000199848285620002ec565b509392505050565b600082601f830112620001b957620001b8620003ec565b5b8151620001cb84826020860162000156565b91505092915050565b600080600060608486031215620001f057620001ef620003fb565b5b600084015167ffffffffffffffff811115620002115762000210620003f6565b5b6200021f86828701620001a1565b935050602084015167ffffffffffffffff811115620002435762000242620003f6565b5b6200025186828701620001a1565b925050604084015167ffffffffffffffff811115620002755762000274620003f6565b5b6200028386828701620001a1565b9150509250925092565b600062000299620002ac565b9050620002a7828262000358565b919050565b6000604051905090565b600067ffffffffffffffff821115620002d457620002d3620003bd565b5b620002df8262000400565b9050602081019050919050565b60005b838110156200030c578082015181840152602081019050620002ef565b838111156200031c576000848401525b50505050565b600060028204905060018216806200033b57607f821691505b602082108114156200035257620003516200038e565b5b50919050565b620003638262000400565b810181811067ffffffffffffffff82111715620003855762000384620003bd565b5b80604052505050565b7f4e487b7100000000000000000000000000000000000000000000000000000000600052602260045260246000fd5b7f4e487b7100000000000000000000000000000000000000000000000000000000600052604160045260246000fd5b600080fd5b600080fd5b600080fd5b600080fd5b6000601f19601f8301169050919050565b6120b680620004216000396000f3fe608060405234801561001057600080fd5b50600436106100ea5760003560e01c80636352211e1161008c578063a22cb46511610066578063a22cb4651461025d578063b88d4fde14610279578063c87b56dd14610295578063e985e9c5146102c5576100ea565b80636352211e146101df57806370a082311461020f57806395d89b411461023f576100ea565b8063095ea7b3116100c8578063095ea7b31461016d57806318160ddd1461018957806323b872dd146101a757806342842e0e146101c3576100ea565b806301ffc9a7146100ef57806306fdde031461011f578063081812fc1461013d575b600080fd5b610109600480360381019061010491906119f3565b6102f5565b6040516101169190611bd5565b60405180910390f35b6101276103d7565b6040516101349190611bf0565b60405180910390f35b61015760048036038101906101529190611a4d565b610469565b6040516101649190611b6e565b60405180910390f35b610187600480360381019061018291906119b3565b6104e5565b005b6101916105f0565b60405161019e9190611c12565b60405180910390f35b6101c160048036038101906101bc919061189d565b610607565b005b6101dd60048036038101906101d8919061189d565b610617565b005b6101f960048036038101906101f49190611a4d565b610637565b6040516102069190611b6e565b60405180910390f35b61022960048036038101906102249190611830565b61064d565b6040516102369190611c12565b60405180910390f35b61024761071d565b6040516102549190611bf0565b60405180910390f35b61027760048036038101906102729190611973565b6107af565b005b610293600480360381019061028e91906118f0565b610927565b005b6102af60048036038101906102aa9190611a4d565b6109a3565b6040516102bc9190611bf0565b60405180910390f35b6102df60048036038101906102da919061185d565b610a42565b6040516102ec9190611bd5565b60405180910390f35b60007f80ac58cd000000000000000000000000000000000000000000000000000000007bffffffffffffffffffffffffffffffffffffffffffffffffffffffff1916827bffffffffffffffffffffffffffffffffffffffffffffffffffffffff191614806103c057507f5b5e139f000000000000000000000000000000000000000000000000000000007bffffffffffffffffffffffffffffffffffffffffffffffffffffffff1916827bffffffffffffffffffffffffffffffffffffffffffffffffffffffff1916145b806103d057506103cf82610ad6565b5b9050919050565b6060600280546103e690611e37565b80601f016020809104026020016040519081016040528092919081815260200182805461041290611e37565b801561045f5780601f106104345761010080835404028352916020019161045f565b820191906000526020600020905b81548152906001019060200180831161044257829003601f168201915b5050505050905090565b600061047482610b40565b6104aa576040517fcf4700e400000000000000000000000000000000000000000000000000000000815260040160405180910390fd5b6007600083815260200190815260200160002060009054906101000a900473ffffffffffffffffffffffffffffffffffffffff169050919050565b60006104f082610637565b90508073ffffffffffffffffffffffffffffffffffffffff168373ffffffffffffffffffffffffffffffffffffffff161415610558576040517f943f7b8c00000000000000000000000000000000000000000000000000000000815260040160405180910390fd5b8073ffffffffffffffffffffffffffffffffffffffff16610577610b8e565b73ffffffffffffffffffffffffffffffffffffffff16141580156105a957506105a7816105a2610b8e565b610a42565b155b156105e0576040517fcfb3b94200000000000000000000000000000000000000000000000000000000815260040160405180910390fd5b6105eb838383610b96565b505050565b60006105fa610c48565b6001546000540303905090565b610612838383610c4d565b505050565b61063283838360405180602001604052806000815250610927565b505050565b600061064282611103565b600001519050919050565b60008073ffffffffffffffffffffffffffffffffffffffff168273ffffffffffffffffffffffffffffffffffffffff1614156106b5576040517f8f4eb60400000000000000000000000000000000000000000000000000000000815260040160405180910390fd5b600660008373ffffffffffffffffffffffffffffffffffffffff1673ffffffffffffffffffffffffffffffffffffffff16815260200190815260200160002060000160009054906101000a900467ffffffffffffffff1667ffffffffffffffff169050919050565b60606003805461072c90611e37565b80601f016020809104026020016040519081016040528092919081815260200182805461075890611e37565b80156107a55780601f1061077a576101008083540402835291602001916107a5565b820191906000526020600020905b81548152906001019060200180831161078857829003601f168201915b5050505050905090565b6107b7610b8e565b73ffffffffffffffffffffffffffffffffffffffff168273ffffffffffffffffffffffffffffffffffffffff16141561081c576040517fb06307db00000000000000000000000000000000000000000000000000000000815260040160405180910390fd5b8060086000610829610b8e565b73ffffffffffffffffffffffffffffffffffffffff1673ffffffffffffffffffffffffffffffffffffffff16815260200190815260200160002060008473ffffffffffffffffffffffffffffffffffffffff1673ffffffffffffffffffffffffffffffffffffffff16815260200190815260200160002060006101000a81548160ff0219169083151502179055508173ffffffffffffffffffffffffffffffffffffffff166108d6610b8e565b73ffffffffffffffffffffffffffffffffffffffff167f17307eab39ab6107e8899845ad3d59bd9653f200f220920489ca2b5937696c318360405161091b9190611bd5565b60405180910390a35050565b610932848484610c4d565b6109518373ffffffffffffffffffffffffffffffffffffffff16611392565b80156109665750610964848484846113b5565b155b1561099d576040517fd1a57ed600000000000000000000000000000000000000000000000000000000815260040160405180910390fd5b50505050565b60606109ae82610b40565b6109e4576040517fa14c4b5000000000000000000000000000000000000000000000000000000000815260040160405180910390fd5b60006109ee611515565b9050600081511415610a0f5760405180602001604052806000815250610a3a565b80610a19846115a7565b604051602001610a2a929190611b4a565b6040516020818303038152906040525b915050919050565b6000600860008473ffffffffffffffffffffffffffffffffffffffff1673ffffffffffffffffffffffffffffffffffffffff16815260200190815260200160002060008373ffffffffffffffffffffffffffffffffffffffff1673ffffffffffffffffffffffffffffffffffffffff16815260200190815260200160002060009054906101000a900460ff16905092915050565b60007f01ffc9a7000000000000000000000000000000000000000000000000000000007bffffffffffffffffffffffffffffffffffffffffffffffffffffffff1916827bffffffffffffffffffffffffffffffffffffffffffffffffffffffff1916149050919050565b600081610b4b610c48565b11158015610b5a575060005482105b8015610b87575060056000838152602001908152602001600020600001601c9054906101000a900460ff16155b9050919050565b600033905090565b826007600084815260200190815260200160002060006101000a81548173ffffffffffffffffffffffffffffffffffffffff021916908373ffffffffffffffffffffffffffffffffffffffff160217905550818373ffffffffffffffffffffffffffffffffffffffff168273ffffffffffffffffffffffffffffffffffffffff167f8c5be1e5ebec7d5bd14f71427d1e84f3dd0314c0f7b2291e5b200ac8c7c3b92560405160405180910390a4505050565b600090565b6000610c5882611103565b90508373ffffffffffffffffffffffffffffffffffffffff16816000015173ffffffffffffffffffffffffffffffffffffffff1614610cc3576040517fa114810000000000000000000000000000000000000000000000000000000000815260040160405180910390fd5b60008473ffffffffffffffffffffffffffffffffffffffff16610ce4610b8e565b73ffffffffffffffffffffffffffffffffffffffff161480610d135750610d1285610d0d610b8e565b610a42565b5b80610d585750610d21610b8e565b73ffffffffffffffffffffffffffffffffffffffff16610d4084610469565b73ffffffffffffffffffffffffffffffffffffffff16145b905080610d91576040517f59c896be00000000000000000000000000000000000000000000000000000000815260040160405180910390fd5b600073ffffffffffffffffffffffffffffffffffffffff168473ffffffffffffffffffffffffffffffffffffffff161415610df8576040517fea553b3400000000000000000000000000000000000000000000000000000000815260040160405180910390fd5b610e058585856001611708565b610e1160008487610b96565b6001600660008773ffffffffffffffffffffffffffffffffffffffff1673ffffffffffffffffffffffffffffffffffffffff16815260200190815260200160002060000160008282829054906101000a900467ffffffffffffffff160392506101000a81548167ffffffffffffffff021916908367ffffffffffffffff1602179055506001600660008673ffffffffffffffffffffffffffffffffffffffff1673ffffffffffffffffffffffffffffffffffffffff16815260200190815260200160002060000160008282829054906101000a900467ffffffffffffffff160192506101000a81548167ffffffffffffffff021916908367ffffffffffffffff1602179055506000600560008581526020019081526020016000209050848160000160006101000a81548173ffffffffffffffffffffffffffffffffffffffff021916908373ffffffffffffffffffffffffffffffffffffffff160217905550428160000160146101000a81548167ffffffffffffffff021916908367ffffffffffffffff16021790555060006001850190506000600560008381526020019081526020016000209050600073ffffffffffffffffffffffffffffffffffffffff168160000160009054906101000a900473ffffffffffffffffffffffffffffffffffffffff1673ffffffffffffffffffffffffffffffffffffffff16141561109157600054821461109057878160000160006101000a81548173ffffffffffffffffffffffffffffffffffffffff021916908373ffffffffffffffffffffffffffffffffffffffff16021790555084602001518160000160146101000a81548167ffffffffffffffff021916908367ffffffffffffffff1602179055505b5b505050828473ffffffffffffffffffffffffffffffffffffffff168673ffffffffffffffffffffffffffffffffffffffff167fddf252ad1be2c89b69c2b068fc378daa952ba7f163c4a11628f55a4df523b3ef60405160405180910390a46110fc858585600161170e565b5050505050565b61110b611714565b600082905080611119610c48565b11158015611128575060005481105b1561135b576000600560008381526020019081526020016000206040518060600160405290816000820160009054906101000a900473ffffffffffffffffffffffffffffffffffffffff1673ffffffffffffffffffffffffffffffffffffffff1673ffffffffffffffffffffffffffffffffffffffff1681526020016000820160149054906101000a900467ffffffffffffffff1667ffffffffffffffff1667ffffffffffffffff16815260200160008201601c9054906101000a900460ff1615151515815250509050806040015161135957600073ffffffffffffffffffffffffffffffffffffffff16816000015173ffffffffffffffffffffffffffffffffffffffff161461123d57809250505061138d565b5b60011561135857818060019003925050600560008381526020019081526020016000206040518060600160405290816000820160009054906101000a900473ffffffffffffffffffffffffffffffffffffffff1673ffffffffffffffffffffffffffffffffffffffff1673ffffffffffffffffffffffffffffffffffffffff1681526020016000820160149054906101000a900467ffffffffffffffff1667ffffffffffffffff1667ffffffffffffffff16815260200160008201601c9054906101000a900460ff1615151515815250509050600073ffffffffffffffffffffffffffffffffffffffff16816000015173ffffffffffffffffffffffffffffffffffffffff161461135357809250505061138d565b61123e565b5b505b6040517fdf2d9b4200000000000000000000000000000000000000000000000000000000815260040160405180910390fd5b919050565b6000808273ffffffffffffffffffffffffffffffffffffffff163b119050919050565b60008373ffffffffffffffffffffffffffffffffffffffff1663150b7a026113db610b8e565b8786866040518563ffffffff1660e01b81526004016113fd9493929190611b89565b602060405180830381600087803b15801561141757600080fd5b505af192505050801561144857506040513d601f19601f820116820180604052508101906114459190611a20565b60015b6114c2573d8060008114611478576040519150601f19603f3d011682016040523d82523d6000602084013e61147d565b606091505b506000815114156114ba576040517fd1a57ed600000000000000000000000000000000000000000000000000000000815260040160405180910390fd5b805181602001fd5b63150b7a0260e01b7bffffffffffffffffffffffffffffffffffffffffffffffffffffffff1916817bffffffffffffffffffffffffffffffffffffffffffffffffffffffff191614915050949350505050565b60606004805461152490611e37565b80601f016020809104026020016040519081016040528092919081815260200182805461155090611e37565b801561159d5780601f106115725761010080835404028352916020019161159d565b820191906000526020600020905b81548152906001019060200180831161158057829003601f168201915b5050505050905090565b606060008214156115ef576040518060400160405280600181526020017f30000000000000000000000000000000000000000000000000000000000000008152509050611703565b600082905060005b6000821461162157808061160a90611e9a565b915050600a8261161a9190611d1c565b91506115f7565b60008167ffffffffffffffff81111561163d5761163c611fd0565b5b6040519080825280601f01601f19166020018201604052801561166f5781602001600182028036833780820191505090505b5090505b600085146116fc576001826116889190611d4d565b9150600a856116979190611ee3565b60306116a39190611cc6565b60f81b8183815181106116b9576116b8611fa1565b5b60200101907effffffffffffffffffffffffffffffffffffffffffffffffffffffffffffff1916908160001a905350600a856116f59190611d1c565b9450611673565b8093505050505b919050565b50505050565b50505050565b6040518060600160405280600073ffffffffffffffffffffffffffffffffffffffff168152602001600067ffffffffffffffff1681526020016000151581525090565b600061176a61176584611c52565b611c2d565b90508281526020810184848401111561178657611785612004565b5b611791848285611df5565b509392505050565b6000813590506117a881612024565b92915050565b6000813590506117bd8161203b565b92915050565b6000813590506117d281612052565b92915050565b6000815190506117e781612052565b92915050565b600082601f83011261180257611801611fff565b5b8135611812848260208601611757565b91505092915050565b60008135905061182a81612069565b92915050565b6000602082840312156118465761184561200e565b5b600061185484828501611799565b91505092915050565b600080604083850312156118745761187361200e565b5b600061188285828601611799565b925050602061189385828601611799565b9150509250929050565b6000806000606084860312156118b6576118b561200e565b5b60006118c486828701611799565b93505060206118d586828701611799565b92505060406118e68682870161181b565b9150509250925092565b6000806000806080858703121561190a5761190961200e565b5b600061191887828801611799565b945050602061192987828801611799565b935050604061193a8782880161181b565b925050606085013567ffffffffffffffff81111561195b5761195a612009565b5b611967878288016117ed565b91505092959194509250565b6000806040838503121561198a5761198961200e565b5b600061199885828601611799565b92505060206119a9858286016117ae565b9150509250929050565b600080604083850312156119ca576119c961200e565b5b60006119d885828601611799565b92505060206119e98582860161181b565b9150509250929050565b600060208284031215611a0957611a0861200e565b5b6000611a17848285016117c3565b91505092915050565b600060208284031215611a3657611a3561200e565b5b6000611a44848285016117d8565b91505092915050565b600060208284031215611a6357611a6261200e565b5b6000611a718482850161181b565b91505092915050565b611a8381611d81565b82525050565b611a9281611d93565b82525050565b6000611aa382611c83565b611aad8185611c99565b9350611abd818560208601611e04565b611ac681612013565b840191505092915050565b6000611adc82611c8e565b611ae68185611caa565b9350611af6818560208601611e04565b611aff81612013565b840191505092915050565b6000611b1582611c8e565b611b1f8185611cbb565b9350611b2f818560208601611e04565b80840191505092915050565b611b4481611deb565b82525050565b6000611b568285611b0a565b9150611b628284611b0a565b91508190509392505050565b6000602082019050611b836000830184611a7a565b92915050565b6000608082019050611b9e6000830187611a7a565b611bab6020830186611a7a565b611bb86040830185611b3b565b8181036060830152611bca8184611a98565b905095945050505050565b6000602082019050611bea6000830184611a89565b92915050565b60006020820190508181036000830152611c0a8184611ad1565b905092915050565b6000602082019050611c276000830184611b3b565b92915050565b6000611c37611c48565b9050611c438282611e69565b919050565b6000604051905090565b600067ffffffffffffffff821115611c6d57611c6c611fd0565b5b611c7682612013565b9050602081019050919050565b600081519050919050565b600081519050919050565b600082825260208201905092915050565b600082825260208201905092915050565b600081905092915050565b6000611cd182611deb565b9150611cdc83611deb565b9250827fffffffffffffffffffffffffffffffffffffffffffffffffffffffffffffffff03821115611d1157611d10611f14565b5b828201905092915050565b6000611d2782611deb565b9150611d3283611deb565b925082611d4257611d41611f43565b5b828204905092915050565b6000611d5882611deb565b9150611d6383611deb565b925082821015611d7657611d75611f14565b5b828203905092915050565b6000611d8c82611dcb565b9050919050565b60008115159050919050565b60007fffffffff0000000000000000000000000000000000000000000000000000000082169050919050565b600073ffffffffffffffffffffffffffffffffffffffff82169050919050565b6000819050919050565b82818337600083830152505050565b60005b83811015611e22578082015181840152602081019050611e07565b83811115611e31576000848401525b50505050565b60006002820490506001821680611e4f57607f821691505b60208210811415611e6357611e62611f72565b5b50919050565b611e7282612013565b810181811067ffffffffffffffff82111715611e9157611e90611fd0565b5b80604052505050565b6000611ea582611deb565b91507fffffffffffffffffffffffffffffffffffffffffffffffffffffffffffffffff821415611ed857611ed7611f14565b5b600182019050919050565b6000611eee82611deb565b9150611ef983611deb565b925082611f0957611f08611f43565b5b828206905092915050565b7f4e487b7100000000000000000000000000000000000000000000000000000000600052601160045260246000fd5b7f4e487b7100000000000000000000000000000000000000000000000000000000600052601260045260246000fd5b7f4e487b7100000000000000000000000000000000000000000000000000000000600052602260045260246000fd5b7f4e487b7100000000000000000000000000000000000000000000000000000000600052603260045260246000fd5b7f4e487b7100000000000000000000000000000000000000000000000000000000600052604160045260246000fd5b600080fd5b600080fd5b600080fd5b600080fd5b6000601f19601f8301169050919050565b61202d81611d81565b811461203857600080fd5b50565b61204481611d93565b811461204f57600080fd5b50565b61205b81611d9f565b811461206657600080fd5b50565b61207281611deb565b811461207d57600080fd5b5056fea2646970667358221220ce069e97304c16f9459b6a443fa88d03efa61632c61e1bc89d982b1d90c02f6964736f6c63430008070033",
					"opcodes": "PUSH1 0x80 PUSH1 0x40 MSTORE CALLVALUE DUP1 ISZERO PUSH3 0x11 JUMPI PUSH1 0x0 DUP1 REVERT JUMPDEST POP PUSH1 0x40 MLOAD PUSH3 0x24D7 CODESIZE SUB DUP1 PUSH3 0x24D7 DUP4 CODECOPY DUP2 DUP2 ADD PUSH1 0x40 MSTORE DUP2 ADD SWAP1 PUSH3 0x37 SWAP2 SWAP1 PUSH3 0x1D4 JUMP JUMPDEST DUP3 PUSH1 0x2 SWAP1 DUP1 MLOAD SWAP1 PUSH1 0x20 ADD SWAP1 PUSH3 0x4F SWAP3 SWAP2 SWAP1 PUSH3 0xA6 JUMP JUMPDEST POP DUP2 PUSH1 0x3 SWAP1 DUP1 MLOAD SWAP1 PUSH1 0x20 ADD SWAP1 PUSH3 0x68 SWAP3 SWAP2 SWAP1 PUSH3 0xA6 JUMP JUMPDEST POP DUP1 PUSH1 0x4 SWAP1 DUP1 MLOAD SWAP1 PUSH1 0x20 ADD SWAP1 PUSH3 0x81 SWAP3 SWAP2 SWAP1 PUSH3 0xA6 JUMP JUMPDEST POP PUSH3 0x92 PUSH3 0xA1 PUSH1 0x20 SHL PUSH1 0x20 SHR JUMP JUMPDEST PUSH1 0x0 DUP2 SWAP1 SSTORE POP POP POP POP PUSH3 0x411 JUMP JUMPDEST PUSH1 0x0 SWAP1 JUMP JUMPDEST DUP3 DUP1 SLOAD PUSH3 0xB4 SWAP1 PUSH3 0x322 JUMP JUMPDEST SWAP1 PUSH1 0x0 MSTORE PUSH1 0x20 PUSH1 0x0 KECCAK256 SWAP1 PUSH1 0x1F ADD PUSH1 0x20 SWAP1 DIV DUP2 ADD SWAP3 DUP3 PUSH3 0xD8 JUMPI PUSH1 0x0 DUP6 SSTORE PUSH3 0x124 JUMP JUMPDEST DUP3 PUSH1 0x1F LT PUSH3 0xF3 JUMPI DUP1 MLOAD PUSH1 0xFF NOT AND DUP4 DUP1 ADD OR DUP6 SSTORE PUSH3 0x124 JUMP JUMPDEST DUP3 DUP1 ADD PUSH1 0x1 ADD DUP6 SSTORE DUP3 ISZERO PUSH3 0x124 JUMPI SWAP2 DUP3 ADD JUMPDEST DUP3 DUP2 GT ISZERO PUSH3 0x123 JUMPI DUP3 MLOAD DUP3 SSTORE SWAP2 PUSH1 0x20 ADD SWAP2 SWAP1 PUSH1 0x1 ADD SWAP1 PUSH3 0x106 JUMP JUMPDEST JUMPDEST POP SWAP1 POP PUSH3 0x133 SWAP2 SWAP1 PUSH3 0x137 JUMP JUMPDEST POP SWAP1 JUMP JUMPDEST JUMPDEST DUP1 DUP3 GT ISZERO PUSH3 0x152 JUMPI PUSH1 0x0 DUP2 PUSH1 0x0 SWAP1 SSTORE POP PUSH1 0x1 ADD PUSH3 0x138 JUMP JUMPDEST POP SWAP1 JUMP JUMPDEST PUSH1 0x0 PUSH3 0x16D PUSH3 0x167 DUP5 PUSH3 0x2B6 JUMP JUMPDEST PUSH3 0x28D JUMP JUMPDEST SWAP1 POP DUP3 DUP2 MSTORE PUSH1 0x20 DUP2 ADD DUP5 DUP5 DUP5 ADD GT ISZERO PUSH3 0x18C JUMPI PUSH3 0x18B PUSH3 0x3F1 JUMP JUMPDEST JUMPDEST PUSH3 0x199 DUP5 DUP3 DUP6 PUSH3 0x2EC JUMP JUMPDEST POP SWAP4 SWAP3 POP POP POP JUMP JUMPDEST PUSH1 0x0 DUP3 PUSH1 0x1F DUP4 ADD SLT PUSH3 0x1B9 JUMPI PUSH3 0x1B8 PUSH3 0x3EC JUMP JUMPDEST JUMPDEST DUP2 MLOAD PUSH3 0x1CB DUP5 DUP3 PUSH1 0x20 DUP7 ADD PUSH3 0x156 JUMP JUMPDEST SWAP2 POP POP SWAP3 SWAP2 POP POP JUMP JUMPDEST PUSH1 0x0 DUP1 PUSH1 0x0 PUSH1 0x60 DUP5 DUP7 SUB SLT ISZERO PUSH3 0x1F0 JUMPI PUSH3 0x1EF PUSH3 0x3FB JUMP JUMPDEST JUMPDEST PUSH1 0x0 DUP5 ADD MLOAD PUSH8 0xFFFFFFFFFFFFFFFF DUP2 GT ISZERO PUSH3 0x211 JUMPI PUSH3 0x210 PUSH3 0x3F6 JUMP JUMPDEST JUMPDEST PUSH3 0x21F DUP7 DUP3 DUP8 ADD PUSH3 0x1A1 JUMP JUMPDEST SWAP4 POP POP PUSH1 0x20 DUP5 ADD MLOAD PUSH8 0xFFFFFFFFFFFFFFFF DUP2 GT ISZERO PUSH3 0x243 JUMPI PUSH3 0x242 PUSH3 0x3F6 JUMP JUMPDEST JUMPDEST PUSH3 0x251 DUP7 DUP3 DUP8 ADD PUSH3 0x1A1 JUMP JUMPDEST SWAP3 POP POP PUSH1 0x40 DUP5 ADD MLOAD PUSH8 0xFFFFFFFFFFFFFFFF DUP2 GT ISZERO PUSH3 0x275 JUMPI PUSH3 0x274 PUSH3 0x3F6 JUMP JUMPDEST JUMPDEST PUSH3 0x283 DUP7 DUP3 DUP8 ADD PUSH3 0x1A1 JUMP JUMPDEST SWAP2 POP POP SWAP3 POP SWAP3 POP SWAP3 JUMP JUMPDEST PUSH1 0x0 PUSH3 0x299 PUSH3 0x2AC JUMP JUMPDEST SWAP1 POP PUSH3 0x2A7 DUP3 DUP3 PUSH3 0x358 JUMP JUMPDEST SWAP2 SWAP1 POP JUMP JUMPDEST PUSH1 0x0 PUSH1 0x40 MLOAD SWAP1 POP SWAP1 JUMP JUMPDEST PUSH1 0x0 PUSH8 0xFFFFFFFFFFFFFFFF DUP3 GT ISZERO PUSH3 0x2D4 JUMPI PUSH3 0x2D3 PUSH3 0x3BD JUMP JUMPDEST JUMPDEST PUSH3 0x2DF DUP3 PUSH3 0x400 JUMP JUMPDEST SWAP1 POP PUSH1 0x20 DUP2 ADD SWAP1 POP SWAP2 SWAP1 POP JUMP JUMPDEST PUSH1 0x0 JUMPDEST DUP4 DUP2 LT ISZERO PUSH3 0x30C JUMPI DUP1 DUP3 ADD MLOAD DUP2 DUP5 ADD MSTORE PUSH1 0x20 DUP2 ADD SWAP1 POP PUSH3 0x2EF JUMP JUMPDEST DUP4 DUP2 GT ISZERO PUSH3 0x31C JUMPI PUSH1 0x0 DUP5 DUP5 ADD MSTORE JUMPDEST POP POP POP POP JUMP JUMPDEST PUSH1 0x0 PUSH1 0x2 DUP3 DIV SWAP1 POP PUSH1 0x1 DUP3 AND DUP1 PUSH3 0x33B JUMPI PUSH1 0x7F DUP3 AND SWAP2 POP JUMPDEST PUSH1 0x20 DUP3 LT DUP2 EQ ISZERO PUSH3 0x352 JUMPI PUSH3 0x351 PUSH3 0x38E JUMP JUMPDEST JUMPDEST POP SWAP2 SWAP1 POP JUMP JUMPDEST PUSH3 0x363 DUP3 PUSH3 0x400 JUMP JUMPDEST DUP2 ADD DUP2 DUP2 LT PUSH8 0xFFFFFFFFFFFFFFFF DUP3 GT OR ISZERO PUSH3 0x385 JUMPI PUSH3 0x384 PUSH3 0x3BD JUMP JUMPDEST JUMPDEST DUP1 PUSH1 0x40 MSTORE POP POP POP JUMP JUMPDEST PUSH32 0x4E487B7100000000000000000000000000000000000000000000000000000000 PUSH1 0x0 MSTORE PUSH1 0x22 PUSH1 0x4 MSTORE PUSH1 0x24 PUSH1 0x0 REVERT JUMPDEST PUSH32 0x4E487B7100000000000000000000000000000000000000000000000000000000 PUSH1 0x0 MSTORE PUSH1 0x41 PUSH1 0x4 MSTORE PUSH1 0x24 PUSH1 0x0 REVERT JUMPDEST PUSH1 0x0 DUP1 REVERT JUMPDEST PUSH1 0x0 DUP1 REVERT JUMPDEST PUSH1 0x0 DUP1 REVERT JUMPDEST PUSH1 0x0 DUP1 REVERT JUMPDEST PUSH1 0x0 PUSH1 0x1F NOT PUSH1 0x1F DUP4 ADD AND SWAP1 POP SWAP2 SWAP1 POP JUMP JUMPDEST PUSH2 0x20B6 DUP1 PUSH3 0x421 PUSH1 0x0 CODECOPY PUSH1 0x0 RETURN INVALID PUSH1 0x80 PUSH1 0x40 MSTORE CALLVALUE DUP1 ISZERO PUSH2 0x10 JUMPI PUSH1 0x0 DUP1 REVERT JUMPDEST POP PUSH1 0x4 CALLDATASIZE LT PUSH2 0xEA JUMPI PUSH1 0x0 CALLDATALOAD PUSH1 0xE0 SHR DUP1 PUSH4 0x6352211E GT PUSH2 0x8C JUMPI DUP1 PUSH4 0xA22CB465 GT PUSH2 0x66 JUMPI DUP1 PUSH4 0xA22CB465 EQ PUSH2 0x25D JUMPI DUP1 PUSH4 0xB88D4FDE EQ PUSH2 0x279 JUMPI DUP1 PUSH4 0xC87B56DD EQ PUSH2 0x295 JUMPI DUP1 PUSH4 0xE985E9C5 EQ PUSH2 0x2C5 JUMPI PUSH2 0xEA JUMP JUMPDEST DUP1 PUSH4 0x6352211E EQ PUSH2 0x1DF JUMPI DUP1 PUSH4 0x70A08231 EQ PUSH2 0x20F JUMPI DUP1 PUSH4 0x95D89B41 EQ PUSH2 0x23F JUMPI PUSH2 0xEA JUMP JUMPDEST DUP1 PUSH4 0x95EA7B3 GT PUSH2 0xC8 JUMPI DUP1 PUSH4 0x95EA7B3 EQ PUSH2 0x16D JUMPI DUP1 PUSH4 0x18160DDD EQ PUSH2 0x189 JUMPI DUP1 PUSH4 0x23B872DD EQ PUSH2 0x1A7 JUMPI DUP1 PUSH4 0x42842E0E EQ PUSH2 0x1C3 JUMPI PUSH2 0xEA JUMP JUMPDEST DUP1 PUSH4 0x1FFC9A7 EQ PUSH2 0xEF JUMPI DUP1 PUSH4 0x6FDDE03 EQ PUSH2 0x11F JUMPI DUP1 PUSH4 0x81812FC EQ PUSH2 0x13D JUMPI JUMPDEST PUSH1 0x0 DUP1 REVERT JUMPDEST PUSH2 0x109 PUSH1 0x4 DUP1 CALLDATASIZE SUB DUP2 ADD SWAP1 PUSH2 0x104 SWAP2 SWAP1 PUSH2 0x19F3 JUMP JUMPDEST PUSH2 0x2F5 JUMP JUMPDEST PUSH1 0x40 MLOAD PUSH2 0x116 SWAP2 SWAP1 PUSH2 0x1BD5 JUMP JUMPDEST PUSH1 0x40 MLOAD DUP1 SWAP2 SUB SWAP1 RETURN JUMPDEST PUSH2 0x127 PUSH2 0x3D7 JUMP JUMPDEST PUSH1 0x40 MLOAD PUSH2 0x134 SWAP2 SWAP1 PUSH2 0x1BF0 JUMP JUMPDEST PUSH1 0x40 MLOAD DUP1 SWAP2 SUB SWAP1 RETURN JUMPDEST PUSH2 0x157 PUSH1 0x4 DUP1 CALLDATASIZE SUB DUP2 ADD SWAP1 PUSH2 0x152 SWAP2 SWAP1 PUSH2 0x1A4D JUMP JUMPDEST PUSH2 0x469 JUMP JUMPDEST PUSH1 0x40 MLOAD PUSH2 0x164 SWAP2 SWAP1 PUSH2 0x1B6E JUMP JUMPDEST PUSH1 0x40 MLOAD DUP1 SWAP2 SUB SWAP1 RETURN JUMPDEST PUSH2 0x187 PUSH1 0x4 DUP1 CALLDATASIZE SUB DUP2 ADD SWAP1 PUSH2 0x182 SWAP2 SWAP1 PUSH2 0x19B3 JUMP JUMPDEST PUSH2 0x4E5 JUMP JUMPDEST STOP JUMPDEST PUSH2 0x191 PUSH2 0x5F0 JUMP JUMPDEST PUSH1 0x40 MLOAD PUSH2 0x19E SWAP2 SWAP1 PUSH2 0x1C12 JUMP JUMPDEST PUSH1 0x40 MLOAD DUP1 SWAP2 SUB SWAP1 RETURN JUMPDEST PUSH2 0x1C1 PUSH1 0x4 DUP1 CALLDATASIZE SUB DUP2 ADD SWAP1 PUSH2 0x1BC SWAP2 SWAP1 PUSH2 0x189D JUMP JUMPDEST PUSH2 0x607 JUMP JUMPDEST STOP JUMPDEST PUSH2 0x1DD PUSH1 0x4 DUP1 CALLDATASIZE SUB DUP2 ADD SWAP1 PUSH2 0x1D8 SWAP2 SWAP1 PUSH2 0x189D JUMP JUMPDEST PUSH2 0x617 JUMP JUMPDEST STOP JUMPDEST PUSH2 0x1F9 PUSH1 0x4 DUP1 CALLDATASIZE SUB DUP2 ADD SWAP1 PUSH2 0x1F4 SWAP2 SWAP1 PUSH2 0x1A4D JUMP JUMPDEST PUSH2 0x637 JUMP JUMPDEST PUSH1 0x40 MLOAD PUSH2 0x206 SWAP2 SWAP1 PUSH2 0x1B6E JUMP JUMPDEST PUSH1 0x40 MLOAD DUP1 SWAP2 SUB SWAP1 RETURN JUMPDEST PUSH2 0x229 PUSH1 0x4 DUP1 CALLDATASIZE SUB DUP2 ADD SWAP1 PUSH2 0x224 SWAP2 SWAP1 PUSH2 0x1830 JUMP JUMPDEST PUSH2 0x64D JUMP JUMPDEST PUSH1 0x40 MLOAD PUSH2 0x236 SWAP2 SWAP1 PUSH2 0x1C12 JUMP JUMPDEST PUSH1 0x40 MLOAD DUP1 SWAP2 SUB SWAP1 RETURN JUMPDEST PUSH2 0x247 PUSH2 0x71D JUMP JUMPDEST PUSH1 0x40 MLOAD PUSH2 0x254 SWAP2 SWAP1 PUSH2 0x1BF0 JUMP JUMPDEST PUSH1 0x40 MLOAD DUP1 SWAP2 SUB SWAP1 RETURN JUMPDEST PUSH2 0x277 PUSH1 0x4 DUP1 CALLDATASIZE SUB DUP2 ADD SWAP1 PUSH2 0x272 SWAP2 SWAP1 PUSH2 0x1973 JUMP JUMPDEST PUSH2 0x7AF JUMP JUMPDEST STOP JUMPDEST PUSH2 0x293 PUSH1 0x4 DUP1 CALLDATASIZE SUB DUP2 ADD SWAP1 PUSH2 0x28E SWAP2 SWAP1 PUSH2 0x18F0 JUMP JUMPDEST PUSH2 0x927 JUMP JUMPDEST STOP JUMPDEST PUSH2 0x2AF PUSH1 0x4 DUP1 CALLDATASIZE SUB DUP2 ADD SWAP1 PUSH2 0x2AA SWAP2 SWAP1 PUSH2 0x1A4D JUMP JUMPDEST PUSH2 0x9A3 JUMP JUMPDEST PUSH1 0x40 MLOAD PUSH2 0x2BC SWAP2 SWAP1 PUSH2 0x1BF0 JUMP JUMPDEST PUSH1 0x40 MLOAD DUP1 SWAP2 SUB SWAP1 RETURN JUMPDEST PUSH2 0x2DF PUSH1 0x4 DUP1 CALLDATASIZE SUB DUP2 ADD SWAP1 PUSH2 0x2DA SWAP2 SWAP1 PUSH2 0x185D JUMP JUMPDEST PUSH2 0xA42 JUMP JUMPDEST PUSH1 0x40 MLOAD PUSH2 0x2EC SWAP2 SWAP1 PUSH2 0x1BD5 JUMP JUMPDEST PUSH1 0x40 MLOAD DUP1 SWAP2 SUB SWAP1 RETURN JUMPDEST PUSH1 0x0 PUSH32 0x80AC58CD00000000000000000000000000000000000000000000000000000000 PUSH28 0xFFFFFFFFFFFFFFFFFFFFFFFFFFFFFFFFFFFFFFFFFFFFFFFFFFFFFFFF NOT AND DUP3 PUSH28 0xFFFFFFFFFFFFFFFFFFFFFFFFFFFFFFFFFFFFFFFFFFFFFFFFFFFFFFFF NOT AND EQ DUP1 PUSH2 0x3C0 JUMPI POP PUSH32 0x5B5E139F00000000000000000000000000000000000000000000000000000000 PUSH28 0xFFFFFFFFFFFFFFFFFFFFFFFFFFFFFFFFFFFFFFFFFFFFFFFFFFFFFFFF NOT AND DUP3 PUSH28 0xFFFFFFFFFFFFFFFFFFFFFFFFFFFFFFFFFFFFFFFFFFFFFFFFFFFFFFFF NOT AND EQ JUMPDEST DUP1 PUSH2 0x3D0 JUMPI POP PUSH2 0x3CF DUP3 PUSH2 0xAD6 JUMP JUMPDEST JUMPDEST SWAP1 POP SWAP2 SWAP1 POP JUMP JUMPDEST PUSH1 0x60 PUSH1 0x2 DUP1 SLOAD PUSH2 0x3E6 SWAP1 PUSH2 0x1E37 JUMP JUMPDEST DUP1 PUSH1 0x1F ADD PUSH1 0x20 DUP1 SWAP2 DIV MUL PUSH1 0x20 ADD PUSH1 0x40 MLOAD SWAP1 DUP2 ADD PUSH1 0x40 MSTORE DUP1 SWAP3 SWAP2 SWAP1 DUP2 DUP2 MSTORE PUSH1 0x20 ADD DUP3 DUP1 SLOAD PUSH2 0x412 SWAP1 PUSH2 0x1E37 JUMP JUMPDEST DUP1 ISZERO PUSH2 0x45F JUMPI DUP1 PUSH1 0x1F LT PUSH2 0x434 JUMPI PUSH2 0x100 DUP1 DUP4 SLOAD DIV MUL DUP4 MSTORE SWAP2 PUSH1 0x20 ADD SWAP2 PUSH2 0x45F JUMP JUMPDEST DUP3 ADD SWAP2 SWAP1 PUSH1 0x0 MSTORE PUSH1 0x20 PUSH1 0x0 KECCAK256 SWAP1 JUMPDEST DUP2 SLOAD DUP2 MSTORE SWAP1 PUSH1 0x1 ADD SWAP1 PUSH1 0x20 ADD DUP1 DUP4 GT PUSH2 0x442 JUMPI DUP3 SWAP1 SUB PUSH1 0x1F AND DUP3 ADD SWAP2 JUMPDEST POP POP POP POP POP SWAP1 POP SWAP1 JUMP JUMPDEST PUSH1 0x0 PUSH2 0x474 DUP3 PUSH2 0xB40 JUMP JUMPDEST PUSH2 0x4AA JUMPI PUSH1 0x40 MLOAD PUSH32 0xCF4700E400000000000000000000000000000000000000000000000000000000 DUP2 MSTORE PUSH1 0x4 ADD PUSH1 0x40 MLOAD DUP1 SWAP2 SUB SWAP1 REVERT JUMPDEST PUSH1 0x7 PUSH1 0x0 DUP4 DUP2 MSTORE PUSH1 0x20 ADD SWAP1 DUP2 MSTORE PUSH1 0x20 ADD PUSH1 0x0 KECCAK256 PUSH1 0x0 SWAP1 SLOAD SWAP1 PUSH2 0x100 EXP SWAP1 DIV PUSH20 0xFFFFFFFFFFFFFFFFFFFFFFFFFFFFFFFFFFFFFFFF AND SWAP1 POP SWAP2 SWAP1 POP JUMP JUMPDEST PUSH1 0x0 PUSH2 0x4F0 DUP3 PUSH2 0x637 JUMP JUMPDEST SWAP1 POP DUP1 PUSH20 0xFFFFFFFFFFFFFFFFFFFFFFFFFFFFFFFFFFFFFFFF AND DUP4 PUSH20 0xFFFFFFFFFFFFFFFFFFFFFFFFFFFFFFFFFFFFFFFF AND EQ ISZERO PUSH2 0x558 JUMPI PUSH1 0x40 MLOAD PUSH32 0x943F7B8C00000000000000000000000000000000000000000000000000000000 DUP2 MSTORE PUSH1 0x4 ADD PUSH1 0x40 MLOAD DUP1 SWAP2 SUB SWAP1 REVERT JUMPDEST DUP1 PUSH20 0xFFFFFFFFFFFFFFFFFFFFFFFFFFFFFFFFFFFFFFFF AND PUSH2 0x577 PUSH2 0xB8E JUMP JUMPDEST PUSH20 0xFFFFFFFFFFFFFFFFFFFFFFFFFFFFFFFFFFFFFFFF AND EQ ISZERO DUP1 ISZERO PUSH2 0x5A9 JUMPI POP PUSH2 0x5A7 DUP2 PUSH2 0x5A2 PUSH2 0xB8E JUMP JUMPDEST PUSH2 0xA42 JUMP JUMPDEST ISZERO JUMPDEST ISZERO PUSH2 0x5E0 JUMPI PUSH1 0x40 MLOAD PUSH32 0xCFB3B94200000000000000000000000000000000000000000000000000000000 DUP2 MSTORE PUSH1 0x4 ADD PUSH1 0x40 MLOAD DUP1 SWAP2 SUB SWAP1 REVERT JUMPDEST PUSH2 0x5EB DUP4 DUP4 DUP4 PUSH2 0xB96 JUMP JUMPDEST POP POP POP JUMP JUMPDEST PUSH1 0x0 PUSH2 0x5FA PUSH2 0xC48 JUMP JUMPDEST PUSH1 0x1 SLOAD PUSH1 0x0 SLOAD SUB SUB SWAP1 POP SWAP1 JUMP JUMPDEST PUSH2 0x612 DUP4 DUP4 DUP4 PUSH2 0xC4D JUMP JUMPDEST POP POP POP JUMP JUMPDEST PUSH2 0x632 DUP4 DUP4 DUP4 PUSH1 0x40 MLOAD DUP1 PUSH1 0x20 ADD PUSH1 0x40 MSTORE DUP1 PUSH1 0x0 DUP2 MSTORE POP PUSH2 0x927 JUMP JUMPDEST POP POP POP JUMP JUMPDEST PUSH1 0x0 PUSH2 0x642 DUP3 PUSH2 0x1103 JUMP JUMPDEST PUSH1 0x0 ADD MLOAD SWAP1 POP SWAP2 SWAP1 POP JUMP JUMPDEST PUSH1 0x0 DUP1 PUSH20 0xFFFFFFFFFFFFFFFFFFFFFFFFFFFFFFFFFFFFFFFF AND DUP3 PUSH20 0xFFFFFFFFFFFFFFFFFFFFFFFFFFFFFFFFFFFFFFFF AND EQ ISZERO PUSH2 0x6B5 JUMPI PUSH1 0x40 MLOAD PUSH32 0x8F4EB60400000000000000000000000000000000000000000000000000000000 DUP2 MSTORE PUSH1 0x4 ADD PUSH1 0x40 MLOAD DUP1 SWAP2 SUB SWAP1 REVERT JUMPDEST PUSH1 0x6 PUSH1 0x0 DUP4 PUSH20 0xFFFFFFFFFFFFFFFFFFFFFFFFFFFFFFFFFFFFFFFF AND PUSH20 0xFFFFFFFFFFFFFFFFFFFFFFFFFFFFFFFFFFFFFFFF AND DUP2 MSTORE PUSH1 0x20 ADD SWAP1 DUP2 MSTORE PUSH1 0x20 ADD PUSH1 0x0 KECCAK256 PUSH1 0x0 ADD PUSH1 0x0 SWAP1 SLOAD SWAP1 PUSH2 0x100 EXP SWAP1 DIV PUSH8 0xFFFFFFFFFFFFFFFF AND PUSH8 0xFFFFFFFFFFFFFFFF AND SWAP1 POP SWAP2 SWAP1 POP JUMP JUMPDEST PUSH1 0x60 PUSH1 0x3 DUP1 SLOAD PUSH2 0x72C SWAP1 PUSH2 0x1E37 JUMP JUMPDEST DUP1 PUSH1 0x1F ADD PUSH1 0x20 DUP1 SWAP2 DIV MUL PUSH1 0x20 ADD PUSH1 0x40 MLOAD SWAP1 DUP2 ADD PUSH1 0x40 MSTORE DUP1 SWAP3 SWAP2 SWAP1 DUP2 DUP2 MSTORE PUSH1 0x20 ADD DUP3 DUP1 SLOAD PUSH2 0x758 SWAP1 PUSH2 0x1E37 JUMP JUMPDEST DUP1 ISZERO PUSH2 0x7A5 JUMPI DUP1 PUSH1 0x1F LT PUSH2 0x77A JUMPI PUSH2 0x100 DUP1 DUP4 SLOAD DIV MUL DUP4 MSTORE SWAP2 PUSH1 0x20 ADD SWAP2 PUSH2 0x7A5 JUMP JUMPDEST DUP3 ADD SWAP2 SWAP1 PUSH1 0x0 MSTORE PUSH1 0x20 PUSH1 0x0 KECCAK256 SWAP1 JUMPDEST DUP2 SLOAD DUP2 MSTORE SWAP1 PUSH1 0x1 ADD SWAP1 PUSH1 0x20 ADD DUP1 DUP4 GT PUSH2 0x788 JUMPI DUP3 SWAP1 SUB PUSH1 0x1F AND DUP3 ADD SWAP2 JUMPDEST POP POP POP POP POP SWAP1 POP SWAP1 JUMP JUMPDEST PUSH2 0x7B7 PUSH2 0xB8E JUMP JUMPDEST PUSH20 0xFFFFFFFFFFFFFFFFFFFFFFFFFFFFFFFFFFFFFFFF AND DUP3 PUSH20 0xFFFFFFFFFFFFFFFFFFFFFFFFFFFFFFFFFFFFFFFF AND EQ ISZERO PUSH2 0x81C JUMPI PUSH1 0x40 MLOAD PUSH32 0xB06307DB00000000000000000000000000000000000000000000000000000000 DUP2 MSTORE PUSH1 0x4 ADD PUSH1 0x40 MLOAD DUP1 SWAP2 SUB SWAP1 REVERT JUMPDEST DUP1 PUSH1 0x8 PUSH1 0x0 PUSH2 0x829 PUSH2 0xB8E JUMP JUMPDEST PUSH20 0xFFFFFFFFFFFFFFFFFFFFFFFFFFFFFFFFFFFFFFFF AND PUSH20 0xFFFFFFFFFFFFFFFFFFFFFFFFFFFFFFFFFFFFFFFF AND DUP2 MSTORE PUSH1 0x20 ADD SWAP1 DUP2 MSTORE PUSH1 0x20 ADD PUSH1 0x0 KECCAK256 PUSH1 0x0 DUP5 PUSH20 0xFFFFFFFFFFFFFFFFFFFFFFFFFFFFFFFFFFFFFFFF AND PUSH20 0xFFFFFFFFFFFFFFFFFFFFFFFFFFFFFFFFFFFFFFFF AND DUP2 MSTORE PUSH1 0x20 ADD SWAP1 DUP2 MSTORE PUSH1 0x20 ADD PUSH1 0x0 KECCAK256 PUSH1 0x0 PUSH2 0x100 EXP DUP2 SLOAD DUP2 PUSH1 0xFF MUL NOT AND SWAP1 DUP4 ISZERO ISZERO MUL OR SWAP1 SSTORE POP DUP2 PUSH20 0xFFFFFFFFFFFFFFFFFFFFFFFFFFFFFFFFFFFFFFFF AND PUSH2 0x8D6 PUSH2 0xB8E JUMP JUMPDEST PUSH20 0xFFFFFFFFFFFFFFFFFFFFFFFFFFFFFFFFFFFFFFFF AND PUSH32 0x17307EAB39AB6107E8899845AD3D59BD9653F200F220920489CA2B5937696C31 DUP4 PUSH1 0x40 MLOAD PUSH2 0x91B SWAP2 SWAP1 PUSH2 0x1BD5 JUMP JUMPDEST PUSH1 0x40 MLOAD DUP1 SWAP2 SUB SWAP1 LOG3 POP POP JUMP JUMPDEST PUSH2 0x932 DUP5 DUP5 DUP5 PUSH2 0xC4D JUMP JUMPDEST PUSH2 0x951 DUP4 PUSH20 0xFFFFFFFFFFFFFFFFFFFFFFFFFFFFFFFFFFFFFFFF AND PUSH2 0x1392 JUMP JUMPDEST DUP1 ISZERO PUSH2 0x966 JUMPI POP PUSH2 0x964 DUP5 DUP5 DUP5 DUP5 PUSH2 0x13B5 JUMP JUMPDEST ISZERO JUMPDEST ISZERO PUSH2 0x99D JUMPI PUSH1 0x40 MLOAD PUSH32 0xD1A57ED600000000000000000000000000000000000000000000000000000000 DUP2 MSTORE PUSH1 0x4 ADD PUSH1 0x40 MLOAD DUP1 SWAP2 SUB SWAP1 REVERT JUMPDEST POP POP POP POP JUMP JUMPDEST PUSH1 0x60 PUSH2 0x9AE DUP3 PUSH2 0xB40 JUMP JUMPDEST PUSH2 0x9E4 JUMPI PUSH1 0x40 MLOAD PUSH32 0xA14C4B5000000000000000000000000000000000000000000000000000000000 DUP2 MSTORE PUSH1 0x4 ADD PUSH1 0x40 MLOAD DUP1 SWAP2 SUB SWAP1 REVERT JUMPDEST PUSH1 0x0 PUSH2 0x9EE PUSH2 0x1515 JUMP JUMPDEST SWAP1 POP PUSH1 0x0 DUP2 MLOAD EQ ISZERO PUSH2 0xA0F JUMPI PUSH1 0x40 MLOAD DUP1 PUSH1 0x20 ADD PUSH1 0x40 MSTORE DUP1 PUSH1 0x0 DUP2 MSTORE POP PUSH2 0xA3A JUMP JUMPDEST DUP1 PUSH2 0xA19 DUP5 PUSH2 0x15A7 JUMP JUMPDEST PUSH1 0x40 MLOAD PUSH1 0x20 ADD PUSH2 0xA2A SWAP3 SWAP2 SWAP1 PUSH2 0x1B4A JUMP JUMPDEST PUSH1 0x40 MLOAD PUSH1 0x20 DUP2 DUP4 SUB SUB DUP2 MSTORE SWAP1 PUSH1 0x40 MSTORE JUMPDEST SWAP2 POP POP SWAP2 SWAP1 POP JUMP JUMPDEST PUSH1 0x0 PUSH1 0x8 PUSH1 0x0 DUP5 PUSH20 0xFFFFFFFFFFFFFFFFFFFFFFFFFFFFFFFFFFFFFFFF AND PUSH20 0xFFFFFFFFFFFFFFFFFFFFFFFFFFFFFFFFFFFFFFFF AND DUP2 MSTORE PUSH1 0x20 ADD SWAP1 DUP2 MSTORE PUSH1 0x20 ADD PUSH1 0x0 KECCAK256 PUSH1 0x0 DUP4 PUSH20 0xFFFFFFFFFFFFFFFFFFFFFFFFFFFFFFFFFFFFFFFF AND PUSH20 0xFFFFFFFFFFFFFFFFFFFFFFFFFFFFFFFFFFFFFFFF AND DUP2 MSTORE PUSH1 0x20 ADD SWAP1 DUP2 MSTORE PUSH1 0x20 ADD PUSH1 0x0 KECCAK256 PUSH1 0x0 SWAP1 SLOAD SWAP1 PUSH2 0x100 EXP SWAP1 DIV PUSH1 0xFF AND SWAP1 POP SWAP3 SWAP2 POP POP JUMP JUMPDEST PUSH1 0x0 PUSH32 0x1FFC9A700000000000000000000000000000000000000000000000000000000 PUSH28 0xFFFFFFFFFFFFFFFFFFFFFFFFFFFFFFFFFFFFFFFFFFFFFFFFFFFFFFFF NOT AND DUP3 PUSH28 0xFFFFFFFFFFFFFFFFFFFFFFFFFFFFFFFFFFFFFFFFFFFFFFFFFFFFFFFF NOT AND EQ SWAP1 POP SWAP2 SWAP1 POP JUMP JUMPDEST PUSH1 0x0 DUP2 PUSH2 0xB4B PUSH2 0xC48 JUMP JUMPDEST GT ISZERO DUP1 ISZERO PUSH2 0xB5A JUMPI POP PUSH1 0x0 SLOAD DUP3 LT JUMPDEST DUP1 ISZERO PUSH2 0xB87 JUMPI POP PUSH1 0x5 PUSH1 0x0 DUP4 DUP2 MSTORE PUSH1 0x20 ADD SWAP1 DUP2 MSTORE PUSH1 0x20 ADD PUSH1 0x0 KECCAK256 PUSH1 0x0 ADD PUSH1 0x1C SWAP1 SLOAD SWAP1 PUSH2 0x100 EXP SWAP1 DIV PUSH1 0xFF AND ISZERO JUMPDEST SWAP1 POP SWAP2 SWAP1 POP JUMP JUMPDEST PUSH1 0x0 CALLER SWAP1 POP SWAP1 JUMP JUMPDEST DUP3 PUSH1 0x7 PUSH1 0x0 DUP5 DUP2 MSTORE PUSH1 0x20 ADD SWAP1 DUP2 MSTORE PUSH1 0x20 ADD PUSH1 0x0 KECCAK256 PUSH1 0x0 PUSH2 0x100 EXP DUP2 SLOAD DUP2 PUSH20 0xFFFFFFFFFFFFFFFFFFFFFFFFFFFFFFFFFFFFFFFF MUL NOT AND SWAP1 DUP4 PUSH20 0xFFFFFFFFFFFFFFFFFFFFFFFFFFFFFFFFFFFFFFFF AND MUL OR SWAP1 SSTORE POP DUP2 DUP4 PUSH20 0xFFFFFFFFFFFFFFFFFFFFFFFFFFFFFFFFFFFFFFFF AND DUP3 PUSH20 0xFFFFFFFFFFFFFFFFFFFFFFFFFFFFFFFFFFFFFFFF AND PUSH32 0x8C5BE1E5EBEC7D5BD14F71427D1E84F3DD0314C0F7B2291E5B200AC8C7C3B925 PUSH1 0x40 MLOAD PUSH1 0x40 MLOAD DUP1 SWAP2 SUB SWAP1 LOG4 POP POP POP JUMP JUMPDEST PUSH1 0x0 SWAP1 JUMP JUMPDEST PUSH1 0x0 PUSH2 0xC58 DUP3 PUSH2 0x1103 JUMP JUMPDEST SWAP1 POP DUP4 PUSH20 0xFFFFFFFFFFFFFFFFFFFFFFFFFFFFFFFFFFFFFFFF AND DUP2 PUSH1 0x0 ADD MLOAD PUSH20 0xFFFFFFFFFFFFFFFFFFFFFFFFFFFFFFFFFFFFFFFF AND EQ PUSH2 0xCC3 JUMPI PUSH1 0x40 MLOAD PUSH32 0xA114810000000000000000000000000000000000000000000000000000000000 DUP2 MSTORE PUSH1 0x4 ADD PUSH1 0x40 MLOAD DUP1 SWAP2 SUB SWAP1 REVERT JUMPDEST PUSH1 0x0 DUP5 PUSH20 0xFFFFFFFFFFFFFFFFFFFFFFFFFFFFFFFFFFFFFFFF AND PUSH2 0xCE4 PUSH2 0xB8E JUMP JUMPDEST PUSH20 0xFFFFFFFFFFFFFFFFFFFFFFFFFFFFFFFFFFFFFFFF AND EQ DUP1 PUSH2 0xD13 JUMPI POP PUSH2 0xD12 DUP6 PUSH2 0xD0D PUSH2 0xB8E JUMP JUMPDEST PUSH2 0xA42 JUMP JUMPDEST JUMPDEST DUP1 PUSH2 0xD58 JUMPI POP PUSH2 0xD21 PUSH2 0xB8E JUMP JUMPDEST PUSH20 0xFFFFFFFFFFFFFFFFFFFFFFFFFFFFFFFFFFFFFFFF AND PUSH2 0xD40 DUP5 PUSH2 0x469 JUMP JUMPDEST PUSH20 0xFFFFFFFFFFFFFFFFFFFFFFFFFFFFFFFFFFFFFFFF AND EQ JUMPDEST SWAP1 POP DUP1 PUSH2 0xD91 JUMPI PUSH1 0x40 MLOAD PUSH32 0x59C896BE00000000000000000000000000000000000000000000000000000000 DUP2 MSTORE PUSH1 0x4 ADD PUSH1 0x40 MLOAD DUP1 SWAP2 SUB SWAP1 REVERT JUMPDEST PUSH1 0x0 PUSH20 0xFFFFFFFFFFFFFFFFFFFFFFFFFFFFFFFFFFFFFFFF AND DUP5 PUSH20 0xFFFFFFFFFFFFFFFFFFFFFFFFFFFFFFFFFFFFFFFF AND EQ ISZERO PUSH2 0xDF8 JUMPI PUSH1 0x40 MLOAD PUSH32 0xEA553B3400000000000000000000000000000000000000000000000000000000 DUP2 MSTORE PUSH1 0x4 ADD PUSH1 0x40 MLOAD DUP1 SWAP2 SUB SWAP1 REVERT JUMPDEST PUSH2 0xE05 DUP6 DUP6 DUP6 PUSH1 0x1 PUSH2 0x1708 JUMP JUMPDEST PUSH2 0xE11 PUSH1 0x0 DUP5 DUP8 PUSH2 0xB96 JUMP JUMPDEST PUSH1 0x1 PUSH1 0x6 PUSH1 0x0 DUP8 PUSH20 0xFFFFFFFFFFFFFFFFFFFFFFFFFFFFFFFFFFFFFFFF AND PUSH20 0xFFFFFFFFFFFFFFFFFFFFFFFFFFFFFFFFFFFFFFFF AND DUP2 MSTORE PUSH1 0x20 ADD SWAP1 DUP2 MSTORE PUSH1 0x20 ADD PUSH1 0x0 KECCAK256 PUSH1 0x0 ADD PUSH1 0x0 DUP3 DUP3 DUP3 SWAP1 SLOAD SWAP1 PUSH2 0x100 EXP SWAP1 DIV PUSH8 0xFFFFFFFFFFFFFFFF AND SUB SWAP3 POP PUSH2 0x100 EXP DUP2 SLOAD DUP2 PUSH8 0xFFFFFFFFFFFFFFFF MUL NOT AND SWAP1 DUP4 PUSH8 0xFFFFFFFFFFFFFFFF AND MUL OR SWAP1 SSTORE POP PUSH1 0x1 PUSH1 0x6 PUSH1 0x0 DUP7 PUSH20 0xFFFFFFFFFFFFFFFFFFFFFFFFFFFFFFFFFFFFFFFF AND PUSH20 0xFFFFFFFFFFFFFFFFFFFFFFFFFFFFFFFFFFFFFFFF AND DUP2 MSTORE PUSH1 0x20 ADD SWAP1 DUP2 MSTORE PUSH1 0x20 ADD PUSH1 0x0 KECCAK256 PUSH1 0x0 ADD PUSH1 0x0 DUP3 DUP3 DUP3 SWAP1 SLOAD SWAP1 PUSH2 0x100 EXP SWAP1 DIV PUSH8 0xFFFFFFFFFFFFFFFF AND ADD SWAP3 POP PUSH2 0x100 EXP DUP2 SLOAD DUP2 PUSH8 0xFFFFFFFFFFFFFFFF MUL NOT AND SWAP1 DUP4 PUSH8 0xFFFFFFFFFFFFFFFF AND MUL OR SWAP1 SSTORE POP PUSH1 0x0 PUSH1 0x5 PUSH1 0x0 DUP6 DUP2 MSTORE PUSH1 0x20 ADD SWAP1 DUP2 MSTORE PUSH1 0x20 ADD PUSH1 0x0 KECCAK256 SWAP1 POP DUP5 DUP2 PUSH1 0x0 ADD PUSH1 0x0 PUSH2 0x100 EXP DUP2 SLOAD DUP2 PUSH20 0xFFFFFFFFFFFFFFFFFFFFFFFFFFFFFFFFFFFFFFFF MUL NOT AND SWAP1 DUP4 PUSH20 0xFFFFFFFFFFFFFFFFFFFFFFFFFFFFFFFFFFFFFFFF AND MUL OR SWAP1 SSTORE POP TIMESTAMP DUP2 PUSH1 0x0 ADD PUSH1 0x14 PUSH2 0x100 EXP DUP2 SLOAD DUP2 PUSH8 0xFFFFFFFFFFFFFFFF MUL NOT AND SWAP1 DUP4 PUSH8 0xFFFFFFFFFFFFFFFF AND MUL OR SWAP1 SSTORE POP PUSH1 0x0 PUSH1 0x1 DUP6 ADD SWAP1 POP PUSH1 0x0 PUSH1 0x5 PUSH1 0x0 DUP4 DUP2 MSTORE PUSH1 0x20 ADD SWAP1 DUP2 MSTORE PUSH1 0x20 ADD PUSH1 0x0 KECCAK256 SWAP1 POP PUSH1 0x0 PUSH20 0xFFFFFFFFFFFFFFFFFFFFFFFFFFFFFFFFFFFFFFFF AND DUP2 PUSH1 0x0 ADD PUSH1 0x0 SWAP1 SLOAD SWAP1 PUSH2 0x100 EXP SWAP1 DIV PUSH20 0xFFFFFFFFFFFFFFFFFFFFFFFFFFFFFFFFFFFFFFFF AND PUSH20 0xFFFFFFFFFFFFFFFFFFFFFFFFFFFFFFFFFFFFFFFF AND EQ ISZERO PUSH2 0x1091 JUMPI PUSH1 0x0 SLOAD DUP3 EQ PUSH2 0x1090 JUMPI DUP8 DUP2 PUSH1 0x0 ADD PUSH1 0x0 PUSH2 0x100 EXP DUP2 SLOAD DUP2 PUSH20 0xFFFFFFFFFFFFFFFFFFFFFFFFFFFFFFFFFFFFFFFF MUL NOT AND SWAP1 DUP4 PUSH20 0xFFFFFFFFFFFFFFFFFFFFFFFFFFFFFFFFFFFFFFFF AND MUL OR SWAP1 SSTORE POP DUP5 PUSH1 0x20 ADD MLOAD DUP2 PUSH1 0x0 ADD PUSH1 0x14 PUSH2 0x100 EXP DUP2 SLOAD DUP2 PUSH8 0xFFFFFFFFFFFFFFFF MUL NOT AND SWAP1 DUP4 PUSH8 0xFFFFFFFFFFFFFFFF AND MUL OR SWAP1 SSTORE POP JUMPDEST JUMPDEST POP POP POP DUP3 DUP5 PUSH20 0xFFFFFFFFFFFFFFFFFFFFFFFFFFFFFFFFFFFFFFFF AND DUP7 PUSH20 0xFFFFFFFFFFFFFFFFFFFFFFFFFFFFFFFFFFFFFFFF AND PUSH32 0xDDF252AD1BE2C89B69C2B068FC378DAA952BA7F163C4A11628F55A4DF523B3EF PUSH1 0x40 MLOAD PUSH1 0x40 MLOAD DUP1 SWAP2 SUB SWAP1 LOG4 PUSH2 0x10FC DUP6 DUP6 DUP6 PUSH1 0x1 PUSH2 0x170E JUMP JUMPDEST POP POP POP POP POP JUMP JUMPDEST PUSH2 0x110B PUSH2 0x1714 JUMP JUMPDEST PUSH1 0x0 DUP3 SWAP1 POP DUP1 PUSH2 0x1119 PUSH2 0xC48 JUMP JUMPDEST GT ISZERO DUP1 ISZERO PUSH2 0x1128 JUMPI POP PUSH1 0x0 SLOAD DUP2 LT JUMPDEST ISZERO PUSH2 0x135B JUMPI PUSH1 0x0 PUSH1 0x5 PUSH1 0x0 DUP4 DUP2 MSTORE PUSH1 0x20 ADD SWAP1 DUP2 MSTORE PUSH1 0x20 ADD PUSH1 0x0 KECCAK256 PUSH1 0x40 MLOAD DUP1 PUSH1 0x60 ADD PUSH1 0x40 MSTORE SWAP1 DUP2 PUSH1 0x0 DUP3 ADD PUSH1 0x0 SWAP1 SLOAD SWAP1 PUSH2 0x100 EXP SWAP1 DIV PUSH20 0xFFFFFFFFFFFFFFFFFFFFFFFFFFFFFFFFFFFFFFFF AND PUSH20 0xFFFFFFFFFFFFFFFFFFFFFFFFFFFFFFFFFFFFFFFF AND PUSH20 0xFFFFFFFFFFFFFFFFFFFFFFFFFFFFFFFFFFFFFFFF AND DUP2 MSTORE PUSH1 0x20 ADD PUSH1 0x0 DUP3 ADD PUSH1 0x14 SWAP1 SLOAD SWAP1 PUSH2 0x100 EXP SWAP1 DIV PUSH8 0xFFFFFFFFFFFFFFFF AND PUSH8 0xFFFFFFFFFFFFFFFF AND PUSH8 0xFFFFFFFFFFFFFFFF AND DUP2 MSTORE PUSH1 0x20 ADD PUSH1 0x0 DUP3 ADD PUSH1 0x1C SWAP1 SLOAD SWAP1 PUSH2 0x100 EXP SWAP1 DIV PUSH1 0xFF AND ISZERO ISZERO ISZERO ISZERO DUP2 MSTORE POP POP SWAP1 POP DUP1 PUSH1 0x40 ADD MLOAD PUSH2 0x1359 JUMPI PUSH1 0x0 PUSH20 0xFFFFFFFFFFFFFFFFFFFFFFFFFFFFFFFFFFFFFFFF AND DUP2 PUSH1 0x0 ADD MLOAD PUSH20 0xFFFFFFFFFFFFFFFFFFFFFFFFFFFFFFFFFFFFFFFF AND EQ PUSH2 0x123D JUMPI DUP1 SWAP3 POP POP POP PUSH2 0x138D JUMP JUMPDEST JUMPDEST PUSH1 0x1 ISZERO PUSH2 0x1358 JUMPI DUP2 DUP1 PUSH1 0x1 SWAP1 SUB SWAP3 POP POP PUSH1 0x5 PUSH1 0x0 DUP4 DUP2 MSTORE PUSH1 0x20 ADD SWAP1 DUP2 MSTORE PUSH1 0x20 ADD PUSH1 0x0 KECCAK256 PUSH1 0x40 MLOAD DUP1 PUSH1 0x60 ADD PUSH1 0x40 MSTORE SWAP1 DUP2 PUSH1 0x0 DUP3 ADD PUSH1 0x0 SWAP1 SLOAD SWAP1 PUSH2 0x100 EXP SWAP1 DIV PUSH20 0xFFFFFFFFFFFFFFFFFFFFFFFFFFFFFFFFFFFFFFFF AND PUSH20 0xFFFFFFFFFFFFFFFFFFFFFFFFFFFFFFFFFFFFFFFF AND PUSH20 0xFFFFFFFFFFFFFFFFFFFFFFFFFFFFFFFFFFFFFFFF AND DUP2 MSTORE PUSH1 0x20 ADD PUSH1 0x0 DUP3 ADD PUSH1 0x14 SWAP1 SLOAD SWAP1 PUSH2 0x100 EXP SWAP1 DIV PUSH8 0xFFFFFFFFFFFFFFFF AND PUSH8 0xFFFFFFFFFFFFFFFF AND PUSH8 0xFFFFFFFFFFFFFFFF AND DUP2 MSTORE PUSH1 0x20 ADD PUSH1 0x0 DUP3 ADD PUSH1 0x1C SWAP1 SLOAD SWAP1 PUSH2 0x100 EXP SWAP1 DIV PUSH1 0xFF AND ISZERO ISZERO ISZERO ISZERO DUP2 MSTORE POP POP SWAP1 POP PUSH1 0x0 PUSH20 0xFFFFFFFFFFFFFFFFFFFFFFFFFFFFFFFFFFFFFFFF AND DUP2 PUSH1 0x0 ADD MLOAD PUSH20 0xFFFFFFFFFFFFFFFFFFFFFFFFFFFFFFFFFFFFFFFF AND EQ PUSH2 0x1353 JUMPI DUP1 SWAP3 POP POP POP PUSH2 0x138D JUMP JUMPDEST PUSH2 0x123E JUMP JUMPDEST JUMPDEST POP JUMPDEST PUSH1 0x40 MLOAD PUSH32 0xDF2D9B4200000000000000000000000000000000000000000000000000000000 DUP2 MSTORE PUSH1 0x4 ADD PUSH1 0x40 MLOAD DUP1 SWAP2 SUB SWAP1 REVERT JUMPDEST SWAP2 SWAP1 POP JUMP JUMPDEST PUSH1 0x0 DUP1 DUP3 PUSH20 0xFFFFFFFFFFFFFFFFFFFFFFFFFFFFFFFFFFFFFFFF AND EXTCODESIZE GT SWAP1 POP SWAP2 SWAP1 POP JUMP JUMPDEST PUSH1 0x0 DUP4 PUSH20 0xFFFFFFFFFFFFFFFFFFFFFFFFFFFFFFFFFFFFFFFF AND PUSH4 0x150B7A02 PUSH2 0x13DB PUSH2 0xB8E JUMP JUMPDEST DUP8 DUP7 DUP7 PUSH1 0x40 MLOAD DUP6 PUSH4 0xFFFFFFFF AND PUSH1 0xE0 SHL DUP2 MSTORE PUSH1 0x4 ADD PUSH2 0x13FD SWAP5 SWAP4 SWAP3 SWAP2 SWAP1 PUSH2 0x1B89 JUMP JUMPDEST PUSH1 0x20 PUSH1 0x40 MLOAD DUP1 DUP4 SUB DUP2 PUSH1 0x0 DUP8 DUP1 EXTCODESIZE ISZERO DUP1 ISZERO PUSH2 0x1417 JUMPI PUSH1 0x0 DUP1 REVERT JUMPDEST POP GAS CALL SWAP3 POP POP POP DUP1 ISZERO PUSH2 0x1448 JUMPI POP PUSH1 0x40 MLOAD RETURNDATASIZE PUSH1 0x1F NOT PUSH1 0x1F DUP3 ADD AND DUP3 ADD DUP1 PUSH1 0x40 MSTORE POP DUP2 ADD SWAP1 PUSH2 0x1445 SWAP2 SWAP1 PUSH2 0x1A20 JUMP JUMPDEST PUSH1 0x1 JUMPDEST PUSH2 0x14C2 JUMPI RETURNDATASIZE DUP1 PUSH1 0x0 DUP2 EQ PUSH2 0x1478 JUMPI PUSH1 0x40 MLOAD SWAP2 POP PUSH1 0x1F NOT PUSH1 0x3F RETURNDATASIZE ADD AND DUP3 ADD PUSH1 0x40 MSTORE RETURNDATASIZE DUP3 MSTORE RETURNDATASIZE PUSH1 0x0 PUSH1 0x20 DUP5 ADD RETURNDATACOPY PUSH2 0x147D JUMP JUMPDEST PUSH1 0x60 SWAP2 POP JUMPDEST POP PUSH1 0x0 DUP2 MLOAD EQ ISZERO PUSH2 0x14BA JUMPI PUSH1 0x40 MLOAD PUSH32 0xD1A57ED600000000000000000000000000000000000000000000000000000000 DUP2 MSTORE PUSH1 0x4 ADD PUSH1 0x40 MLOAD DUP1 SWAP2 SUB SWAP1 REVERT JUMPDEST DUP1 MLOAD DUP2 PUSH1 0x20 ADD REVERT JUMPDEST PUSH4 0x150B7A02 PUSH1 0xE0 SHL PUSH28 0xFFFFFFFFFFFFFFFFFFFFFFFFFFFFFFFFFFFFFFFFFFFFFFFFFFFFFFFF NOT AND DUP2 PUSH28 0xFFFFFFFFFFFFFFFFFFFFFFFFFFFFFFFFFFFFFFFFFFFFFFFFFFFFFFFF NOT AND EQ SWAP2 POP POP SWAP5 SWAP4 POP POP POP POP JUMP JUMPDEST PUSH1 0x60 PUSH1 0x4 DUP1 SLOAD PUSH2 0x1524 SWAP1 PUSH2 0x1E37 JUMP JUMPDEST DUP1 PUSH1 0x1F ADD PUSH1 0x20 DUP1 SWAP2 DIV MUL PUSH1 0x20 ADD PUSH1 0x40 MLOAD SWAP1 DUP2 ADD PUSH1 0x40 MSTORE DUP1 SWAP3 SWAP2 SWAP1 DUP2 DUP2 MSTORE PUSH1 0x20 ADD DUP3 DUP1 SLOAD PUSH2 0x1550 SWAP1 PUSH2 0x1E37 JUMP JUMPDEST DUP1 ISZERO PUSH2 0x159D JUMPI DUP1 PUSH1 0x1F LT PUSH2 0x1572 JUMPI PUSH2 0x100 DUP1 DUP4 SLOAD DIV MUL DUP4 MSTORE SWAP2 PUSH1 0x20 ADD SWAP2 PUSH2 0x159D JUMP JUMPDEST DUP3 ADD SWAP2 SWAP1 PUSH1 0x0 MSTORE PUSH1 0x20 PUSH1 0x0 KECCAK256 SWAP1 JUMPDEST DUP2 SLOAD DUP2 MSTORE SWAP1 PUSH1 0x1 ADD SWAP1 PUSH1 0x20 ADD DUP1 DUP4 GT PUSH2 0x1580 JUMPI DUP3 SWAP1 SUB PUSH1 0x1F AND DUP3 ADD SWAP2 JUMPDEST POP POP POP POP POP SWAP1 POP SWAP1 JUMP JUMPDEST PUSH1 0x60 PUSH1 0x0 DUP3 EQ ISZERO PUSH2 0x15EF JUMPI PUSH1 0x40 MLOAD DUP1 PUSH1 0x40 ADD PUSH1 0x40 MSTORE DUP1 PUSH1 0x1 DUP2 MSTORE PUSH1 0x20 ADD PUSH32 0x3000000000000000000000000000000000000000000000000000000000000000 DUP2 MSTORE POP SWAP1 POP PUSH2 0x1703 JUMP JUMPDEST PUSH1 0x0 DUP3 SWAP1 POP PUSH1 0x0 JUMPDEST PUSH1 0x0 DUP3 EQ PUSH2 0x1621 JUMPI DUP1 DUP1 PUSH2 0x160A SWAP1 PUSH2 0x1E9A JUMP JUMPDEST SWAP2 POP POP PUSH1 0xA DUP3 PUSH2 0x161A SWAP2 SWAP1 PUSH2 0x1D1C JUMP JUMPDEST SWAP2 POP PUSH2 0x15F7 JUMP JUMPDEST PUSH1 0x0 DUP2 PUSH8 0xFFFFFFFFFFFFFFFF DUP2 GT ISZERO PUSH2 0x163D JUMPI PUSH2 0x163C PUSH2 0x1FD0 JUMP JUMPDEST JUMPDEST PUSH1 0x40 MLOAD SWAP1 DUP1 DUP3 MSTORE DUP1 PUSH1 0x1F ADD PUSH1 0x1F NOT AND PUSH1 0x20 ADD DUP3 ADD PUSH1 0x40 MSTORE DUP1 ISZERO PUSH2 0x166F JUMPI DUP2 PUSH1 0x20 ADD PUSH1 0x1 DUP3 MUL DUP1 CALLDATASIZE DUP4 CALLDATACOPY DUP1 DUP3 ADD SWAP2 POP POP SWAP1 POP JUMPDEST POP SWAP1 POP JUMPDEST PUSH1 0x0 DUP6 EQ PUSH2 0x16FC JUMPI PUSH1 0x1 DUP3 PUSH2 0x1688 SWAP2 SWAP1 PUSH2 0x1D4D JUMP JUMPDEST SWAP2 POP PUSH1 0xA DUP6 PUSH2 0x1697 SWAP2 SWAP1 PUSH2 0x1EE3 JUMP JUMPDEST PUSH1 0x30 PUSH2 0x16A3 SWAP2 SWAP1 PUSH2 0x1CC6 JUMP JUMPDEST PUSH1 0xF8 SHL DUP2 DUP4 DUP2 MLOAD DUP2 LT PUSH2 0x16B9 JUMPI PUSH2 0x16B8 PUSH2 0x1FA1 JUMP JUMPDEST JUMPDEST PUSH1 0x20 ADD ADD SWAP1 PUSH31 0xFFFFFFFFFFFFFFFFFFFFFFFFFFFFFFFFFFFFFFFFFFFFFFFFFFFFFFFFFFFFFF NOT AND SWAP1 DUP2 PUSH1 0x0 BYTE SWAP1 MSTORE8 POP PUSH1 0xA DUP6 PUSH2 0x16F5 SWAP2 SWAP1 PUSH2 0x1D1C JUMP JUMPDEST SWAP5 POP PUSH2 0x1673 JUMP JUMPDEST DUP1 SWAP4 POP POP POP POP JUMPDEST SWAP2 SWAP1 POP JUMP JUMPDEST POP POP POP POP JUMP JUMPDEST POP POP POP POP JUMP JUMPDEST PUSH1 0x40 MLOAD DUP1 PUSH1 0x60 ADD PUSH1 0x40 MSTORE DUP1 PUSH1 0x0 PUSH20 0xFFFFFFFFFFFFFFFFFFFFFFFFFFFFFFFFFFFFFFFF AND DUP2 MSTORE PUSH1 0x20 ADD PUSH1 0x0 PUSH8 0xFFFFFFFFFFFFFFFF AND DUP2 MSTORE PUSH1 0x20 ADD PUSH1 0x0 ISZERO ISZERO DUP2 MSTORE POP SWAP1 JUMP JUMPDEST PUSH1 0x0 PUSH2 0x176A PUSH2 0x1765 DUP5 PUSH2 0x1C52 JUMP JUMPDEST PUSH2 0x1C2D JUMP JUMPDEST SWAP1 POP DUP3 DUP2 MSTORE PUSH1 0x20 DUP2 ADD DUP5 DUP5 DUP5 ADD GT ISZERO PUSH2 0x1786 JUMPI PUSH2 0x1785 PUSH2 0x2004 JUMP JUMPDEST JUMPDEST PUSH2 0x1791 DUP5 DUP3 DUP6 PUSH2 0x1DF5 JUMP JUMPDEST POP SWAP4 SWAP3 POP POP POP JUMP JUMPDEST PUSH1 0x0 DUP2 CALLDATALOAD SWAP1 POP PUSH2 0x17A8 DUP2 PUSH2 0x2024 JUMP JUMPDEST SWAP3 SWAP2 POP POP JUMP JUMPDEST PUSH1 0x0 DUP2 CALLDATALOAD SWAP1 POP PUSH2 0x17BD DUP2 PUSH2 0x203B JUMP JUMPDEST SWAP3 SWAP2 POP POP JUMP JUMPDEST PUSH1 0x0 DUP2 CALLDATALOAD SWAP1 POP PUSH2 0x17D2 DUP2 PUSH2 0x2052 JUMP JUMPDEST SWAP3 SWAP2 POP POP JUMP JUMPDEST PUSH1 0x0 DUP2 MLOAD SWAP1 POP PUSH2 0x17E7 DUP2 PUSH2 0x2052 JUMP JUMPDEST SWAP3 SWAP2 POP POP JUMP JUMPDEST PUSH1 0x0 DUP3 PUSH1 0x1F DUP4 ADD SLT PUSH2 0x1802 JUMPI PUSH2 0x1801 PUSH2 0x1FFF JUMP JUMPDEST JUMPDEST DUP2 CALLDATALOAD PUSH2 0x1812 DUP5 DUP3 PUSH1 0x20 DUP7 ADD PUSH2 0x1757 JUMP JUMPDEST SWAP2 POP POP SWAP3 SWAP2 POP POP JUMP JUMPDEST PUSH1 0x0 DUP2 CALLDATALOAD SWAP1 POP PUSH2 0x182A DUP2 PUSH2 0x2069 JUMP JUMPDEST SWAP3 SWAP2 POP POP JUMP JUMPDEST PUSH1 0x0 PUSH1 0x20 DUP3 DUP5 SUB SLT ISZERO PUSH2 0x1846 JUMPI PUSH2 0x1845 PUSH2 0x200E JUMP JUMPDEST JUMPDEST PUSH1 0x0 PUSH2 0x1854 DUP5 DUP3 DUP6 ADD PUSH2 0x1799 JUMP JUMPDEST SWAP2 POP POP SWAP3 SWAP2 POP POP JUMP JUMPDEST PUSH1 0x0 DUP1 PUSH1 0x40 DUP4 DUP6 SUB SLT ISZERO PUSH2 0x1874 JUMPI PUSH2 0x1873 PUSH2 0x200E JUMP JUMPDEST JUMPDEST PUSH1 0x0 PUSH2 0x1882 DUP6 DUP3 DUP7 ADD PUSH2 0x1799 JUMP JUMPDEST SWAP3 POP POP PUSH1 0x20 PUSH2 0x1893 DUP6 DUP3 DUP7 ADD PUSH2 0x1799 JUMP JUMPDEST SWAP2 POP POP SWAP3 POP SWAP3 SWAP1 POP JUMP JUMPDEST PUSH1 0x0 DUP1 PUSH1 0x0 PUSH1 0x60 DUP5 DUP7 SUB SLT ISZERO PUSH2 0x18B6 JUMPI PUSH2 0x18B5 PUSH2 0x200E JUMP JUMPDEST JUMPDEST PUSH1 0x0 PUSH2 0x18C4 DUP7 DUP3 DUP8 ADD PUSH2 0x1799 JUMP JUMPDEST SWAP4 POP POP PUSH1 0x20 PUSH2 0x18D5 DUP7 DUP3 DUP8 ADD PUSH2 0x1799 JUMP JUMPDEST SWAP3 POP POP PUSH1 0x40 PUSH2 0x18E6 DUP7 DUP3 DUP8 ADD PUSH2 0x181B JUMP JUMPDEST SWAP2 POP POP SWAP3 POP SWAP3 POP SWAP3 JUMP JUMPDEST PUSH1 0x0 DUP1 PUSH1 0x0 DUP1 PUSH1 0x80 DUP6 DUP8 SUB SLT ISZERO PUSH2 0x190A JUMPI PUSH2 0x1909 PUSH2 0x200E JUMP JUMPDEST JUMPDEST PUSH1 0x0 PUSH2 0x1918 DUP8 DUP3 DUP9 ADD PUSH2 0x1799 JUMP JUMPDEST SWAP5 POP POP PUSH1 0x20 PUSH2 0x1929 DUP8 DUP3 DUP9 ADD PUSH2 0x1799 JUMP JUMPDEST SWAP4 POP POP PUSH1 0x40 PUSH2 0x193A DUP8 DUP3 DUP9 ADD PUSH2 0x181B JUMP JUMPDEST SWAP3 POP POP PUSH1 0x60 DUP6 ADD CALLDATALOAD PUSH8 0xFFFFFFFFFFFFFFFF DUP2 GT ISZERO PUSH2 0x195B JUMPI PUSH2 0x195A PUSH2 0x2009 JUMP JUMPDEST JUMPDEST PUSH2 0x1967 DUP8 DUP3 DUP9 ADD PUSH2 0x17ED JUMP JUMPDEST SWAP2 POP POP SWAP3 SWAP6 SWAP2 SWAP5 POP SWAP3 POP JUMP JUMPDEST PUSH1 0x0 DUP1 PUSH1 0x40 DUP4 DUP6 SUB SLT ISZERO PUSH2 0x198A JUMPI PUSH2 0x1989 PUSH2 0x200E JUMP JUMPDEST JUMPDEST PUSH1 0x0 PUSH2 0x1998 DUP6 DUP3 DUP7 ADD PUSH2 0x1799 JUMP JUMPDEST SWAP3 POP POP PUSH1 0x20 PUSH2 0x19A9 DUP6 DUP3 DUP7 ADD PUSH2 0x17AE JUMP JUMPDEST SWAP2 POP POP SWAP3 POP SWAP3 SWAP1 POP JUMP JUMPDEST PUSH1 0x0 DUP1 PUSH1 0x40 DUP4 DUP6 SUB SLT ISZERO PUSH2 0x19CA JUMPI PUSH2 0x19C9 PUSH2 0x200E JUMP JUMPDEST JUMPDEST PUSH1 0x0 PUSH2 0x19D8 DUP6 DUP3 DUP7 ADD PUSH2 0x1799 JUMP JUMPDEST SWAP3 POP POP PUSH1 0x20 PUSH2 0x19E9 DUP6 DUP3 DUP7 ADD PUSH2 0x181B JUMP JUMPDEST SWAP2 POP POP SWAP3 POP SWAP3 SWAP1 POP JUMP JUMPDEST PUSH1 0x0 PUSH1 0x20 DUP3 DUP5 SUB SLT ISZERO PUSH2 0x1A09 JUMPI PUSH2 0x1A08 PUSH2 0x200E JUMP JUMPDEST JUMPDEST PUSH1 0x0 PUSH2 0x1A17 DUP5 DUP3 DUP6 ADD PUSH2 0x17C3 JUMP JUMPDEST SWAP2 POP POP SWAP3 SWAP2 POP POP JUMP JUMPDEST PUSH1 0x0 PUSH1 0x20 DUP3 DUP5 SUB SLT ISZERO PUSH2 0x1A36 JUMPI PUSH2 0x1A35 PUSH2 0x200E JUMP JUMPDEST JUMPDEST PUSH1 0x0 PUSH2 0x1A44 DUP5 DUP3 DUP6 ADD PUSH2 0x17D8 JUMP JUMPDEST SWAP2 POP POP SWAP3 SWAP2 POP POP JUMP JUMPDEST PUSH1 0x0 PUSH1 0x20 DUP3 DUP5 SUB SLT ISZERO PUSH2 0x1A63 JUMPI PUSH2 0x1A62 PUSH2 0x200E JUMP JUMPDEST JUMPDEST PUSH1 0x0 PUSH2 0x1A71 DUP5 DUP3 DUP6 ADD PUSH2 0x181B JUMP JUMPDEST SWAP2 POP POP SWAP3 SWAP2 POP POP JUMP JUMPDEST PUSH2 0x1A83 DUP2 PUSH2 0x1D81 JUMP JUMPDEST DUP3 MSTORE POP POP JUMP JUMPDEST PUSH2 0x1A92 DUP2 PUSH2 0x1D93 JUMP JUMPDEST DUP3 MSTORE POP POP JUMP JUMPDEST PUSH1 0x0 PUSH2 0x1AA3 DUP3 PUSH2 0x1C83 JUMP JUMPDEST PUSH2 0x1AAD DUP2 DUP6 PUSH2 0x1C99 JUMP JUMPDEST SWAP4 POP PUSH2 0x1ABD DUP2 DUP6 PUSH1 0x20 DUP7 ADD PUSH2 0x1E04 JUMP JUMPDEST PUSH2 0x1AC6 DUP2 PUSH2 0x2013 JUMP JUMPDEST DUP5 ADD SWAP2 POP POP SWAP3 SWAP2 POP POP JUMP JUMPDEST PUSH1 0x0 PUSH2 0x1ADC DUP3 PUSH2 0x1C8E JUMP JUMPDEST PUSH2 0x1AE6 DUP2 DUP6 PUSH2 0x1CAA JUMP JUMPDEST SWAP4 POP PUSH2 0x1AF6 DUP2 DUP6 PUSH1 0x20 DUP7 ADD PUSH2 0x1E04 JUMP JUMPDEST PUSH2 0x1AFF DUP2 PUSH2 0x2013 JUMP JUMPDEST DUP5 ADD SWAP2 POP POP SWAP3 SWAP2 POP POP JUMP JUMPDEST PUSH1 0x0 PUSH2 0x1B15 DUP3 PUSH2 0x1C8E JUMP JUMPDEST PUSH2 0x1B1F DUP2 DUP6 PUSH2 0x1CBB JUMP JUMPDEST SWAP4 POP PUSH2 0x1B2F DUP2 DUP6 PUSH1 0x20 DUP7 ADD PUSH2 0x1E04 JUMP JUMPDEST DUP1 DUP5 ADD SWAP2 POP POP SWAP3 SWAP2 POP POP JUMP JUMPDEST PUSH2 0x1B44 DUP2 PUSH2 0x1DEB JUMP JUMPDEST DUP3 MSTORE POP POP JUMP JUMPDEST PUSH1 0x0 PUSH2 0x1B56 DUP3 DUP6 PUSH2 0x1B0A JUMP JUMPDEST SWAP2 POP PUSH2 0x1B62 DUP3 DUP5 PUSH2 0x1B0A JUMP JUMPDEST SWAP2 POP DUP2 SWAP1 POP SWAP4 SWAP3 POP POP POP JUMP JUMPDEST PUSH1 0x0 PUSH1 0x20 DUP3 ADD SWAP1 POP PUSH2 0x1B83 PUSH1 0x0 DUP4 ADD DUP5 PUSH2 0x1A7A JUMP JUMPDEST SWAP3 SWAP2 POP POP JUMP JUMPDEST PUSH1 0x0 PUSH1 0x80 DUP3 ADD SWAP1 POP PUSH2 0x1B9E PUSH1 0x0 DUP4 ADD DUP8 PUSH2 0x1A7A JUMP JUMPDEST PUSH2 0x1BAB PUSH1 0x20 DUP4 ADD DUP7 PUSH2 0x1A7A JUMP JUMPDEST PUSH2 0x1BB8 PUSH1 0x40 DUP4 ADD DUP6 PUSH2 0x1B3B JUMP JUMPDEST DUP2 DUP2 SUB PUSH1 0x60 DUP4 ADD MSTORE PUSH2 0x1BCA DUP2 DUP5 PUSH2 0x1A98 JUMP JUMPDEST SWAP1 POP SWAP6 SWAP5 POP POP POP POP POP JUMP JUMPDEST PUSH1 0x0 PUSH1 0x20 DUP3 ADD SWAP1 POP PUSH2 0x1BEA PUSH1 0x0 DUP4 ADD DUP5 PUSH2 0x1A89 JUMP JUMPDEST SWAP3 SWAP2 POP POP JUMP JUMPDEST PUSH1 0x0 PUSH1 0x20 DUP3 ADD SWAP1 POP DUP2 DUP2 SUB PUSH1 0x0 DUP4 ADD MSTORE PUSH2 0x1C0A DUP2 DUP5 PUSH2 0x1AD1 JUMP JUMPDEST SWAP1 POP SWAP3 SWAP2 POP POP JUMP JUMPDEST PUSH1 0x0 PUSH1 0x20 DUP3 ADD SWAP1 POP PUSH2 0x1C27 PUSH1 0x0 DUP4 ADD DUP5 PUSH2 0x1B3B JUMP JUMPDEST SWAP3 SWAP2 POP POP JUMP JUMPDEST PUSH1 0x0 PUSH2 0x1C37 PUSH2 0x1C48 JUMP JUMPDEST SWAP1 POP PUSH2 0x1C43 DUP3 DUP3 PUSH2 0x1E69 JUMP JUMPDEST SWAP2 SWAP1 POP JUMP JUMPDEST PUSH1 0x0 PUSH1 0x40 MLOAD SWAP1 POP SWAP1 JUMP JUMPDEST PUSH1 0x0 PUSH8 0xFFFFFFFFFFFFFFFF DUP3 GT ISZERO PUSH2 0x1C6D JUMPI PUSH2 0x1C6C PUSH2 0x1FD0 JUMP JUMPDEST JUMPDEST PUSH2 0x1C76 DUP3 PUSH2 0x2013 JUMP JUMPDEST SWAP1 POP PUSH1 0x20 DUP2 ADD SWAP1 POP SWAP2 SWAP1 POP JUMP JUMPDEST PUSH1 0x0 DUP2 MLOAD SWAP1 POP SWAP2 SWAP1 POP JUMP JUMPDEST PUSH1 0x0 DUP2 MLOAD SWAP1 POP SWAP2 SWAP1 POP JUMP JUMPDEST PUSH1 0x0 DUP3 DUP3 MSTORE PUSH1 0x20 DUP3 ADD SWAP1 POP SWAP3 SWAP2 POP POP JUMP JUMPDEST PUSH1 0x0 DUP3 DUP3 MSTORE PUSH1 0x20 DUP3 ADD SWAP1 POP SWAP3 SWAP2 POP POP JUMP JUMPDEST PUSH1 0x0 DUP2 SWAP1 POP SWAP3 SWAP2 POP POP JUMP JUMPDEST PUSH1 0x0 PUSH2 0x1CD1 DUP3 PUSH2 0x1DEB JUMP JUMPDEST SWAP2 POP PUSH2 0x1CDC DUP4 PUSH2 0x1DEB JUMP JUMPDEST SWAP3 POP DUP3 PUSH32 0xFFFFFFFFFFFFFFFFFFFFFFFFFFFFFFFFFFFFFFFFFFFFFFFFFFFFFFFFFFFFFFFF SUB DUP3 GT ISZERO PUSH2 0x1D11 JUMPI PUSH2 0x1D10 PUSH2 0x1F14 JUMP JUMPDEST JUMPDEST DUP3 DUP3 ADD SWAP1 POP SWAP3 SWAP2 POP POP JUMP JUMPDEST PUSH1 0x0 PUSH2 0x1D27 DUP3 PUSH2 0x1DEB JUMP JUMPDEST SWAP2 POP PUSH2 0x1D32 DUP4 PUSH2 0x1DEB JUMP JUMPDEST SWAP3 POP DUP3 PUSH2 0x1D42 JUMPI PUSH2 0x1D41 PUSH2 0x1F43 JUMP JUMPDEST JUMPDEST DUP3 DUP3 DIV SWAP1 POP SWAP3 SWAP2 POP POP JUMP JUMPDEST PUSH1 0x0 PUSH2 0x1D58 DUP3 PUSH2 0x1DEB JUMP JUMPDEST SWAP2 POP PUSH2 0x1D63 DUP4 PUSH2 0x1DEB JUMP JUMPDEST SWAP3 POP DUP3 DUP3 LT ISZERO PUSH2 0x1D76 JUMPI PUSH2 0x1D75 PUSH2 0x1F14 JUMP JUMPDEST JUMPDEST DUP3 DUP3 SUB SWAP1 POP SWAP3 SWAP2 POP POP JUMP JUMPDEST PUSH1 0x0 PUSH2 0x1D8C DUP3 PUSH2 0x1DCB JUMP JUMPDEST SWAP1 POP SWAP2 SWAP1 POP JUMP JUMPDEST PUSH1 0x0 DUP2 ISZERO ISZERO SWAP1 POP SWAP2 SWAP1 POP JUMP JUMPDEST PUSH1 0x0 PUSH32 0xFFFFFFFF00000000000000000000000000000000000000000000000000000000 DUP3 AND SWAP1 POP SWAP2 SWAP1 POP JUMP JUMPDEST PUSH1 0x0 PUSH20 0xFFFFFFFFFFFFFFFFFFFFFFFFFFFFFFFFFFFFFFFF DUP3 AND SWAP1 POP SWAP2 SWAP1 POP JUMP JUMPDEST PUSH1 0x0 DUP2 SWAP1 POP SWAP2 SWAP1 POP JUMP JUMPDEST DUP3 DUP2 DUP4 CALLDATACOPY PUSH1 0x0 DUP4 DUP4 ADD MSTORE POP POP POP JUMP JUMPDEST PUSH1 0x0 JUMPDEST DUP4 DUP2 LT ISZERO PUSH2 0x1E22 JUMPI DUP1 DUP3 ADD MLOAD DUP2 DUP5 ADD MSTORE PUSH1 0x20 DUP2 ADD SWAP1 POP PUSH2 0x1E07 JUMP JUMPDEST DUP4 DUP2 GT ISZERO PUSH2 0x1E31 JUMPI PUSH1 0x0 DUP5 DUP5 ADD MSTORE JUMPDEST POP POP POP POP JUMP JUMPDEST PUSH1 0x0 PUSH1 0x2 DUP3 DIV SWAP1 POP PUSH1 0x1 DUP3 AND DUP1 PUSH2 0x1E4F JUMPI PUSH1 0x7F DUP3 AND SWAP2 POP JUMPDEST PUSH1 0x20 DUP3 LT DUP2 EQ ISZERO PUSH2 0x1E63 JUMPI PUSH2 0x1E62 PUSH2 0x1F72 JUMP JUMPDEST JUMPDEST POP SWAP2 SWAP1 POP JUMP JUMPDEST PUSH2 0x1E72 DUP3 PUSH2 0x2013 JUMP JUMPDEST DUP2 ADD DUP2 DUP2 LT PUSH8 0xFFFFFFFFFFFFFFFF DUP3 GT OR ISZERO PUSH2 0x1E91 JUMPI PUSH2 0x1E90 PUSH2 0x1FD0 JUMP JUMPDEST JUMPDEST DUP1 PUSH1 0x40 MSTORE POP POP POP JUMP JUMPDEST PUSH1 0x0 PUSH2 0x1EA5 DUP3 PUSH2 0x1DEB JUMP JUMPDEST SWAP2 POP PUSH32 0xFFFFFFFFFFFFFFFFFFFFFFFFFFFFFFFFFFFFFFFFFFFFFFFFFFFFFFFFFFFFFFFF DUP3 EQ ISZERO PUSH2 0x1ED8 JUMPI PUSH2 0x1ED7 PUSH2 0x1F14 JUMP JUMPDEST JUMPDEST PUSH1 0x1 DUP3 ADD SWAP1 POP SWAP2 SWAP1 POP JUMP JUMPDEST PUSH1 0x0 PUSH2 0x1EEE DUP3 PUSH2 0x1DEB JUMP JUMPDEST SWAP2 POP PUSH2 0x1EF9 DUP4 PUSH2 0x1DEB JUMP JUMPDEST SWAP3 POP DUP3 PUSH2 0x1F09 JUMPI PUSH2 0x1F08 PUSH2 0x1F43 JUMP JUMPDEST JUMPDEST DUP3 DUP3 MOD SWAP1 POP SWAP3 SWAP2 POP POP JUMP JUMPDEST PUSH32 0x4E487B7100000000000000000000000000000000000000000000000000000000 PUSH1 0x0 MSTORE PUSH1 0x11 PUSH1 0x4 MSTORE PUSH1 0x24 PUSH1 0x0 REVERT JUMPDEST PUSH32 0x4E487B7100000000000000000000000000000000000000000000000000000000 PUSH1 0x0 MSTORE PUSH1 0x12 PUSH1 0x4 MSTORE PUSH1 0x24 PUSH1 0x0 REVERT JUMPDEST PUSH32 0x4E487B7100000000000000000000000000000000000000000000000000000000 PUSH1 0x0 MSTORE PUSH1 0x22 PUSH1 0x4 MSTORE PUSH1 0x24 PUSH1 0x0 REVERT JUMPDEST PUSH32 0x4E487B7100000000000000000000000000000000000000000000000000000000 PUSH1 0x0 MSTORE PUSH1 0x32 PUSH1 0x4 MSTORE PUSH1 0x24 PUSH1 0x0 REVERT JUMPDEST PUSH32 0x4E487B7100000000000000000000000000000000000000000000000000000000 PUSH1 0x0 MSTORE PUSH1 0x41 PUSH1 0x4 MSTORE PUSH1 0x24 PUSH1 0x0 REVERT JUMPDEST PUSH1 0x0 DUP1 REVERT JUMPDEST PUSH1 0x0 DUP1 REVERT JUMPDEST PUSH1 0x0 DUP1 REVERT JUMPDEST PUSH1 0x0 DUP1 REVERT JUMPDEST PUSH1 0x0 PUSH1 0x1F NOT PUSH1 0x1F DUP4 ADD AND SWAP1 POP SWAP2 SWAP1 POP JUMP JUMPDEST PUSH2 0x202D DUP2 PUSH2 0x1D81 JUMP JUMPDEST DUP2 EQ PUSH2 0x2038 JUMPI PUSH1 0x0 DUP1 REVERT JUMPDEST POP JUMP JUMPDEST PUSH2 0x2044 DUP2 PUSH2 0x1D93 JUMP JUMPDEST DUP2 EQ PUSH2 0x204F JUMPI PUSH1 0x0 DUP1 REVERT JUMPDEST POP JUMP JUMPDEST PUSH2 0x205B DUP2 PUSH2 0x1D9F JUMP JUMPDEST DUP2 EQ PUSH2 0x2066 JUMPI PUSH1 0x0 DUP1 REVERT JUMPDEST POP JUMP JUMPDEST PUSH2 0x2072 DUP2 PUSH2 0x1DEB JUMP JUMPDEST DUP2 EQ PUSH2 0x207D JUMPI PUSH1 0x0 DUP1 REVERT JUMPDEST POP JUMP INVALID LOG2 PUSH5 0x6970667358 0x22 SLT KECCAK256 0xCE MOD SWAP15 SWAP8 ADDRESS 0x4C AND 0xF9 GASLIMIT SWAP12 PUSH11 0x443FA88D03EFA61632C61E SHL 0xC8 SWAP14 SWAP9 0x2B SAR SWAP1 0xC0 0x2F PUSH10 0x64736F6C634300080700 CALLER "
				},
				"gasEstimates": {
					"creation": {
						"codeDepositCost": "1674800",
						"executionCost": "infinite",
						"totalCost": "infinite"
					},
					"external": {
						"approve(address,uint256)": "infinite",
						"balanceOf(address)": "2972",
						"getApproved(uint256)": "7458",
						"isApprovedForAll(address,address)": "infinite",
						"name()": "infinite",
						"ownerOf(uint256)": "infinite",
						"safeTransferFrom(address,address,uint256)": "infinite",
						"safeTransferFrom(address,address,uint256,bytes)": "infinite",
						"setApprovalForAll(address,bool)": "infinite",
						"supportsInterface(bytes4)": "797",
						"symbol()": "infinite",
						"tokenURI(uint256)": "infinite",
						"totalSupply()": "4621",
						"transferFrom(address,address,uint256)": "infinite"
					},
					"internal": {
						"_afterTokenTransfers(address,address,uint256,uint256)": "17",
						"_approve(address,uint256,address)": "26292",
						"_baseURI()": "infinite",
						"_beforeTokenTransfers(address,address,uint256,uint256)": "17",
						"_burn(uint256)": "infinite",
						"_burn(uint256,bool)": "infinite",
						"_checkContractOnERC721Received(address,address,uint256,bytes memory)": "infinite",
						"_exists(uint256)": "4499",
						"_getAux(address)": "infinite",
						"_mint(address,uint256,bytes memory,bool)": "infinite",
						"_numberBurned(address)": "infinite",
						"_numberMinted(address)": "infinite",
						"_ownershipOf(uint256)": "infinite",
						"_safeMint(address,uint256)": "infinite",
						"_safeMint(address,uint256,bytes memory)": "infinite",
						"_setAux(address,uint64)": "infinite",
						"_startTokenId()": "15",
						"_totalMinted()": "infinite",
						"_transfer(address,address,uint256)": "infinite"
					}
				},
				"methodIdentifiers": {
					"approve(address,uint256)": "095ea7b3",
					"balanceOf(address)": "70a08231",
					"getApproved(uint256)": "081812fc",
					"isApprovedForAll(address,address)": "e985e9c5",
					"name()": "06fdde03",
					"ownerOf(uint256)": "6352211e",
					"safeTransferFrom(address,address,uint256)": "42842e0e",
					"safeTransferFrom(address,address,uint256,bytes)": "b88d4fde",
					"setApprovalForAll(address,bool)": "a22cb465",
					"supportsInterface(bytes4)": "01ffc9a7",
					"symbol()": "95d89b41",
					"tokenURI(uint256)": "c87b56dd",
					"totalSupply()": "18160ddd",
					"transferFrom(address,address,uint256)": "23b872dd"
				}
			},
			"userdoc": {
				"kind": "user",
				"methods": {},
				"version": 1
			}
		}
	}
}